:020000040800F2
:100000003810002045010008A7140008D511000889
:10001000A5140008B5020008AB1B00080000000092
:10002000000000000000000000000000AB14000809
:10003000B702000800000000A9140008AD14000871
:100040005F0100085F0100085F0100085F01000810
:100050005F0100085F0100085F0100085F01000800
:100060005F0100085F0100085F0100085F010008F0
:100070005F0100085F0100085F0100085F010008E0
:100080005F0100085F0100085F0100085F010008D0
:10009000A11B00085F0100085F0100085F01000864
:1000A0005F0100085F0100085F0100085F010008B0
:1000B0005F0100085F0100085F0100085F010008A0
:1000C0005F0100085F0100085F0100085F01000890
:1000D0005F0100085F0100085F0100085F01000880
:1000E0005F0100085F0100085F0100085F01000870
:1000F0005F0100085F0100085F0100085F01000860
:100100005F0100085F0100085F0100085F0100084F
:100110005F0100085F010008291500083515000877
:100120005F0100085F0100085F0100085F0100082F
:10013000DFF80CD000F072F800480047892400086E
:10014000381000200648804706480047FEE7FEE7D3
:10015000FEE7FEE7FEE7FEE7FEE7FEE7FEE7FEE777
:100160002715000831010008202A04DB203A21FA73
:1001700002F00021704721FA02F3D040C2F12002C0
:100180009140084319467047D2B201E000F8012BB4
:10019000491EFBD270470022F6E710B513460A4607
:1001A00004461946FFF7F0FF204610BD421C10F828
:1001B000011B0029FBD1801A70472DE9F05F05462D
:1001C000002092469B4688460646814640241BE016
:1001D0002846414647462246FFF7C6FF53465A4641
:1001E000C01A914110D311461846224600F028F853
:1001F0002D1A67EB01084F4622460120002100F02E
:100200001FF817EB00094E41201EA4F10104DFDCAA
:10021000484631462A464346BDE8F09F064C074D06
:1002200006E0E06840F0010394E8070098471034C6
:10023000AC42F6D3FFF780FFB03E0008D03E000886
:10024000202A04DB203A00FA02F100207047914096
:10025000C2F1200320FA03F319439040704770B5B0
:100260008C1810F8015B15F0070301D110F8013B61
:100270002A1106D110F8012B03E010F8016B01F8E8
:10028000016B5B1EF9D12B0705D40023521E0DD440
:1002900001F8013BFAE710F8013BCB1A921C03E08E
:1002A00013F8015B01F8015B521EF9D5A142D8D3C6
:1002B000002070BDFEE7704772B6FEE770B50446D9
:1002C00000F014F90546601C02D00448007804448C
:1002D00000F00CF9401BA042FAD370BD340000209E
:1002E0002DE9F84FDFF8C8910024A9F1040B23464B
:1002F0000F2709F1040AABF1040ED1E00125A54056
:1003000006EA0502AA4276D1DFF8A8C14E68A6EB3C
:100310000C0866452BD00DDC032E34D005DC36B33B
:10032000012E19D0022E2FD11BE0112E16D0122E25
:100330002AD119E0B8F5881F19D006DCB8F5803F3E
:1003400015D0B8F5801F1FD111E0B8F5001F0ED0F1
:10035000B8F5041F18D10AE0CB6815E0CB681B1D67
:1003600012E0CB6808330FE0CB680C330CE08B68ED
:100370002BB1012B4FF0080303D0456104E00423A7
:1003800002E0056100E00023FF2A01D8064601E0F3
:1003900000F104064FEA840501D9A5F12005D6F83D
:1003A000008007FA05FC28EA0C0803FA05F548EA7C
:1003B0000508C6F800804D68ED0070D53E4DAE6969
:1003C00046F00106AE61AD6924F0030605F00105B3
:1003D00000953A4D06EB050CDCF80850A607360FE1
:1003E00007FA06F825EA0805DFF8D480404503D16E
:1003F0004FF0000825E052E0DFF8C880404502D108
:100400004FF001081DE0DFF8C080404502D14FF0F9
:10041000020816E0DFF8B480404502D14FF003082F
:100420000FE0DFF8AC80404502D14FF0040808E04F
:10043000DFF8A080404502D14FF0050801E04FF001
:10044000060808FA06F848EA0508CCF808804D685E
:10045000D9F80060ED024D4601D5164300E0964301
:100460002E604D68DAF80060AD02554601D516439E
:1004700000E096432E604D68DBF80060AD035D46FA
:1004800001D5164300E096432E604D68DEF800600B
:10049000ED03754601D5164300E096432E60641CBB
:1004A0000A681646E2407FF429AFBDE8F88F0000E5
:1004B000080401400000111000100240000001403B
:1004C00000080140000C01400010014000140140F0
:1004D00000180140001C01408068084000D0012045
:1004E00070470AB1016170470904FBE70148806861
:1004F00070470000340000200248816802781144EF
:100500008160704734000020074810B5016841F051
:1005100010010160032000F0A1F80F2000F006F8A0
:1005200000F050F8002010BD0020024030B5054614
:100530001F4887B0C16941F01001C161C06906A9B7
:1005400000F01000009001A800F02AFA0498B0B161
:1005500000F046FA40001749174AB0FBF1F117487E
:10056000491E0260416040F2E7320021C0E90321E8
:100570008160816100F04AFC040003D015E000F0C6
:100580002FFAE8E70D4800F08DFC04000DD136206D
:1005900000F036F8102D07D200222946362000F050
:1005A0003DF80748056000E0012407B0204630BD53
:1005B0000010024040420F0000100040CC09002013
:1005C000380000200C4808B5816941F001018161C3
:1005D000816901F001010091C16941F08051C1615F
:1005E000C06900F0805000900448416821F0E0614B
:1005F00041F00071416008BD001002400000014060
:10060000002809DB00F01F02012191404009800011
:1006100000F1E020C0F8001170470000F0B40E4B6C
:100620001B680C46C3F30223C3F10705042D00D950
:100630000425191D072901D2002300E0DB1E012635
:1006400006FA05F1491E214099409E40761E16404B
:100650003143F0BC01F0BABA0CED00E0064900F0FD
:10066000070208684FF6FF03184040EA0220034AD9
:1006700010430860704700000CED00E00000FA0530
:100680002DE9F041040004D094F89102002518B13E
:1006900007E00120BDE8F08184F89052204600F088
:1006A0004DF8032084F891026571206801F071FA19
:1006B00094E80F0001F060FA022698BB0021206840
:1006C00001F071FA70BB002001270BE000EB800104
:1006D00004EBC1014F740874CD740D624D62401C6F
:1006E000C0B28D6221798142F0D8002012E000BFB3
:1006F00000EB800104EBC10181F8515181F85001F8
:1007000081F85351C1F86051C1F86451401CC0B226
:10071000C1F8685121798142EAD894E80F0001F0CC
:100720002FFA10B184F89162B3E7657384F891727F
:10073000206801F023FA0020ACE7000008B500684B
:100740000F4988421AD10F48C16941F40001C161C3
:10075000C069002200F40000009011461320FFF74A
:100760005DFF1320FFF74CFF002211461420FFF716
:1007700055FFBDE808401420FFF742BF08BD000048
:10078000005C0040001002402DE9F8430546007867
:10079000354CC00754D0E0690026C00008D4E06999
:1007A00040F08050E061E069012600F08050009048
:1007B0002E480168C90512D40168804641F4807151
:1007C0000160FFF793FE074605E000BFFFF78EFECE
:1007D000C01B642823D8D8F80000C005F6D5206ACD
:1007E00010F4407021D0A98801F4407181421CD0DE
:1007F000206A1F49012220F440700A6000220A602A
:100800002062C00711D0FFF771FE074641F2883819
:1008100008E000BFFFF76AFEC11B414502D9032073
:10082000BDE8F883206A8007F4D5206A696820F45F
:100830004070084320621EB1E06920F08050E06102
:100840002878800705D56068A96820F440400843EF
:1008500060602878C00605D56068696920F480006A
:10086000084360600020DBE7001002400070004099
:10087000400442422DE9F0470F46050061D0434E47
:10088000306800F00700B84209D2306820F0070055
:1008900038433060306800F00700B84251D1286812
:1008A0003B4C810712D5400703D5606840F4E060F7
:1008B00060602878000703D5606840F4605060608D
:1008C0006068A96820F0F000084360602878C007DD
:1008D00028D06868012810D02168022810D0890724
:1008E00000292EDA616821F0030101436160FFF7FE
:1008F000FDFD804641F288390DE021688903EFE76C
:100900008901EDE7FFF7F2FDA0EB0801494502D9A7
:100910000320BDE8F0876068696800F00C00B0EB68
:10092000810FEFD1306800F00700B8420BD9306872
:1009300020F0070038433060306800F00700B8420C
:1009400001D00120E5E72878400705D56068E9680F
:1009500020F4E060084360602878000706D56068EE
:10096000296920F4605040EAC100606000F058F846
:100970006168084AC1F30311515CC8400649086028
:1009800006480068FFF7D2FD0020C2E700200240C1
:10099000001002407A3C000840000020380000208F
:1009A0000F2202600C4A536803F00303436053684C
:1009B00003F0F0038360536803F4E063C36052689C
:1009C0004FF4E06303EAD20202610448006800F0D9
:1009D000070008607047000000100240002002403D
:1009E0000448054900684968044AC1F30221515C82
:1009F000C840704740000020001002408A3C0008B8
:100A00000448054900684968044AC1F3C221515CA1
:100A1000C840704740000020001002408A3C000897
:100A20000E4A51680E4801F00C03042B11D0082B1C
:100A30000FD10C48C1F38343C903C05C0AD5516888
:100A4000084AC1F34041921E515C054A5043B0FB35
:100A5000F1F070470449484370470000001002401D
:100A600000127A006A3C000800093D002DE9F84FA9
:100A7000040070D02078C04DC00749D06868C0F32A
:100A80008100012807D06868C0F38100022809D1DD
:100A90006868C00306D52868800339D560680028D7
:100AA000E7D035E06068B0F5803F0BD010B1B0F50D
:100AB000A02F11D0286820F480302860286820F406
:100AC000802002E0286840F480302860606890B19F
:100AD000FFF70CFD06460AE0286840F480202860F5
:100AE000F0E700BFFFF702FD801B642873D8286879
:100AF0008003F7D50CE0FFF7F9FC064605E000BFE0
:100B0000FFF7F4FC801B6428F0D828688003F7D432
:100B100020789A4E80074FF001094FF0000839D530
:100B2000686810F00C0F07D06868C0F381000228D5
:100B300009D16868C00306D42868800714D52069E5
:100B4000012808D110E02069B0B1C6F80090FFF785
:100B5000CDFC074605E00AE1FFF7C8FCC01B0228F0
:100B6000C4D828688007F7D52868616920F0F800A4
:100B700040EAC10028600DE0C6F80080FFF7B6FC2F
:100B8000074604E0FFF7B2FCC01B022823D8286800
:100B90008007F7D4207800072CD57948A169D9B10E
:100BA000C0F80090FFF7A2FC074604E0FFF79EFCA8
:100BB000C01B02280FD8686A8007F7D571484FF428
:100BC000FA510068B0FBF1F0009000BF0098411EA0
:100BD0000091FAD20EE080E0C0F80080FFF786FCBA
:100BE000074604E0FFF782FCC01B022875D8686A3C
:100BF0008007F7D42078400760D5E8690027C00057
:100C000008D4E86940F08050E861E869012700F005
:100C1000805000905C480168C90513D40168834680
:100C200041F480710160FFF761FC824606E000BF7D
:100C3000FFF75CFCA0EB0A0064284ED8DBF800004C
:100C4000C005F5D5E06801280AD008B1052813D001
:100C5000286A20F001002862286A20F0040002E0DF
:100C6000286A40F001002862E06841F2883B98B1B0
:100C7000FFF73CFC82460BE0286A40F00400286243
:100C8000EEE700BFFFF732FCA0EB0A0159455AD846
:100C9000286A8007F6D50CE0FFF728FC824605E0BD
:100CA000FFF724FCA0EB0A0159454CD8286A8007BD
:100CB000F6D41FB1E86920F08050E861E06988B39C
:100CC0006968C1F38101022944D00228C6F8608016
:100CD00004D0FFF70BFC044638E034E0FFF706FCD5
:100CE000074604E0FFF702FCC01B02282BD8286847
:100CF0008001F7D4206AB0F5803F05D16868A1680B
:100D000020F4003008436860D4E9080108436968AA
:100D100021F4741108436860C6F86090FFF7E6FBA1
:100D2000044606E025E000BFFFF7E0FB001B0228B9
:100D300009D828688001F7D51BE000BFFFF7D6FB74
:100D4000001B022802D90320BDE8F88F2868800123
:100D5000F4D40EE00128F7D06868226A00F48031EC
:100D6000914204D1616A00F47010884201D00120E0
:100D7000EAE70020E8E700000010024000004242DD
:100D800080044242400000200070004070477047DD
:100D900070B590F83C20012A2CD0012480F83C400A
:100DA000022280F83D2003685A689D6822F0700690
:100DB0000A6832435A60104B02689A420ED00F4BB9
:100DC0009A420BD0B2F1804F08D00D4B9A4205D019
:100DD0000C4B9A4202D00C4B9A4204D1496825F040
:100DE00080031943916080F83D40002180F83C1059
:100DF000084670BD022070BD002C01400034014047
:100E00000004004000080040000C004010B5040041
:100E100003D094F83D0010B107E0012010BD002080
:100E200084F83C00204600F01FF8022084F83D00C2
:100E3000211D206800F0BEFB012084F8460084F8E4
:100E40003E0084F83F0084F8400084F8410084F8B4
:100E5000420084F8430084F8440084F8450084F894
:100E60003D00002010BD000008B500680B49884215
:100E700012D10B48C16941F02001C161C069022251
:100E800000F02000009011463720FFF7C7FBBDE8B7
:100E900008403720FFF7B4BB08BD00000014004035
:100EA0000010024090F83D10012901D00120704748
:100EB000022180F83D100168CA6842F00102CA6050
:100EC00000680E4988420ED00D4988420BD0B0F11F
:100ED000804F08D00B49884205D00B49884202D088
:100EE0000A49884204D1816801F00701062903D02C
:100EF000016841F00101016000207047002C0140B1
:100F0000003401400004004000080040000C004094
:100F100070472DE9F04104460068C66805694FF046
:100F20000007A90713D5B10711D5F91E01610120EA
:100F30002077206880698007204602D0FFF7E8FF0D
:100F400004E000F07EF8204600F07CF82777680780
:100F500016D5700714D521686FF0040008610220CF
:100F600020772068806910F4407F204602D0FFF788
:100F7000CFFF04E000F065F8204600F063F8277723
:100F8000280715D5300713D521686FF008000861D0
:100F9000042020772068C0698007204602D0FFF730
:100FA000B7FF04E000F04DF8204600F04BF827773B
:100FB000E80616D5F00614D521686FF01000086118
:100FC000082020772068C06910F4407F204602D0B6
:100FD000FFF79EFF04E000F034F8204600F032F8FE
:100FE0002777E80708D0F00706D021686FF00100E6
:100FF0000861204600F028F8280608D5300606D5F6
:1010000021686FF0800008612046FFF7BFFE680688
:1010100008D5700606D521686FF0400008612046AB
:1010200000F01CF8A8060AD5B00608D521686FF0B4
:10103000200008612046BDE8F041FFF7A8BEBDE8EA
:10104000F08170477047000000680349884201D171
:10105000FFF752BA7047000000100040704770B5AB
:10106000040004D094F84100002510B106E00120EE
:1010700070BD84F84050204600F024F8242084F805
:1010800041002068C16821F40051C160204600F091
:1010900007FB2068016921F49041016120684169E2
:1010A00021F02A0141612068C16841F40051C1600A
:1010B0006564202084F8410084F8420065630020C4
:1010C00070BD000030B585B00024009401940294F6
:1010D000039400681449884224D11448816941F47A
:1010E00080418161816901F480410491816941F00D
:1010F0000401816180690E4D00F0040004904FF4FA
:101100000070009002200190032003906946284659
:10111000FFF7E6F82815CDE9000469462846029451
:10112000FFF7DEF805B030BD003801400010024086
:10113000000801402DE9F843044690F84100984624
:1011400016460D46202802D00220BDE8F88385B15E
:101150007EB100206064212084F84100FFF7C6F9C9
:10116000A6848146E684A0682027B0F5805F02D07F
:1011700003E00120E9E7206910B12E4600250EE0CA
:1011800000260CE08021204600F0E6FAA8B9C6B19E
:1011900016F8010B21684860E08C401EE084E08C6A
:1011A0004B464FF00002CDF800800028EAD14FF006
:1011B0004001204600F0D0FA40B184F8417003208D
:1011C000C3E735F8020BC0F30800E3E784F8417089
:1011D0000020BAE7FEE72DE9F04704460D4600205F
:1011E000012113E0236802EBC0071E5C01FA02F341
:1011F0001E406368D640521C13F807C0D2B246EABC
:101200004C06DE55082AEDD3401CC0B2B0EBD50F1A
:101210004FF00002E6D305F007098A460EE0216888
:1012200066680B5C0AFA02F10B4002EBC001D34086
:10123000775C521C43EA47037354D2B29145EED80F
:1012400000263DE00027606807EBC601405CC24312
:10125000120703D030F0F00017D02BE0A2680AFA92
:1012600007F0935D0343DBB29355D4F80CC0034001
:101270001CF8062002EA000843451BD002430CF884
:10128000062008462169884714E0A3680AFA07F097
:101290009A5D82439A55D4F80CC002401CF806307F
:1012A00003EA0008424505D083430CF80630626922
:1012B000084690477F1CFFB2082FC4D3761CF6B2B5
:1012C000B6EBD50FBED3002532E0606805EBC60152
:1012D000405CC243120703D030F0F00014D025E088
:1012E000A2680AFA05F0935D0343DBB29355E76801
:1012F0000340BA5D02EA000C634517D00243BA55B9
:1013000022690846904711E0A3680AFA05F09A5D41
:1013100082439A55E7680240BB5D03EA000C6245D0
:1013200004D08343BB550846616988476D1CEDB204
:10133000A945CAD8BDE8F0872DE9F04385B000245F
:1013400027480094019402940394816941F040017C
:101350008161816901F040010491816941F00401DA
:101360008161816901F004010491816941F0080102
:1013700081618069DFF86C8000F008000490002231
:1013800020214046FFF7ADF8DFF85C9000222021D5
:101390004846FFF7A6F8182001258DE83100694678
:1013A0004046FEF79DFF2027022600970396CDE9D1
:1013B000015469464046FEF793FFCDE90054694663
:1013C0000A480296FEF78CFF00970396CDE9015478
:1013D00069464846FEF784FF05B0BDE8F08300008B
:1013E0000010024000180140000C014000080140BC
:1013F0001CB500240F4800940D4901940160472159
:10140000C0E9011441F28731C16080218161FFF799
:10141000FDFC08B1FEF750FF0094694605480194B1
:10142000FFF7B6FC002801D0FEF746FF1CBD000008
:1014300000140040640600200C4810B50A49016001
:101440004FF4E1314160002181600C22C160C0E9AC
:1014500004128161C161FFF702FE002803D0BDE8DC
:101460001040FEF729BF10BD00380140AC06002037
:101470000B4810B5094901600821017102218171F1
:1014800000218172C1720173FFF7FAF8002803D0BE
:10149000BDE81040FEF710BF10BD0000005C00402A
:1014A000F4060020FEE7FEE770477047704730B54E
:1014B00095B028216846FEF76EFE14210AA8FEF7B3
:1014C0006AFE18210FA8FEF766FE01210804CDE987
:1014D00000100024029402250491CDE907504FF436
:1014E000E01009906846FFF7C1FA08B172B6FEE74E
:1014F0000F20CDE90A054FF48060CDE90C400221B0
:101500000AA80E94FFF7B6F908B172B6FEE71020EC
:1015100014940F900FA8FFF737F9002801D072B686
:10152000FEE715B030BD70470148FFF7F2BC000080
:10153000CC09002070B51A48FFF7EBFC1949088860
:10154000421C0A80032823D3174C002008802068FF
:10155000164D017801F0FC01017008212846FEF7C4
:10156000BBFF00B1012021680A78104308701021E8
:101570002846FEF7B1FF08B1012100E000212068F4
:10158000027842EA4101017002210748FFF723FE79
:10159000BDE87040812314220549002000F006BFF9
:1015A00064060020320000201400002000180140D2
:1015B00000000020F0B50268204C214D214E224F42
:1015C000224B4FF0804CA04209D0984207D0604592
:1015D00005D0A84203D0B04201D0B84204D122F0D5
:1015E000700E4A6842EA0E02A04209D0984207D023
:1015F000604505D0A84203D0B04201D0B84203D123
:1016000022F44075CA682A434D6922F080022A43B9
:1016100002608A68C2620A688262A04201D098426F
:1016200001D109690163012141610169C90703D041
:10163000016921F001010161F0BD0000002C0140B1
:101640000004004000080040000C0040003401404D
:1016500001680C3151E8002F22F4907241E8002318
:10166000002BF5D10168143151E8002F22F001025E
:1016700041E80023002BF5D1016B012909D1016854
:101680000C3151E8002F22F0100241E80023002B1A
:10169000F5D1202180F8421000210163704700003D
:1016A00070B5044600680169E26821F440511143B5
:1016B00001612169A0680843616908432168CA681B
:1016C00041F20C639A430243CA6020684169A269EF
:1016D00021F44071114341611E492068884202D1C2
:1016E000FFF78EF901E0FFF77BF900EBC00101EB9A
:1016F0000012606864218000B2FBF0F3B3FBF1F3E9
:101700006FF018067343B2FBF0F5B2FBF0F605EB91
:101710008305322303EB0515B5FBF1F5B6FBF1F6B6
:1017200005F0F00505EB0615B2FBF0F6B2FBF0F0A4
:10173000B0FBF1F06FF01802504306EB800003EBB2
:101740000010B0FBF1F0216800F00F002844886021
:1017500070BD0000003801402DE9F8439846174657
:101760000D460446089E24E0701C22D0FEF7BEFE03
:10177000A0EB0800B0421AD8CEB12068C168490772
:1017800017D5802D15D0402D13D00168C943090706
:101790000FD401680025406800902046FFF758FFED
:1017A0000820606484F840500120BDE8F8830320DD
:1017B000FBE72068006835EA000004D00020B8424A
:1017C000D2D00020F1E70120F9E700002DE9F04F29
:1017D000E74C85B06068B0F84460DFF89883300467
:1017E0004FF4806948F2800B7DD49AE0B0F84460F1
:1017F00016F00F0578D030F825A05FEA0A4140D5F1
:1018000030F8251040F68F72114041F0800120F829
:1018100025106068B0F85020062101EBC5010A448C
:1018200009EB420105EB4502415C08EBC207009160
:10183000B7F8D820D7F8DC10D037009B00F0D0FCE8
:10184000F86800990844F86038690099401A3861CE
:101850007869009942187A6137F8D009009988426E
:101860007ED8D7F8E00000287AD0616831F82500EA
:101870004BF68F72104080F4405040EA0B0021F884
:1018800025005FEA0A6046D5616831F8250048F610
:101890000F72104040F4004021F825006068B0F855
:1018A0005010022202EBC5020A4409EB4201415AE0
:1018B00005EB4503C1F3090208EBC301CB691344EF
:1018C000CB610B6A9B1A0B624B6A1A444A620B6A21
:1018D000002B7DD00A8A934200D313469FB20A8B15
:1018E000C9693B4601E016E0AAE000F08FFC6068A1
:1018F000B0F85010084400EB0510A0F804746168BB
:1019000031F8250048F6BF72104080F0300040EA00
:101910000B0021F825006068B0F8441009043FF579
:1019200065AF70051AD54FF4C8719248FEF733FCC5
:101930004021C8F80C10002001F082FB6168088883
:101940004BF68F72104080F4405040EA0B00088044
:10195000606830F8441F21F480610180700400E069
:10196000FAE005D5616831F8440F20F48040088022
:10197000B00405D5606830F8441F21F4005101809F
:10198000F00411D5606830F8401F21F00401018097
:10199000606830F8401F21F008010180606830F86D
:1019A000441F21F48051018030053ED5D4F8041045
:1019B000002001AA31F8203022F81030401CC0B2BB
:1019C0000828F7D331F8400F40F00100088000E00C
:1019D000C7E0606830F8401F21F0010101806068B5
:1019E000B0F844104905FBD530F8441F21F480615C
:1019F00001800020636832F8101023F82010401C8A
:101A0000C0B20828F6D3616831F8400F40F00800F2
:101A10000880606830F8441F21F40061018061682B
:101A200031F8400F40F004000880F00505D56068EB
:101A300030F8441F21F48071018005B0BDE8F08FBB
:101A4000F10601883FD448F60F72114041F400417D
:101A500001806068B0F850104FF0000A891C09EB53
:101A60004101405A4746C0F30905D8F81C008021BF
:101A70002844C8F81C00D8F82000401BC8F82000F3
:101A8000D8F8240042195046C8F8242001F094FAEE
:101A9000F88810B13878000605D400231A46194694
:101AA000184601F09BF9387A00283FF434AF002D36
:101AB0007FF431AF387A616840F08000A1F84C00C3
:101AC00087F808A027E70A0517D5018840F68F7226
:101AD000114041F0800101806068B0F85020921DF3
:101AE00009EB4201B8F8D820435C224900F078FBAA
:101AF0002049002001F04CFA0DE70904E2D50188E5
:101B000040F68F72114041F0800101806068B0F8AA
:101B100050104746891D09EB410137F8D82F455C25
:101B20004FF0000A2B46796800F05AFB786851465E
:101B300028447860B868401BB860F86842190020F3
:101B4000FA6001F04FFA002DBCD100231A46194665
:101B5000184601F043F9DEE62946002001F042FA7A
:101B60008FE645F08001002001F026FAD3E6000060
:101B700044000020A80A0020002070470020704781
:101B8000012120F8401F0021018081800182084648
:101B9000704730F8401F21F43F410180002070471A
:101BA0000020FFF713BE00207047FEE70FB4054B7F
:101BB00010B503A9044A029800F0B8F810BC5DF80B
:101BC00014FB0000C9210008F00100200907090EDC
:101BD000002804DB00F1E02080F80014704700F0DA
:101BE0000F0000F1E02080F8141D704702E008C8E3
:101BF000121F08C1002AFAD170477047002001E087
:101C000001C1121F002AFBD1704700002DE9F843E3
:101C10000746C8884FF400780D4640450CD928780F
:101C2000000609D432A0FFF7C1FF36A0FFF7BEFFC0
:101C30003BA0FFF7BBFF39E03B48C7EB072100EBB8
:101C4000810404F11C00A060E988E160E9880026B5
:101C5000216126750090E88868B1287800060AD4CA
:101C6000022084F81E02EB8800213846A26801F0A9
:101C7000B5F8BDE8F88304F110036A4629463846F2
:101C800001F06AFD80B1EA882069904200D20246E4
:101C9000E26042450FD916A0FFF788FF19A0FFF7B1
:101CA00085FF1FA0FFF782FF84F81E62802138465F
:101CB00001F076F8DDE7A0680099884201D000F0D5
:101CC000C3FCE368012613B184F81E6202E003201E
:101CD00084F81E0280213846A26801F0ABF8E9883A
:101CE00020698142C5D98006C3D12675C1E70000AD
:101CF0001B5B33316D5B452F757362645F636F727D
:101D0000655D200052657175657374206275666645
:101D1000657220746F6F20736D616C6C0D0A00002A
:101D20001B5B306D00000000F40100202DE9FF4F27
:101D30008DB00F460546002606E025280BD0DDE9CC
:101D40000F1290476D1C761C28780028F5D111B031
:101D50003046BDE8F08F0024A246A1460122EC499E
:101D600000E0044315F8013F203B02FA03F008426B
:101D7000F7D128782A2810D06FF02F022878A0F108
:101D80003001092914D80AEB8A0102EB410144F021
:101D9000020400EB010A6D1CF0E701CF5FEA000AC4
:101DA00003D544F40054CAF1000A44F002046D1C47
:101DB00028782E2817D115F8010F44F004042A289A
:101DC0000ED06FF02F022878A0F1300109290AD82F
:101DD00009EB890102EB410100EB01096D1CF2E7FF
:101DE00057F8049B6D1C28786C280FD006DC4C2813
:101DF00017D068280DD06A2814D104E0742810D0B8
:101E00007A280FD10DE044F400140AE044F4801461
:101E100001E044F440146978814202D104F5801451
:101E20006D1C6D1C2A786E2A1FD00CDC632A31D001
:101E300004DC002A8BD0582A11D1A3E0642A68D090
:101E4000692A0CD165E0732A2ED004DC6F2A73D086
:101E5000702A04D19BE0752A6FD0782A6ED0104684
:101E6000DDE90F129047761C50E1C4F302500228BE
:101E700006D0032809D0042801CF09D0066045E127
:101E800001CFF117C0E9006140E101CF06803DE1DB
:101E900006703BE117F8040B8DF8000000208DF868
:101EA0000100EB46012003E057F804BB4FF0FF3080
:101EB00061074FF0000102D40DE008F101018846EE
:101EC00049450FDA8045F8DB1BF808100029F4D1EA
:101ED00008E008F1010188468142FADB1BF808108E
:101EE0000029F6D1DDE90F23AAEB0800814621463F
:101EF00000F036F9304400EB080604E0DDE90F128B
:101F00001BF8010B9047B8F10108F7D2214648466B
:101F1000F7E00A21C4F302534FF0000B0891022BA3
:101F200004D001CFC117032B09D00AE0FF1D27F011
:101F30000707F7E8020108E032E01FE020E000B206
:101F4000C117042B01D140B2C117031E71F1000368
:101F500007DA4FF0000CD0EB0C006CEB01012D23E5
:101F600002E0230504D52B238DF82430012303E060
:101F7000E30701D02023F7E7984658E00A2110E054
:101F800010210EE010204FF0000B08900CE0102103
:101F90004FF0000B44F004044FF00809089103E0EF
:101FA00008214FF0000B0891C4F30253022B04D018
:101FB00001CF0021032B06D006E0FF1D27F0070705
:101FC000F7E8020103E080B2042B00D1C0B24FF069
:101FD000000823072BD5702A07D0DDF820C08CF02D
:101FE000100C5CEA0B0C05D00EE040238DF8243079
:101FF000012308E050EA010306D030238DF8243095
:102000008DF8252002239846DDF820C08CF0080CBE
:102010005CEA0B0C0BD150EA010301D1630706D532
:1020200030238DF824304FF00108A9F10109582A16
:1020300004D038A20B9208AA0A920BE03AA2F9E760
:102040005B46089AFEF7B9F80B9B9B5C0A9A521EF6
:102050000A92137050EA0102F2D10A98ADEB000027
:1020600000F1200B600702D524F4803401E04FF02A
:102070000109D94502DDA9EB0B0000E0002000EBCF
:102080000B0141440890AAEB010AE00306D4DDE904
:102090000F232146504600F063F806444FF0000934
:1020A00008E009A911F80900DDE90F12904709F1CC
:1020B0000109761CC145F4DBE0030CD5DDE90F23F3
:1020C0002146504600F04CF8064404E0DDE90F12CA
:1020D00030209047761C0899481E08900029F5DCAE
:1020E00008E00A980A990078491C0A91DDE90F1264
:1020F0009047761CBBF10001ABF1010BF1DC2146EE
:102100005046DDE90F2300F019F806446D1C1BE66C
:1021100009280100303132333435363738396162BD
:102120006364656600000000303132333435363781
:102130003839414243444546000000002DE9F04152
:10214000044600251E461746880404D405E0394697
:102150002020B0476D1C641EF9D52846BDE8F081EB
:102160002DE9F041044600251E469046C80301D5DE
:10217000302700E02027880404D505E04146384692
:10218000B0476D1C641EF9D52846BDE8F0810000FB
:1021900000487047C000002000487047943C000889
:1021A00000487047A63C000801700A0A42700A0CF9
:1021B0008270090EC170704701700A0A42700A0CE1
:1021C0008270090EC170704713B54FF0FF330122C2
:1021D00069460248FEF7AEFF00981CBDAC06002021
:1021E00010B500EB42005C0800F5806009D000BF2C
:1021F00030F8042B01F8012B120A01F8012B641EA0
:10220000F6D1DA0701D00088087010BD10B55B1C4C
:1022100000EB42005B0800F5806009D011F8012B4B
:1022200011F8014B42EA042220F8042B5B1EF5D181
:1022300010BD2DE9FC4115464A780F7901261C4650
:102240000C2A35D2DFE802F034060F14343434346B
:10225000341B262DCDE9005449880B0ACAB23946F1
:1022600001F080F821E08A78394601F077F802E041
:10227000394601F075F829680870266015E0236872
:102280002A68CDE9002349880B0ACAB2394601F011
:1022900095F80AE049880B0ACAB2394601F08CF871
:1022A00003E08A78394601F088F80020BDE8FC8117
:1022B0004FF0FF30FAE7000070B50C46054637498D
:1022C00000F0E4FA364800F055FF0146284600F0D9
:1022D00051FA33494323334A1C31284601F04AF866
:1022E0000146284600F046FA2E4A2D492F23443253
:1022F0003831284601F03EF80146284600F03AFA07
:1023000028492846EC3900F009FA26492846E439DC
:1023100000F004FA23492846DC3900F0FFF921498E
:102320002846D43900F0FAF91E492846CC3900F085
:10233000F5F91C492846C43900F0F0F91949284636
:10234000BC3900F0EBF917492846B43900F0E6F93A
:1023500014492846AC3900F0E1F912492846A4395D
:1023600000F0DCF90F4928469C3900F0D7F90D49F7
:102370002846943900F0D2F90A4928468C3900F0F1
:10238000CDF908492846843900F0C8F92146284685
:10239000BDE87040044A01F013B80000B03C0008EA
:1023A000540A00203C010020113000082DE9F041C2
:1023B0001E4614460D46074600F0CEF8002813D0FE
:1023C00000200A4902E02A5C0A54401CA042FADBC1
:1023D000074D012068702346044A3146384600F014
:1023E00029FD68780128FCD0BDE8F081F0050020C7
:1023F0004C0000200549C0EB002001EB800090F864
:102400001C02002800D0012070470000F4010020C9
:102410000C494B780A7A40B1012805D103F0FD0040
:10242000487002F0FD000872704703F0FE0048702B
:1024300002F0FE0008720448C17821F00401C17066
:102440007047000030060020000000200C494B7847
:102450000A7A40B1012805D143F00200487042F0E9
:1024600002000872704743F00100487042F001001A
:1024700008720448C17841F00401C170704700003F
:102480003006002000000020FEF73EF8FFF70FF8AE
:10249000FEF752FFFEF7D0FFFEF7EAFFFEF7A8FFB8
:1024A000002001F009F86420FDF708FF012001F089
:1024B00003F809490020FFF7FFFE00234FF4806274
:1024C000194606484FF0FF301420FDF7F7FE044888
:1024D000FEF7E8FCFEE70000005C0040F001002091
:1024E00064060020042901D300207047014850F8F9
:1024F000210070472C01002010B500F01FF80E4895
:1025000001214268A2F8401042680021A2F8401060
:102510004268A2F844104268A2F8501042684FF492
:102520003D41A2F84010406830F8581F41F4004186
:102530000180002010BD000044000020044901EB90
:10254000C0000449406808600846FEF7F7B800007C
:1025500044000020EC0100200549C0EB002001EB05
:10256000800090F81C02002800D001207047000075
:10257000F40100202DE9F041074605468007164684
:10258000B0EB817F05D02CE011F8010B05F8010BB1
:10259000761EA8070FD0002EF6D10CE001C9103E20
:1025A00001C501C901C551F8080B45F8080B51F8E0
:1025B000040C45F8040C102EF0D202E001C9361FBD
:1025C00001C5042EFAD203E011F8010B05F8010B46
:1025D000761EF9D234E000BF11F8010B05F8010BAB
:1025E000761E1EB18807F7D10C4617E00C4625E091
:1025F00028462168FFF7D8FD2D1D28466168FFF7A2
:10260000D3FD2D1D2846A168FFF7CEFD2D1DE168E5
:1026100028461034FFF7C8FD2D1D103E102EE7D2BE
:1026200005E002CC2846FFF7BFFD2D1D361F042E06
:10263000F7D203E014F8010B05F8010B761EF9D26E
:102640003846BDE8F08100002DE9F0410746054617
:1026500080071646B0EB817F05D02CE011F8010B06
:1026600005F8010B761EA8070FD0002EF6D10CE05E
:1026700001C9103E01C501C901C551F8080B45F853
:10268000080B51F8040C45F8040C102EF0D202E0AF
:1026900001C9361F01C5042EFAD203E011F8010B5F
:1026A00005F8010B761EF9D234E000BF11F8010BDA
:1026B00005F8010B761E1EB18807F7D10C4617E00E
:1026C0000C4625E028462168FFF776FD2D1D28469B
:1026D0006168FFF771FD2D1D2846A168FFF76CFDAD
:1026E0002D1DE16828461034FFF766FD2D1D103EB4
:1026F000102EE7D205E002CC2846FFF75DFD2D1D28
:10270000361F042EF7D203E014F8010B05F8010B75
:10271000761EF9D23846BDE8F081000070B50A781F
:10272000134E02F07F0303EB4304C0EB002006EBE3
:102730008003150603EB84000CD580F878224868E6
:10274000097801F07F0101EB410103EB8101C1F840
:10275000800270BD80F838234868097801F07F0155
:1027600001EB410103EB8101C1F8400370BD0000A2
:10277000F4010020C0EB0022084800EB820090F832
:1027800074220A7690F8742200EB8202C2F82412B6
:1027900090F87412491C80F874127047F4010020FC
:1027A0002DE9F041884607461249C0EB072015463F
:1027B000002401EB800616E006EB8400D0F824022A
:1027C0005DB170B1C36863B1A978007E814208D160
:1027D0002A4641463846984703E010B1C368002BAB
:1027E000F6D1641CE4B296F87402A042E4D8BDE8C5
:1027F000F0810000F40100202DE9F0410C78224E18
:1028000004F00304C0EB002506EB8505012C02D083
:10281000022C1FD033E0002495F8747217E000BF3B
:1028200005EB8406D6F824627EB1D6F800C0BCF170
:10283000000F0AD096F818C091F804E0F44504D1CE
:102840003468A446BDE8F0416047641CE4B2A74286
:10285000E6D814E0002495F874720EE005EB8406C7
:10286000D6F824623EB1D6F804C0BCF1000F02D005
:10287000BDE8F0416047641CE4B2A742EED84FF0D7
:10288000FF30BDE8F0810000F401002070B50D4676
:10289000C0EB00210B4800EB81044FF47F71204610
:1028A000FDF779FC0020A56184F87402802184F88A
:1028B00078120549C4F8801284F838030348C4F834
:1028C000400370BDF4010020B52E0008192F000848
:1028D00030B51F4A21F080000B06516848F68F750D
:1028E00048F2800431F8203012D45B0407D531F867
:1028F00020302B404CF280052B4321F820305268C9
:1029000032F820104BF68F73194081F4405119E0D2
:102910005B0607D531F820302B4048F2C0052B4329
:1029200021F820300B4B00EB400103EBC101897C07
:1029300001290AD0526832F8201048F6BF731940B6
:1029400081F02001214322F82010002030BD00003A
:1029500044000020A80A002030B5184A21F0800069
:102960000B06516848F68F7548F2800431F8203024
:102970000FD45B0407D531F820302B404CF2800592
:102980002B4321F82030526832F820104BF68F7319
:102990000EE05B0607D531F820302B4048F2C00529
:1029A0002B4321F82030526832F8201048F6BF73CC
:1029B0001940214322F82010002030BD440000209F
:1029C00030B521F080000D060B494FF000034FF0A9
:1029D0000104496831F8200003D400F44050C004D9
:1029E00002E000F03000C006002801DA147000E0B8
:1029F0001370002030BD0000440000202DE9F04796
:102A000088780C4620F08000082816D3ABA0FFF78A
:102A1000CDF88C23ADA2B7A1BEA0FFF7C7F8C4A024
:102A2000FFF7C4F8A5A0FFF7C1F8A178C2A0FFF78F
:102A3000BDF8BFA0FFF7BAF8FEE7E17801F00302A6
:102A4000012A0CD011F003014FF400751DD00229AA
:102A50001DD003291DD04FF0FF30BDE8F08797A0AF
:102A6000FFF7A4F88D2399A2B949AAA0FFF79EF811
:102A7000AFA0FFF79BF891A0FFF798F8B5A0FFF77C
:102A800095F8ABA0FFF792F8FEE72A4603E0002294
:102A900001E04FF4C062B8494F6837F8206048F64B
:102AA0008F131E40164348F280031E4327F8206010
:102AB0004E6836F8202048F68F773A4002431A4392
:102AC00026F82020A278DFF8B4821206A2884FF000
:102AD000010C4FF6FE7A7DD4C2F30A0300EB4002EC
:102AE00008EBC202A2F8D030E67806F0030682F8BE
:102AF000D26082F8D4C0B2F8D660B34237D9D8F8E1
:102B00000C603344AB4216D96CA0FFF74FF8AF23EB
:102B10006EA29B497FA0FFF749F885A0FFF746F812
:102B200066A0FFF743F8A17896A0FFF73FF880A0D2
:102B3000FFF73CF8FEE7A388C3F30A0322F8D63F69
:102B4000D8F80C3053804A68B2F850301A44D8F89C
:102B50000C3002EB001203EA0A03A2F80834D8F89A
:102B60000C20A388C3F30A031A44C8F80C204A684F
:102B7000B2F850301A44A38802EB001202F20C4261
:102B80005C050DD0C3F30A043E2C11D8C3F34904ED
:102B9000DB0700D0641C4FF6FF7303EA842310E0C8
:102BA000138823F4F8431380138843F4004308E0A8
:102BB000C3F34514DB0600D1641E4FF4004343EA1F
:102BC000842313804A6832F82010490474D532F8FF
:102BD000201000E006E039404CF28003194322F84F
:102BE000201069E0C2F30A0600EB400208EBC202C3
:102BF000C146168294F8038008F0030882F8128018
:102C000082F814C0B2F816C0664537D9D9F80C80DE
:102C1000CC464644AE4216D928A0FEF7C7FFC023D3
:102C20002AA25E493BA0FEF7C1FF41A0FEF7BEFF0E
:102C300022A0FEF7BBFFA17852A0FEF7B7FF3CA091
:102C4000FEF7B4FFFEE7A588C5F30A05D582DCF8D8
:102C50000C5015834A68B2F850502A44DCF80C50E6
:102C600002EB001205EA0A05A2F80054DCF80C2079
:102C7000A588C5F30A052A44CCF80C204D6835F820
:102C80002020520607D535F8202048F2C0063A40E9
:102C9000324325F82020E27802F00304012C4C682E
:102CA00048F6BF7234F8201001EA020101D081F029
:102CB0002001194324F820100020CEE61B5B33319D
:102CC0006D5B452F5553425D200000002E2E5C5554
:102CD0005345525C4368657272795553425C667322
:102CE0006465765C7573625F64635F667364657662
:102CF0002E63000065705F696478203C20434F4E6E
:102D00004649475F5553424445565F45505F4E55CF
:102D10004D000000415353455254204641494C2038
:102D20005B25735D20402025733A25640D0A000061
:102D30001B5B306D000000004570206164647220F0
:102D400025303278206F766572666C6F770D0A00D9
:102D5000643E000869736F20656E64706F696E74FD
:102D6000206E6F7420737570706F727420696E209E
:102D700066736465760D0A0044000020A80A0020EE
:102D8000083E0008457020706D61202530327820A3
:102D90006F766572666C6F770D0A0000AC3D0008B7
:102DA00021F080000A060C4910B5496848F28003FA
:102DB00031F8202005D44BF68F74224082F48052E3
:102DC00004E048F6BF74224082F010021A4321F852
:102DD0002020002010BD00004400002010B521F08C
:102DE00080011AB913B14FF0FF3010BD0F4801EB4D
:102DF000410400EBC40090F8D4409CB1E0E93723D3
:102E0000002282600A48426832F821004BF68F7334
:102E1000184080F4405048F28003184322F8210003
:102E2000002010BD6FF0010010BD0000A80A0020B6
:102E3000440000202DE9F041170021F0800403D167
:102E400013B1501EBDE8F081184804EB440100EBBB
:102E5000C100017D31B30021C761C0E90831018A99
:102E6000994200D80B46124E1D46028B9BB2394642
:102E70007068FFF7CBF97068B0F85010084400EBA9
:102E80000410A0F80454716831F8240048F6BF72A9
:102E9000104080F0300048F28002104321F82400F6
:102EA0000020CFE76FF00100CCE70000A80A002067
:102EB000440000201749C0EB002330B401EB83012C
:102EC0008B689C188C60CB689B1ACB6001D0224623
:102ED00014E00B7D0022012B0DD0CB8893B10B7831
:102EE0001B060FD5042281F81E22002330BC1A468F
:102EF0001946FFF773BF0A7500231A4630BC8021BC
:102F0000FFF798BF91F81E02032801D181F81E2215
:102F100030BC7047F401002070B50646C0EB0621B6
:102F20001A48002500EB81010C465AB3A0681044F2
:102F3000A060E3689B1AE36006D002463046BDE815
:102F400070400021FFF74ABF04F11C00A06004F1AB
:102F5000100304F10802304600F0FEFB50B10320DC
:102F600084F81E023046BDE8704000231A468021D6
:102F7000FFF760BF84F81E523046BDE870408021E4
:102F8000FFF70EBF81F81E5270BD0000F401002053
:102F900070B50546074AC0EB052002EB8004082205
:102FA0002046FFF751FB21462846BDE87040FEF75A
:102FB0002DBE0000F401002030B4094BC0EB00240A
:102FC00003EB840301F07F0404EB440403EB84036C
:102FD000D3F88032002B01D030BC184730BC70478A
:102FE000F401002030B4094BC0EB002403EB840350
:102FF00001F07F0404EB440403EB8403D3F8403373
:10300000002B01D030BC184730BC7047F4010020C1
:1030100010B508290FD2DFE801F00E0E0E0E0E0ECD
:103020000E044023044A0221FFF7D8FE0348002182
:1030300041700121017010BD140A00204C000020D5
:103040007CB50646002100F0A9FA2748C6EB062108
:1030500000EB8105002485F81D4285F81C4285F8A7
:103060001E4285F82342A9692046096829B388478A
:10307000C079ADF8040007208DF8000005208DF818
:1030800001008DF8034080208DF802008DF8064085
:1030900069463046FFF7B2FC8DF80240694630467B
:1030A000FFF7ACFC002201213046FFF779FBD5F891
:1030B000F8230121304690477CBD0CA0FEF776FD39
:1030C0004FF479730EA2174917A0FEF76FFD1DA0EC
:1030D000FEF76CFD05A0FEF769FD1CA0FEF766FD7E
:1030E00018A0FEF763FDFEE7F40100201B5B3331FF
:1030F0006D5B452F757362645F636F72655D200061
:103100002E2E5C555345525C436865727279555357
:10311000425C636F72655C757362645F636F726556
:103120002E630000443D000841535345525420464D
:1031300041494C205B25735D20402025733A25646E
:103140000D0A00001B5B306D0000000064657669AD
:1031500063655F64657363726970746F725F6361E6
:103160006C6C6261636B206973204E554C4C0D0A88
:103170000D0A00000021034A0160C0E90112C1608C
:1031800070470000413C00082DE9F04716460A0A46
:10319000CFB2994657490125C0EB0023904601EB79
:1031A0008304062A51D007DC012A0BD0022A16D04C
:1031B000B8F1030F7BD127E0072A7AD0B8F10F0FBF
:1031C00075D17FE000F0C8F884F82302A16909688E
:1031D00000296CD0884700287ED0017877E0A0696C
:1031E0004168002978D094F823028847002873D0DA
:1031F000C2794188C2F3801284F81F22C279C2F3D7
:10320000401284F8202262E0A069EE2F20D00269EB
:10321000002A61D094F823023946904704005BD01D
:103220000325CFB1FCF7C2FF82B2022303EB4200B9
:1032300081B2B1F5007F1DD92FA0FEF7B7FC33A0F6
:10324000FEF7B4FC37A0FEF7B1FC0020BDE8F08724
:10325000406960B30068C0E73168042008703168D5
:103260004D7032682178917032686178D170C9F8F8
:1032700000001AE03068AA460170306845700020EE
:1032800007460EE0D6F800C003EB4008255C0CF8BA
:1032900008500AEB4005D6F800C0401C80B20CF87C
:1032A00005709042EED3C9F800100120CEE713E07C
:1032B000FFE7A069C16879B194F82302884758B143
:1032C000418804E0A069016A31B1D1E900013060B0
:1032D000C9F800102846B9E7002507A0FEF766FCEC
:1032E0003A46414611A0FEF761FC0EA0FEF75EFCD7
:1032F000F0E70000F40100201B5B33316D5B452FCC
:10330000757362645F636F72655D200073747269C8
:103310006E672073697A65206F766572666C6F7769
:103320000D0A00001B5B306D0000000064657363D4
:10333000726970746F72203C747970653A25782CCC
:10334000696E6465783A25783E206E6F7420666FEA
:10335000756E64210D0A000002207047002070473E
:1033600000207047DDE90010002209680A70012181
:10337000016070470846054901600021416000F185
:103380000C0C81608CE80E007047000033220008AE
:1033900001490020487070474C000020044B002277
:1033A0005A70022903D14023024AFFF717BD704724
:1033B0004C000020140A002070477047704700003E
:1033C00070B5002816D016A0FEF7F0FB40F242536D
:1033D00018A221A128A0FEF7E9FB2EA0FEF7E6FB2C
:1033E0000FA0FEF7E3FB2DA0FEF7E0FB29A0FEF700
:1033F000DDFBFEE72E482F4C00254160C4F8F82382
:103400002A460B212846FFF7CBF9D4F8F8230B21E5
:10341000284690472846BDE87040FFF76DB8000089
:103420001B5B33316D5B452F757362645F636F7235
:10343000655D20002E2E5C555345525C43686572D5
:1034400072795553425C636F72655C757362645F39
:10345000636F72652E6300006275736964203C209F
:10346000434F4E4649475F5553424445565F4D4191
:10347000585F425553000000415353455254204673
:1034800041494C205B25735D20402025733A25641B
:103490000D0A00001B5B306D000000006275732098
:1034A0006F766572666C6F770D0A0D0A000000007A
:1034B00044000020F40100202DE9F041224986B0AB
:1034C0008A6942F004028A618969012401F00401D9
:1034D00004911E490326CF148D140028DFF8708054
:1034E000088816D020F0020008800097CDE9024637
:1034F0000227694640460197FCF7F2FECDE90246F5
:10350000CDE9005769464046FCF7EAFE06B0BDE843
:10351000F08140F002000880CDE90074CDE9024658
:1035200069464046FCF7DCFE694640460095FCF7DC
:10353000D7FE002239464046FCF7D3FF0022294639
:103540004046FCF7CEFFE1E700100240405C00403F
:10355000000801401CB5044608A0FEF727FBE188DF
:10356000A088CDE900016388627821780848FEF7D9
:103570001DFBBDE81C4007A0FEF718BB1B5B3331E9
:103580006D5B452F757362645F636F72655D2000CC
:10359000E43C00081B5B306D0000000021B9044AC8
:1035A00080205268A2F84C00024801720020704747
:1035B00044000020A80A00202DE9F74F8B468246E0
:1035C000C0EB0A211C484FF0000900EB81014FF0CD
:1035D000FF0891F82302896947464E4649684D46DF
:1035E0008847044622E06078022804D004280AD0E4
:1035F000052815D10AE067795F4511D14FF001091F
:10360000002566880CE094F8038009E05F4507D147
:103610000299884504D12146504600F00FF88146B2
:10362000207805440444B54200D316B92078002818
:10363000D9D14846BDE8FE8FF401002070B58A78E4
:103640008B881506184EC3F30A0402F07F02C0EB04
:10365000002302EB420206EB830303EB82020ED54A
:10366000A2F87A428C788A8804F07F0404EB440440
:1036700003EB8403C2F3C12283F879220DE0A2F8A0
:103680003A438C788A8804F07F0404EB440403EB0B
:103690008403C2F3C12283F83923FFF7AFF908B1DD
:1036A000002070BD012070BDF40100202DE9F74F0E
:1036B0008346C0EB0B2127484FF0000900EB810146
:1036C0004FF0FF0891F8230289694746CA464968C6
:1036D0004E464D468847044631E06078022804D0C3
:1036E000042805D0052821D10DE0002566881DE0BD
:1036F000A778019894F80380874217D102998845EA
:1037000014D1A14612E0019887420FD102982146B8
:1037100028B180450AD15846FFF790FF05E058468A
:10372000A178FFF719F940B10020824620780544BE
:103730000444B54203D316B104E00120F5E7207834
:103740000028CAD14A4608215846FFF729F85046B2
:10375000BDE8FE8FF401002070B50D780C4615F021
:10376000600104D0202921D0402930D131E0214608
:1037700015F0030504D0012D05D0022D0AD105E076
:1037800000F068F804E000F057F901E000F0DAF822
:10379000002828D16078062803D16088B0F5C06F72
:1037A00015D012A0FEF702FA15A008E02146FFF797
:1037B00023F8002817DA0DA0FEF7F8F917A0FEF796
:1037C000F5F91CA0FEF7F2F92046FFF7C3FE002032
:1037D00070BD214600F0C4F9002804DA03A0FEF70A
:1037E000E5F916A0EBE7012070BD00001B5B33314B
:1037F0006D5B452F757362645F636F72655D20005A
:103800007374616E6461726420726571756573743E
:10381000206572726F720D0A00000000636C6173A4
:10382000732072657175657374206572726F720DA5
:103830000A0000001B5B306D0000000076656E64BE
:103840006F722072657175657374206572726F7224
:103850000D0A00002DE9F0471E460B4607460125DC
:103860005B78374C4988C7EB072C28464FF0000897
:1038700004EB8C040A2B3DD2DFE803F0051B3C1B54
:103880003C2F363C40451368414683F8008094F84D
:103890001F320BB11368187094F8210220B1106820
:1038A000037843F002030370106841700220306017
:1038B00021E0012908D1032B09D084F82182D4F812
:1038C000F8230A2138469047C6F8008013E084F8B0
:1038D00021020921D4F8F823F4E7C9B284F81D12B3
:1038E0003846FFF75BFEEFE733463846FFF74CFC00
:1038F000054600E000252846BDE8F087126894F8E8
:103900001C121170D3E7C8B25FEA000912D0014659
:1039100000223846FFF750FE78B184F81C9284F8F4
:103920002282002207213846FEF73AFF0721D4F809
:10393000F823C7E784F81C82C6E70025C4E7000027
:10394000F40100202DE9F84F1E4617460D46824629
:1039500091F804900124FEF74DFD002809D0687805
:103960004FF0000838B101281AD003282BD00024CA
:103970002046BDE8F88F6A4649465046FFF720F8D2
:103980009DF8000018B139680120087002E039681C
:1039900081F800803968022081F801803060E7E713
:1039A000688870B912A0FEF701F9494615A0FEF724
:1039B000FDF81AA0FEF7FAF849465046FEF788FFD0
:1039C000D6E7002410E068880028FAD108A0FEF7A6
:1039D000EDF8494613A0FEF7E9F810A0FEF7E6F867
:1039E00049465046FFF7DCF9C6F80080C0E7000002
:1039F0001B5B33316D5B452F757362645F636F7260
:103A0000655D200065703A2530327820636C656111
:103A1000722068616C740D0A000000001B5B306D41
:103A20000000000065703A253032782073657420FC
:103A300068616C740D0A00002DE9FF4F488883B05F
:103A4000000A0290002091F804B081460090FF2007
:103A5000019003980D46C0EB002140481F4600EB43
:103A600081069046B1694FF0010A96F82302496831
:103A7000884704460398FEF7BDFC00284CD06878C0
:103A80000C2850D2DFE800F0064F4F4F4F4F0F4F3A
:103A90004F4F525DD8F8001000200870D8F8001081
:103AA000487002204AE0029821281FD0222821D005
:103AB00039E06178022904D0042907D021290FD1E7
:103AC00007E061884FF00009009109E0A1780191B9
:103AD00006E00199594503D1C8F80040207819E063
:103AE000009981440444894500D3E1B92078002835
:103AF000DFD118E0002096F8742212E006EB800176
:103B0000D1F8241259B10C7E5C4508D10A69C8F875
:103B1000002048693860012007B0BDE8F08F401CE4
:103B2000C0B28242EAD84FF0000A08E006EB0B0070
:103B300090F86412D8F800000170012038605046F7
:103B4000EAE706EB0B01A87881F86402AA782979E4
:103B50000398FFF7ABFD0020F0E70000F401002020
:103B60002DE9F0470C468246C0EB0A2133481E4639
:103B700000EB81079046B9694FF0FF394869E8B119
:103B80006378027993422CD1A188042902D00529B7
:103B900051D101E0806803E0C068618850F82100DD
:103BA00001784278C37801EB02218278C8F80000DE
:103BB000120402EB0362114431600FE0886980B1A6
:103BC000627883799A420CD1A188072933D10168A0
:103BD000C8F80010B8698069808830600020BDE8AE
:103BE000F087C86968B161780278914209D1A188EB
:103BF000022920D1D0F80510D0F80120C8F8002003
:103C0000DAE7002513E000BF07EB8500D0F82402B7
:103C100058B1D0F808C0BCF1000F06D03346424678
:103C200021465046E0470028D9D06D1CEDB297F8E8
:103C30007402A842E8D84846D1E70000F401002009
:103C400070B586B01D46164614216846FCF7A3FAE7
:103C500014248DF80140224669463068FEF78AFC3C
:103C60002C6006B0002070BD0102020304050607A7
:103C700008090A0B0C0D0E0F1010000000000000C8
:103C80000000010203040607080900000000010209
:103C90000304090412010002000000403635401000
:103CA0001401010203010A060002000000400000A6
:103CB0009921000891210008A121000800000000BE
:103CC000E5240008D43C00080000000000000000CB
:103CD00000000000D7010020B0000000AF0100206C
:103CE0000000000053657475703A20626D52657172
:103CF0007565737454797065203078253032782C6E
:103D00002062526571756573742030782530327881
:103D10002C207756616C7565203078253034782CEE
:103D20002077496E646578203078253034782C20EF
:103D3000774C656E677468203078253034780D0ACA
:103D400000000000675F757362645F636F72655B9C
:103D500062757369645D2E64657363726970746FF4
:103D600072732D3E6465766963655F646573637223
:103D70006970746F725F63616C6C6261636B202148
:103D80003D204E554C4C000056312E3000000000B6
:103D90004261694A69616E67000000004261694AD8
:103DA00069616E672078626F7800000028675F663F
:103DB000736465765F7564632E706D615F6F6666B0
:103DC000736574202B20675F66736465765F756426
:103DD000632E696E5F65705B65705F6964785D2EE8
:103DE00065705F6D707329203C3D20434F4E4649FE
:103DF000475F5553425F46534445565F52414D5FBE
:103E000053495A450000000028675F667364657671
:103E10005F7564632E706D615F6F66667365742095
:103E20002B20675F66736465765F7564632E6F75BC
:103E3000745F65705B65705F6964785D2E65705F47
:103E40006D707329203C3D20434F4E4649475F55D6
:103E500053425F46534445565F52414D5F53495A62
:103E6000450000005553425F4745545F454E44505E
:103E70004F494E545F545950452865702D3E626D30
:103E8000417474726962757465732920213D2055EF
:103E900053425F454E44504F494E545F545950452C
:103EA0005F49534F4348524F4E4F55530000000057
:103EB000D03E000800000020300600005E0200082E
:103EC0001C40000830060020080A0000FC1B000807
:103ED00011021214222C142058061B202E081A300E
:103EE000041311241B084D048132018210D3127A6D
:103EF00032811391335B0882085A83085A84085A26
:103F000085085A86085A870829541A9D085A0208B3
:103F10005A03085A04085A05085A06085A0708148A
:103F20000902691303011CC0A0092A1502FF5D01E3
:103F3000100A10211001012481140314031302122A
:103F4000031607058103201D01070502071508094F
:103F50000401150203010115092111011C0122436D
:103F600020148203081D0207050107150509040234
:103F70001A015169201A2F202A83203113923C14F0
:103F800008903D1B089C041A8804100E05010906C0
:103F9000A101050719E029E71518092501950875FC
:103FA000018102103C042965102A6210380D950128
:103FB00075068103050819012905162D057501915E
:103FC0001615039103C019441D05A101A1791920FB
:103FD0003A10203A1046100B010930093109320914
:103FE00033151326FF400A750895048102C0C028C6
:103FF00013010419A16100081001585553423130D2
:104000001412034D12531246125412311A30020286
:0C401000FFB001FF01FF01FF014C0000A8
:0400000508000131BD
:00000001FF
