:020000040800F2
:10000000481200200D020008FB1C0008D11900084E
:10001000F91C000813030008CF3A00080000000094
:10002000000000000000000000000000A520000803
:100030002103000800000000A3200008A7200008FA
:1000400027020008270200082702000827020008EC
:1000500027020008270200082702000827020008DC
:1000600027020008270200082702000827020008CC
:1000700027020008270200082702000827020008BC
:1000800027020008270200082702000827020008AC
:10009000593A000827020008270200082702000832
:1000A000270200082702000827020008270200088C
:1000B000270200082702000827020008270200087C
:1000C000270200082702000827020008270200086C
:1000D000270200082702000827020008270200085C
:1000E000270200082702000827020008270200084C
:1000F000270200082702000827020008270200083C
:10010000270200082702000827020008270200082B
:1001100027020008270200082521000831210008D5
:10012000270200082702000827020008270200080B
:1001300000F002F800F05AF80AA090E8000C82449F
:100140008344AAF10107DA4501D100F04FF8AFF27C
:10015000090EBAE80F0013F0010F18BFFB1A43F0A5
:1001600001031847043B0000243B00000A444FF001
:10017000000C10F8013B13F0070408BF10F8014B06
:100180001D1108BF10F8015B641E05D010F8016B4B
:10019000641E01F8016BF9D113F0080F1EBF10F8AF
:1001A000014BAD1C0C1B09D16D1E58BF01F801CBD2
:1001B000FAD505E014F8016B01F8016B6D1EF9D555
:1001C0009142D6D37047000000230024002500266A
:1001D000103A28BF78C1FBD8520728BF30C148BFAA
:1001E0000B6070471FB51FBD10B510BD00F058F86B
:1001F0001146FFF7F7FF03F0B3FC00F076F803B405
:10020000FFF7F2FF03BC00F07DF8000009488047CB
:1002100009480047FEE7FEE7FEE7FEE7FEE7FEE7E8
:10022000FEE7FEE7FEE7FEE704480549054A064B00
:10023000704700002121000831010008480C00200F
:1002400048120020480E0020480E00204FF0000207
:1002500000B5134694469646203922BFA0E80C50BC
:10026000A0E80C50B1F12001BFF4F7AF090728BF97
:10027000A0E80C5048BF0CC05DF804EB890028BF13
:1002800040F8042B08BF704748BF20F8022B11F03C
:10029000804F18BF00F8012B7047704770477047B8
:1002A000754600F02BF8AE4605006946534620F02F
:1002B0000700854618B020B5FFF7B6FFBDE820401F
:1002C0004FF000064FF000074FF000084FF0000B12
:1002D00021F00701AC46ACE8C009ACE8C009ACE8C5
:1002E000C009ACE8C0098D46704710B50446AFF3AD
:1002F00000802046BDE81040FFF781BF00487047EE
:10030000E40B002001491820ABBEFEE726000200E6
:100310007047FEE7002070470020704700207047BC
:10032000704772B6FEE7000070B5044600F014F99D
:100330000546601C02D004480078044400F00CF923
:10034000401BA042FAD370BD9C0100202DE9F84F5C
:10035000DFF8C8910024A9F1040B23460F2709F107
:10036000040AABF1040ED1E00125A54006EA05021E
:10037000AA4276D1DFF8A8C14E68A6EB0C08664504
:100380002BD00DDC032E34D005DC36B3012E19D072
:10039000022E2FD11BE0112E16D0122E2AD119E0D9
:1003A000B8F5881F19D006DCB8F5803F15D0B8F530
:1003B000801F1FD111E0B8F5001F0ED0B8F5041F43
:1003C00018D10AE0CB6815E0CB681B1D12E0CB68A2
:1003D00008330FE0CB680C330CE08B682BB1012B9A
:1003E0004FF0080303D0456104E0042302E00561F7
:1003F00000E00023FF2A01D8064601E000F10406D0
:100400004FEA840501D9A5F12005D6F8008007FA46
:1004100005FC28EA0C0803FA05F548EA0508C6F8C1
:1004200000804D68ED0070D53E4DAE6946F0010686
:10043000AE61AD6924F0030605F0010500953A4D63
:1004400006EB050CDCF80850A607360F07FA06F88D
:1004500025EA0805DFF8D480404503D14FF00008B5
:1004600025E052E0DFF8C880404502D14FF0010896
:100470001DE0DFF8C080404502D14FF0020816E0D1
:10048000DFF8B480404502D14FF003080FE0DFF8F9
:10049000AC80404502D14FF0040808E0DFF8A080AE
:1004A000404502D14FF0050801E04FF0060808FA78
:1004B00006F848EA0508CCF808804D68D9F80060CD
:1004C000ED024D4601D5164300E096432E604D687F
:1004D000DAF80060AD02554601D5164300E09643B8
:1004E0002E604D68DBF80060AD035D4601D5164314
:1004F00000E096432E604D68DEF80060ED0375461F
:1005000001D5164300E096432E60641C0A68164627
:10051000E2407FF429AFBDE8F88F000008040140F5
:1005200000001110001002400000014000080140CE
:10053000000C01400010014000140140001801406F
:10054000001C01408068084000D0012070470AB1BB
:10055000016170470904FBE70148806870470000AB
:100560009C01002002488168027811448160704734
:100570009C010020074810B5016841F0100101609E
:10058000032000F0A1F80F2000F006F800F050F86A
:10059000002010BD0020024030B505461F4887B03E
:1005A000C16941F01001C161C06906A900F01000E5
:1005B000009001A800F042FE0498B0B100F05EFE89
:1005C00040001749174AB0FBF1F11748491E026075
:1005D000416040F2E7320021C0E90321816081617E
:1005E00001F062F8040003D015E000F047FEE8E7F0
:1005F0000D4801F0A5F804000DD1362000F036F8C2
:10060000102D07D200222946362000F03DF8074879
:10061000056000E0012407B0204630BD0010024014
:1006200040420F0000100040A8030020A00100205D
:100630000C4808B5816941F001018161816901F0CF
:1006400001010091C16941F08051C161C06900F0B0
:10065000805000900448416821F0E06141F0007151
:10066000416008BD0010024000000140002809DB85
:1006700000F01F02012191404009800000F1E020BC
:10068000C0F8001170470000F0B40E4B1B680C4618
:10069000C3F30223C3F10705042D00D90425191D56
:1006A000072901D2002300E0DB1E012606FA05F12E
:1006B000491E214099409E40761E16403143F0BCB1
:1006C00003F006BA0CED00E0064900F007020868E6
:1006D0004FF6FF03184040EA0220034A1043086027
:1006E000704700000CED00E00000FA0510B50C06A4
:1006F00007D501F0070101EB810100EBC1001030CB
:1007000005E001EB810100EBC10000F5A87099B292
:1007100032B1012202730181190C4181002010BD08
:1007200000220273C180F9E7704701EB810200EB00
:10073000C202D0F8D402526A02F019B901EB810268
:1007400000EBC202D0F8D402D2F8642102F072B9F0
:1007500070B504460B0601F0070000EB800104EBC6
:10076000C1014FF001024FF0000502D54A7410316B
:1007700003E081F8515101F5A871087094F89002D6
:10078000012808D084F89022206802F0F9FD84F84E
:100790009052002070BD022070BD70B5044601F07B
:1007A0000F002279904201D9012070BD0B0601F0A3
:1007B000070000EB800104EBC1014FF001024FF094
:1007C000000502D54A74103103E081F8515101F55A
:1007D000A8718D70087094F89002012808D084F8F0
:1007E0009022206802F069FE84F89052002070BDCB
:1007F000022070BD2DE9F05F04685FEA424C0B787F
:100800008D69B4F850C04FF000064BF68F7948F26E
:10081000800A48F68F7B48F2C00E4FF480672AD5D5
:100820004FF0020808EBC308C44407EB4C07E45B35
:10083000C4F30904A54203D32D1B8D6101D00BE045
:100840008E61066836F8235005EA090585F40055DF
:1008500045EA0A0526F82350520609D50D780368A3
:1008600033F8252002EA0B0242EA0E0223F8252083
:1008700084B30A8929E04FF0060808EBC308C44492
:1008800007EB4C07E45BC4F30904A54203D32D1B1B
:100890008D6101D00BE08E61066836F8235005EAC1
:1008A000090585F4005545EA0A0526F82350520645
:1008B00009D40B78056835F8232002EA0B0242EAD6
:1008C0000E0225F823202CB14A8949690068234685
:1008D00003F0CCF82046BDE8F09F2DE9F05F054617
:1008E00000680C465FEA426C16468B692278B0F8C5
:1008F00050C048F68F774CF280094FF4004B4FF60A
:10090000FF7E4FF4806A4FF0000172D54FF002086D
:1009100008EBC208E0440AEB480C30F80C00C0F3C6
:100920000900834211D91B1AA3610FD0730407D5A4
:100930002E6836F822303B4043EA090326F822307D
:1009400094F82420012A47D052E1A161607810B1C7
:10095000012813D01AE02868B0F85030184400EB92
:100960000210B0F80424C2F30902A0F80424B0F87D
:10097000042442F40042A0F8042407E02868B0F8F8
:100980005030184400EB0210A0F804146278286874
:1009900012B1012A11D018E0B0F8501008442178A3
:1009A00000EB0110B0F80C14C1F30901A0F80C140D
:1009B000B0F80C1441F4004105E0B0F850201044A8
:1009C000227800EB0210A0F80C1421782846FFF7DB
:1009D000ACFE700472D40BE1626902446261E269A8
:1009E0000244E2612369226A9A4203D31846111A2B
:1009F00004E03EE084F824100AB1104621626178D8
:100A000011B1012929D031E02968B1F850201144F1
:100A1000227801EB0211B1F80424C2F30902A1F813
:100A2000042401F204413E2807D94209C30600D13B
:100A3000521E0B884BEA822207E048B14208C307E6
:100A400000D0521C0B880EEA822213430B800DE06B
:100A50000A8842F400420A8008E02968B1F8502070
:100A60001144227801EB0211A1F8040483B2228917
:100A7000BAE04FF0060808EBC208E0440AEB480C65
:100A800030F80C00C0F30900834211D31B1AA36194
:100A90000FD0730407D42E6836F822303B4043EA67
:100AA000090326F8223094F82420012A51D09FE02F
:100AB000A161607818B1012814D01BE03FE02868DC
:100AC000B0F85030184400EB0210B0F80424C2F320
:100AD0000902A0F80424B0F8042442F40042A0F86B
:100AE000042407E02868B0F85030184400EB0210E6
:100AF000A0F804146278286812B1012A11D018E015
:100B0000B0F850100844217800EB0110B0F80C1434
:100B1000C1F30901A0F80C14B0F80C1441F4004121
:100B200005E0B0F850201044227800EB0210A0F845
:100B30000C1421782846FFF7F8FD700458D4227869
:100B4000296831F82200384040EA090021F82200E3
:100B50004EE0626902446261E2690244E261236933
:100B6000226A9A4203D31846111A216204E00AB19C
:100B70001046216284F824106278296812B1012A93
:100B800028D02FE0B1F850201144227801EB021157
:100B9000B1F80C24C2F30902A1F80C2401F20C41B3
:100BA0003E2807D94209C30600D1521E0B884BEAE2
:100BB000822207E048B14208C30700D0521C0B88CC
:100BC0000EEA822213430B800CE00A8842F40042B2
:100BD0000A8007E0B1F850201144227801EB02119D
:100BE000A1F80C04628983B26169286802F05CFF95
:100BF0002278296831F8220048F6BF73184080F047
:100C0000300048F28003184321F822000020BDE89C
:100C1000F09F2DE9F04104460F0601F0070000EBBC
:100C2000800104EBC1014FF001064FF0000502D531
:100C30004E74103103E081F8515101F5A871022B77
:100C400008700A61CB7000D10D7194F890020128F0
:100C500009D084F89062206802F042FA284684F8AD
:100C60009052BDE8F0810220FBE710B501F00704C7
:100C700004EB840100EBC101C1E959230022C1F852
:100C80006C2181F8512181F85041006801F5A8716B
:100C900002F068FC002010BD70B504460D4601F05E
:100CA00007002179884201D9012070BD29064FF043
:100CB00000064FF0010206D500EB800104EBC101F4
:100CC0004A74103107E005EB850104EBC10181F89E
:100CD000516101F5A8718A70087094F8900201289A
:100CE00007D084F89022206802F023FC680702D025
:100CF00006E0022070BD04F52671206802F0DBFBDF
:100D000084F89062002070BD10B501F0070404EB78
:100D1000840100EBC101C1E90923012281F83420DB
:100D20000B630023CB624A7401F8104F006802F095
:100D300019FC002010BD00001FB50446006802F039
:100D400091FE010403D5204600F0D8FF1FBD4105E8
:100D50000DD5206830F8441F21F4806101802046C1
:100D600000F000F90021204600F017F91FBD4104F2
:100D700005D5206830F8441F21F4804174E08104D7
:100D800005D5206830F8441F21F400516CE0C104FF
:100D900014D5206830F8401F21F00401018020683C
:100DA00030F8401F21F008010180204600F0EDF8E6
:100DB000206830F8441F21F4805155E0010540D5EA
:100DC000D4F800200020694632F8203021F8103095
:100DD000401CC0B20828F7D332F8400F40F00100A1
:100DE0001080206830F8402F22F001020280206835
:100DF000B0F844205205FBD530F8442F22F480622D
:100E000002800020236831F8102023F82020401CA5
:100E1000C0B20828F6D3206830F8401F41F008011E
:100E20000180206830F8441F21F4006101802068AF
:100E300030F8401F41F004010180204600F0E0F846
:100E40001FBD810509D5206830F8441F21F40071C9
:100E50000180204600F09DF81FBDC005FCD520682C
:100E600030F8441F21F4807101801FBD2DE9F0414D
:100E7000040004D094F89102002518B107E0012085
:100E8000BDE8F08184F89052204600F04DF8032030
:100E900084F891026571206802F006FB94E80F0067
:100EA00002F06CFA022698BB0021206802F0F4FDE3
:100EB00070BB002001270BE000EB800104EBC101B7
:100EC0004F740874CD740D624D62401CC0B28D62C7
:100ED00021798142F0D8002012E000BF00EB8001B0
:100EE00004EBC10181F8515181F8500181F853514F
:100EF000C1F86051C1F86451401CC0B2C1F86851DA
:100F000021798142EAD894E80F0002F0C4FA10B1C6
:100F100084F89162B3E7657384F89172206802F0F7
:100F2000B8FA0020ACE7000008B500680B49884219
:100F300012D10B48C16941F40001C161C0690022AE
:100F400000F40000009011461420FFF79DFBBDE85F
:100F500008401420FFF78ABB08BD0000005C004079
:100F60000010024070B5044680790125022801D0A6
:100F7000FFF7D7F92946D4F8D40201F089FED4F856
:100F8000D402BDE8704001F045BED0F8D40201F0B3
:100F900069BED0F8D40201F06FBE10B5044690F8D7
:100FA000900201280AD0012084F890026173206821
:100FB00002F074FD002084F8900210BD022010BDE4
:100FC000D0F8D42200F52671104601F06DBE10B5A0
:100FD000044690F89002012810D0012084F8900275
:100FE000206802F030FD01212046FFF79DFB2068BC
:100FF00002F04DFA002084F8900210BD022010BDCE
:1010000010B50446D0F8D40201F08DFEA07A002875
:1010100004D00348016841F00601016010BD0000E2
:1010200010ED00E02DE9F84305460078354CC00787
:1010300054D0E0690026C00008D4E06940F0805038
:10104000E061E069012600F0805000902E480168C0
:10105000C90512D40168804641F480710160FFF730
:101060007BFA074605E000BFFFF776FAC01B64284D
:1010700023D8D8F80000C005F6D5206A10F44070D7
:1010800021D0A98801F4407181421CD0206A1F49F7
:10109000012220F440700A6000220A602062C0072A
:1010A00011D0FFF759FA074641F2883808E000BF2F
:1010B000FFF752FAC11B414502D90320BDE8F8836E
:1010C000206A8007F4D5206A696820F440700843DC
:1010D00020621EB1E06920F08050E061287880072E
:1010E00005D56068A96820F440400843606028780E
:1010F000C00605D56068696920F480000843606017
:101100000020DBE700100240007000404004424233
:101110002DE9F0470F46050061D0434E306800F0DE
:101120000700B84209D2306820F007003843306029
:10113000306800F00700B84251D128683B4C810765
:1011400012D5400703D5606840F4E06060602878FD
:10115000000703D5606840F4605060606068A9686B
:1011600020F0F000084360602878C00728D0686845
:10117000012810D02168022810D0890700292EDA12
:10118000616821F0030101436160FFF7E5F98046E2
:1011900041F288390DE021688903EFE78901EDE725
:1011A000FFF7DAF9A0EB0801494502D90320BDE8B1
:1011B000F0876068696800F00C00B0EB810FEFD138
:1011C000306800F00700B8420BD9306820F0070003
:1011D00038433060306800F00700B84201D0012089
:1011E000E5E72878400705D56068E96820F4E06005
:1011F000084360602878000706D56068296920F4F4
:10120000605040EAC100606000F058F86168084A28
:10121000C1F30311515CC8400649086006480068E4
:10122000FFF7BAF90020C2E7002002400010024098
:101230004E3C0008A8010020A00100200F220260FF
:101240000C4A536803F003034360536803F0F00350
:101250008360536803F4E063C36052684FF4E06353
:1012600003EAD20202610448006800F00700086047
:101270007047000000100240002002400448054969
:1012800000684968044AC1F30221515CC8407047B4
:10129000A8010020001002405E3C000804480549F7
:1012A00000684968044AC1F3C221515CC8407047D4
:1012B000A8010020001002405E3C00080E4A516860
:1012C0000E4801F00C03042B11D0082B0FD10C4851
:1012D000C1F38343C903C05C0AD55168084AC1F30E
:1012E0004041921E515C054A5043B0FBF1F07047FB
:1012F00004494843704700000010024000127A0081
:101300003E3C000800093D002DE9F84F040070D074
:101310002078C04DC00749D06868C0F3810001281B
:1013200007D06868C0F38100022809D16868C0034B
:1013300006D52868800339D560680028E7D035E0F5
:101340006068B0F5803F0BD010B1B0F5A02F11D080
:10135000286820F480302860286820F4802002E08B
:10136000286840F480302860606890B1FFF7F4F896
:1013700006460AE0286840F480202860F0E700BFB5
:10138000FFF7EAF8801B642873D828688003F7D534
:101390000CE0FFF7E1F8064605E000BFFFF7DCF8D8
:1013A000801B6428F0D828688003F7D420789A4EF0
:1013B00080074FF001094FF0000839D5686810F038
:1013C0000C0F07D06868C0F38100022809D1686853
:1013D000C00306D42868800714D52069012808D1E5
:1013E00010E02069B0B1C6F80090FFF7B5F80746E5
:1013F00005E00AE1FFF7B0F8C01B0228C4D828684E
:101400008007F7D52868616920F0F80040EAC1003C
:1014100028600DE0C6F80080FFF79EF8074604E05C
:10142000FFF79AF8C01B022823D828688007F7D452
:10143000207800072CD57948A169D9B1C0F800906F
:10144000FFF78AF8074604E0FFF786F8C01B02287A
:101450000FD8686A8007F7D571484FF4FA510068D1
:10146000B0FBF1F0009000BF0098411E0091FAD24D
:101470000EE080E0C0F80080FFF76EF8074604E059
:10148000FFF76AF8C01B022875D8686A8007F7D48E
:101490002078400760D5E8690027C00008D4E869D3
:1014A00040F08050E861E869012700F0805000902A
:1014B0005C480168C90513D40168834641F4807112
:1014C0000160FFF749F8824606E000BFFFF744F8E5
:1014D000A0EB0A0064284ED8DBF80000C005F5D563
:1014E000E06801280AD008B1052813D0286A20F046
:1014F00001002862286A20F0040002E0286A40F017
:1015000001002862E06841F2883B98B1FFF724F8B7
:1015100082460BE0286A40F004002862EEE700BF34
:10152000FFF71AF8A0EB0A0159455AD8286A800734
:10153000F6D50CE0FFF710F8824605E0FFF70CF84F
:10154000A0EB0A0159454CD8286A8007F6D41FB190
:10155000E86920F08050E861E06988B36968C1F308
:101560008101022944D00228C6F8608004D0FEF729
:10157000F3FF044638E034E0FEF7EEFF074604E0F0
:10158000FEF7EAFFC01B02282BD828688001F7D499
:10159000206AB0F5803F05D16868A16820F400306A
:1015A00008436860D4E908010843696821F47411AC
:1015B00008436860C6F86090FEF7CEFF044606E078
:1015C00025E000BFFEF7C8FF001B022809D82868E5
:1015D0008001F7D51BE000BFFEF7BEFF001B02280D
:1015E00002D90320BDE8F88F28688001F4D40EE00A
:1015F0000128F7D06868226A00F48031914204D152
:10160000616A00F47010884201D00120EAE70020EE
:10161000E8E700000010024000004242800442421D
:10162000A8010020007000407047704770B590F826
:101630003C20012A2CD0012480F83C40022280F872
:101640003D2003685A689D6822F070060A6832439C
:101650005A60104B02689A420ED00F4B9A420BD040
:10166000B2F1804F08D00D4B9A4205D00C4B9A42F4
:1016700002D00C4B9A4204D1496825F080031943EB
:10168000916080F83D40002180F83C10084670BD14
:10169000022070BD002C01400034014000040040D5
:1016A00000080040000C004010B5040003D094F87E
:1016B0003D0010B107E0012010BD002084F83C007F
:1016C000204600F01FF8022084F83D00211D20680C
:1016D00000F070FD012084F8460084F83E0084F894
:1016E0003F0084F8400084F8410084F8420084F808
:1016F000430084F8440084F8450084F83D0000204D
:1017000010BD000008B500680B49884212D10B4893
:10171000C16941F02001C161C069022200F02000CE
:10172000009011463720FEF7AFFFBDE80840372094
:10173000FEF79CBF08BD00000014004000100240EE
:1017400090F83D10012901D001207047022180F856
:101750003D100168CA6842F00102CA6000680E4983
:1017600088420ED00D4988420BD0B0F1804F08D08E
:101770000B49884205D00B49884202D00A49884269
:1017800004D1816801F00701062903D0016841F006
:101790000101016000207047002C0140003401402D
:1017A0000004004000080040000C004070472DE994
:1017B000F04104460068C66805694FF00007A907B4
:1017C00013D5B10711D5F91E0161012020772068DA
:1017D00080698007204602D0FFF7E8FF04E000F0B0
:1017E0007EF8204600F07CF82777680716D570074A
:1017F00014D521686FF0040008610220207720686A
:10180000806910F4407F204602D0FFF7CFFF04E04C
:1018100000F065F8204600F063F82777280715D513
:10182000300713D521686FF0080008610420207785
:101830002068C0698007204602D0FFF7B7FF04E0A8
:1018400000F04DF8204600F04BF82777E80616D553
:10185000F00614D521686FF0100008610820207789
:101860002068C06910F4407F204602D0FFF79EFF39
:1018700004E000F034F8204600F032F82777E8075B
:1018800008D0F00706D021686FF0010008612046FB
:1018900000F028F8280608D5300606D521686FF034
:1018A000800008612046FFF7BFFE680608D5700675
:1018B00006D521686FF040000861204600F01CF852
:1018C000A8060AD5B00608D521686FF02000086187
:1018D0002046BDE8F041FFF7A8BEBDE8F0817047A3
:1018E0007047000000680349884201D1FEF73ABE04
:1018F0007047000000100040704770B5040004D02D
:1019000094F84100002510B106E0012070BD84F874
:101910004050204600F024F8242084F8410020683C
:10192000C16821F40051C160204600F091FC20689C
:10193000016921F4904101612068416921F02A0187
:1019400041612068C16841F40051C1606564202094
:1019500084F8410084F842006563002070BD0000F7
:1019600030B585B00024009401940294039400687B
:101970001449884224D11448816941F4804181612D
:10198000816901F480410491816941F00401816120
:1019900080690E4D00F0040004904FF40070009038
:1019A000022001900320039069462846FEF7CEFCF2
:1019B0002815CDE90004694628460294FEF7C6FCC6
:1019C00005B030BD00380140001002400008014061
:1019D000FEE70000F0B500230A24302537261F4615
:1019E00011E000BFB4EB107F02D905EB107C01E0E1
:1019F00006EB107C01F813C001EB430C00015B1CEB
:101A00008CF80170DBB29342ECD3F0BD2DE9F047C6
:101A100004460D460020012113E0236802EBC007B5
:101A20001E5C01FA02F31E406368D640521C13F894
:101A300007C0D2B246EA4C06DE55082AEDD3401C58
:101A4000C0B2B0EBD50F4FF00002E6D305F00709A6
:101A50008A460EE0216866680B5C0AFA02F10B40C8
:101A600002EBC001D340775C521C43EA4703735436
:101A7000D2B29145EED800263DE00027606807EB22
:101A8000C601405CC243120703D030F0F00017D00B
:101A90002BE0A2680AFA07F0935D0343DBB293558B
:101AA000D4F80CC003401CF8062002EA00084345A5
:101AB0001BD002430CF8062008462169884714E031
:101AC000A3680AFA07F09A5D82439A55D4F80CC0CD
:101AD00002401CF8063003EA0008424505D0834363
:101AE0000CF806306269084690477F1CFFB2082F49
:101AF000C4D3761CF6B2B6EBD50FBED3002532E0C8
:101B0000606805EBC601405CC243120703D030F0A9
:101B1000F00014D025E0A2680AFA05F0935D0343B3
:101B2000DBB29355E7680340BA5D02EA000C6345F7
:101B300017D00243BA5522690846904711E0A368BE
:101B40000AFA05F09A5D82439A55E7680240BB5D48
:101B500003EA000C624504D08343BB550846616923
:101B600088476D1CEDB2A945CAD8BDE8F0870000D2
:101B70002DE9F04385B00024274800940194029495
:101B80000394816941F040018161816901F0400164
:101B90000491816941F004018161816901F00401CE
:101BA0000491816941F0080181618069DFF86C80EE
:101BB00000F008000490002220214046FEF7C7FCF8
:101BC000DFF85C90002220214846FEF7C0FC182078
:101BD00001258DE8310069464046FEF7B7FB202716
:101BE000022600970396CDE9015469464046FEF768
:101BF000ADFBCDE9005469460A480296FEF7A6FB04
:101C000000970396CDE9015469464846FEF79EFBCE
:101C100005B0BDE8F083000000100240001801404C
:101C2000000C0140000801401CB500240E4800943F
:101C30000C49019401604721C0E9011441F2873148
:101C40008461C160FFF730FD08B1FEF76AFB0094C4
:101C5000694605480194FFF7E9FC002801D0FEF72A
:101C600060FB1CBD00140040180300200C4810B598
:101C70000A4901604FF4E1314160002181600C228A
:101C8000C160C0E904128161C161FFF736FE00281E
:101C900003D0BDE81040FEF744BB10BD0038014042
:101CA0006003002010B500220F49104800F038FEF4
:101CB00008B1FEF736FB0E490C4801F05AF808B19E
:101CC000FEF72FFB0B49094800F011FC08B1FEF7A5
:101CD00028FB064801F0A2F8002803D0BDE8104018
:101CE000FEF71FBB10BD00004C000020F0030020D9
:101CF000B00100208C010020FEE7FEE72DE9F84F3F
:101D0000044640F68F7B48F60F794FF480684FF019
:101D1000000ABDE1B0F8441011F00F0539D030F8D9
:101D2000256031047ED530F8251001EA0B0141F021
:101D3000800120F8251005EB850004EBC00797F81B
:101D40005C0107F5A87700286DD0F87802286BD0E1
:101D50003978226832F8210048F68F73184048F22B
:101D6000C003184322F821003978206830F8212078
:101D7000B0F8503052047DD5022202EBC1015A184E
:101D800008EB4201415A8905890D009173D03A89C7
:101D9000DDE0C9062BD4018801EA090141F40041C4
:101DA0000180206804F11005B0F85030217C022237
:101DB00002EBC1015A1808EB4201405AC0F3090076
:101DC000E062616A0844606200212046FEF7ADFCD3
:101DD000607B00289DD0A86900289AD1607B21688B
:101DE00040F08000A1F84C0084F80DA050E101887B
:101DF00004F5A8750A0521D5B0F850202B780621E6
:101E000001EBC3010A4408EB4201405A04F5267174
:101E1000C0F30903EB61EA88206801F027FE20681F
:101E2000018802E0AEE06EE07EE001EA0B0141F0E5
:101E3000800101802046FFF7C3F829E10904D5D5C8
:101E4000018801EA0B0141F0800101802068B0F8AF
:101E500050202B78062101EBC3010A4408EB420114
:101E6000405A83059B0DEB6110D0696971B1EA8816
:101E7000206801E05FE05DE001F0F8FDE969686974
:101E80000844686100212046FEF758FC2168088854
:101E90000205ABD4C0F301300328A7D0B1F850003D
:101EA0000844B0F80C14C1F30901A0F80C142A6915
:101EB00000F20C403E2A09D95109D20600D1491E30
:101EC00002884FF4004343EA812109E0B2B151088E
:101ED000D20700D0491C02884FF6FF7303EA812124
:101EE0000A430280216808884BF68F72104080F404
:101EF000405048F2800210430880C9E0018841F454
:101F000000410180EEE72068B0F850203B780621C0
:101F100001EBC3010A4408EB4201415A8905890DCE
:101F2000009118D0FA8812E0324639462046FEF772
:101F300061FC00900FE0062202EBC1015A1808EB89
:101F40004201415A8905890D009104D07A89796945
:101F5000009B01F08BFDF86900990844F8617969EC
:101F6000009808447861B86918B1396900988142CD
:101F700004D939782046FEF7E1FB03E039462068B2
:101F800001F0F0FA30062ED505EB850004EBC00118
:101F9000206830F8252002EA090242F4004220F8C5
:101FA0002520C87C103101281ED0F0056CD4206893
:101FB000B0F850300D78022202EBC5021A4408EB4B
:101FC0004202805A8A69C0F30900824255D9121A26
:101FD0008A6154D04A6902444A61CA691044C8619E
:101FE000206801F0BFFA53E0C1F818A0087B524600
:101FF00008B3700620D5487810B1012812D03AE015
:102000002068B0F8502010440A7800EB0210B0F8B5
:102010000424C2F30902A0F80424B0F8042442F412
:10202000004206E02068B0F8503018440B7800EB0E
:102030000310A0F804241EE04B78206813B1012B94
:1020400011D018E0B0F8502010440A7800EB0210CC
:10205000B0F80C24C2F30902A0F80C24B0F80C2448
:1020600042F4004205E0B0F8503018440B7800EB21
:102070000310A0F80C24097802E0C1F818A0E9B216
:102080002046FEF752FB03E032462046FEF725FCD1
:102090002068B0F8441009043FF53CAE0020BDE8CC
:1020A000F88F70477047704730B595B02821684663
:1020B000FEF7CCF814210AA8FEF7C8F818210FA8DB
:1020C000FEF7C4F801210804CDE9001000240294B1
:1020D00002250491CDE907504FF4E01009906846BD
:1020E000FFF712F908B172B6FEE70F20CDE90A0535
:1020F0004FF48060CDE90C4002210AA80E94FFF74E
:1021000007F808B172B6FEE7102014940F900FA8DC
:10211000FEF788FF002801D072B6FEE715B030BD8B
:10212000704700000148FFF742BB0000A8030020F1
:1021300070B51A48FFF73BFB19490888421C0A8012
:10214000032823D3174C002008802068164D0178FF
:1021500001F0FC01017008212846FEF7F3F900B1F7
:10216000012021680A781043087010212846FEF7E4
:10217000E9F908B1012100E000212068027842EA73
:102180004101017002210748FFF740FCBDE87040A3
:1021900082230F220549064800F0B1B91803002038
:1021A0004A0000202C0000200018014007000020F9
:1021B000F0030020F0B50268204C214D214E224F43
:1021C000224B4FF0804CA04209D0984207D0604586
:1021D00005D0A84203D0B04201D0B84204D122F0C9
:1021E000700E4A6842EA0E02A04209D0984207D017
:1021F000604505D0A84203D0B04201D0B84203D117
:1022000022F44075CA682A434D6922F080022A43AD
:1022100002608A68C2620A688262A04201D0984263
:1022200001D109690163012141610169C90703D035
:10223000016921F001010161F0BD0000002C0140A5
:102240000004004000080040000C00400034014041
:1022500070B5044600680169E26821F440511143F9
:1022600001612169A0680843616908432168CA685F
:1022700041F20C639A430243CA6020684169A26933
:1022800021F44071114341611E492068884202D106
:10229000FFF704F801E0FEF7F1FF00EBC00101EBEE
:1022A0000012606864218000B2FBF0F3B3FBF1F32D
:1022B0006FF018067343B2FBF0F5B2FBF0F605EBD6
:1022C0008305322303EB0515B5FBF1F5B6FBF1F6FB
:1022D00005F0F00505EB0615B2FBF0F6B2FBF0F0E9
:1022E000B0FBF1F06FF01802504306EB800003EBF7
:1022F0000010B0FBF1F0216800F00F002844886066
:1023000070BD000000380140D0F8B802002180F80C
:1023100050100846704770B50546D0F8B842D5F859
:10232000BC226178D2682078904740232246012160
:10233000284600F066FC002070BD70B5044681217F
:1023400000F00CFB002501212046E56200F006FBB1
:10235000C4F86C51D4F8B80248B1D4F8BC0204F502
:102360002E7480688047206800F0B5FE256000204C
:1023700070BD10B5D0F8B842E16C012908D1D0F891
:10238000BC0223786178C268184690470020E06458
:10239000002010BD0A21018000487047D8020020AB
:1023A0004A21018000487047E80100204A2101804D
:1023B00000487047340200204A21018000487047DD
:1023C0008002002070B504460026202303228121CC
:1023D00000F00BFC01252023032229462046E5625C
:1023E00000F003FC2023032201212046C4F86C5195
:1023F00000F0FBFB202303228121204600F0F5FBA7
:10240000E5622023032202212046C4F86C5100F02B
:10241000ECFB202303228221204600F0E6FB25640A
:102420000322202311462046C4F8805100F0DDFB32
:10243000202303228321204600F0D7FB656520235B
:10244000032204212046C4F8945100F0CEFB20233F
:1024500003228421204600F0C8FBA5662023032226
:1024600005212046C4F8A85100F0BFFB2023032219
:102470008521204600F0B9FBE567202303220621D1
:102480002046C4F8BC5100F0B0FB20230322862173
:10249000204600F0AAFBC4F8905020230322072115
:1024A0002046C4F8D05100F0A0FB2023032287214E
:1024B000204600F09AFBC4F8A4505420C4F8E4511C
:1024C00000F00AFEC4F8B80278B10546002085F88D
:1024D0005000D4F8BC024068804740232A460121BE
:1024E000204600F08EFB304670BD0126FBE7024619
:1024F0000220002902D00020C2F8BC12704770B53B
:102500001D460C4690F89C32D0F8B812032B0CD123
:1025100091F850300BB1012070BD012381F850308B
:1025200013462246294600F007FC002070BD00003B
:10253000F8B50022D0F8B832ADF800200E78154674
:10254000144616F0600625D0202E02D0402E58D119
:102550005FE04A78921E0A2A53D2DFE802F01008A0
:102560005252525252140C05887818644FE00122DE
:1025700003F1400136E04888000A586447E0012230
:1025800003F144012EE00122DA64CA88194600F002
:1025900071F83CE04E7836B1062E0BD00A2E24D0CE
:1025A0000B2E2ED129E090F89C22032A29D1022259
:1025B000694617E04B882226B6EB132F08D18B888B
:1025C000012B2FD1CA88762A00D97622164D29E010
:1025D0002126B6EB132F25D1CA88144D092A21D9FB
:1025E00009221FE000F060F811E090F89C22032A15
:1025F00007D1012203F14801F4E790F89C22032A55
:1026000003D000F02CF8022401E08878986420467A
:10261000F8BD4B78902B05D1CA88282A00D92822EA
:10262000024D16352946DDE79C000020CC02002033
:1026300010B5D0F8B42252689047002010BD134660
:1026400010B50A46002100F0DCFA002010BD134648
:1026500010B50A46002100F06FFB002010BD10B538
:102660000446802100F04DFB2046BDE810400021CB
:1026700000F047BB10B50323C0F85C21C0F89432CA
:10268000C0F8602113460A46002100F0BAFA002083
:1026900010BD10B505210023C0F894121A46194642
:1026A00000F0AFFA002010BD10B50223C261C0F8DF
:1026B0009432026213460A46002100F03DFB0020DE
:1026C00010BD10B504210023C0F894121A46194613
:1026D00000F032FB002010BD10B50A46024903A0ED
:1026E00000F0EEF8004810BDB40600204375737486
:1026F0006F6D2048494420436F6E66696700000093
:1027000012200880004870476C00002010B50A466F
:10271000024903A000F0D4F8004810BDB406002020
:10272000437573746F6D2048494420496E74657217
:10273000666163650000000004200880004870475F
:102740006800002010B50A46024903A000F0B8F85E
:10275000004810BDB406002053544D6963726F6584
:102760006C656374726F6E696373000010B50A461E
:10277000024903A000F0A4F8004810BDB4060020F0
:1027800053544D333220437573746F6D2048756D0B
:10279000616E20696E746572666163650000000099
:1027A00010B51A2008800A480168001D0468001D41
:1027B0000068081809D008220649FFF70BF90549F7
:1027C000042210312046FFF705F90248801E10BD93
:1027D000E8F7FF1F82000020F8B504460020ADF89E
:1027E000000048880D46010A082948D2DFE801F0B8
:1027F0004704091747473C45D4F8B012207C0A68C3
:1028000019E0207C02260028D4F8B40205D0C16A61
:1028100068468847014646703EE0816AF8E7C0B2E4
:1028200006282CD2DFE800F0030A1014181CD4F894
:10283000B002426805E0694690471CE0D4F8B00257
:102840008268E2B1207CF6E7D4F8B002C268F8E70B
:10285000D4F8B0020269F4E7D4F8B0024269F0E7B4
:10286000D4F8B0028269ECE7207C40B9D4F8B40215
:10287000416B6846884701460EE0207C20B129461E
:102880002046FFF7ECFEF8BDD4F8B402016B6846B1
:102890008847014607204870BDF8000048B1EA8823
:1028A00052B1824200D90246ADF800202046FFF71F
:1028B000FBFEE8880028E6D12046FFF702FFF8BDBE
:1028C00070B5002300281ED00446002502E06D1CD0
:1028D000EDB2641C2678002EF9D1022404EB4504E5
:1028E00014801278CA545B1C0322CA5400245B1C57
:1028F00006E0CA545B1CDAB28C54521CD3B2401CA2
:102900000278002AF5D170BD01004FF0000004D01C
:10291000012901D0022901D002207047012070470F
:1029200010B580B1D0F8B43213B10023C0F8B4327E
:1029300009B1C0F8B012012180F89C12027000F0B9
:10294000BBF8002010BD022010BD10B5D0F8C002A9
:10295000FDF723FFBDE81040FFF7D6BF10B5D0F854
:10296000C002FDF7F5FEBDE81040FFF7CDBF2DE931
:10297000F0411746044651B1D4F8B40242691AB185
:1029800094F89C02032851D00220BDE8F081D4F8CD
:102990009432002504F11400022B03D0042B3AD00A
:1029A000C3B33CE0D0E903639E4207D9F11AC1608A
:1029B0008AB239462046FFF74AFE12E08068B0FB33
:1029C000F3F103FB110199B9984211D3D4F898128D
:1029D00088420DD2002211462046FFF738FEC4F887
:1029E000985200231A461946204600F00AF916E0CC
:1029F000D4F8B402C16829B194F89C02032801D12B
:102A0000204688478021204600F07BF92046FFF7CA
:102A100040FE04E0FFE78021204600F072F994F8C0
:102A2000A002012804D184F8A05201E0204690477A
:102A30000020AAE770B51546044649B1D4F8B4029F
:102A400082691AB194F89C02032830D0022070BD2C
:102A5000D4F8941204F5AA70032902D005291ED0D7
:102A600027E0D0E903218A420BD9531AC3600846F4
:102A7000834200D303469AB229462046FFF7DFFD82
:102A800017E0D4F8B402016929B194F89C02032834
:102A900001D1204688472046FFF713FE09E00020B9
:102AA0000146C4F89402204600F02BF901E02046CC
:102AB0009047002070BD000010B5044641484249CF
:102AC000C0F8D442C4F8C00201600821017102219B
:102AD000817100218172C1720173FEF7C7F908B1DB
:102AE000FDF71FFC0022D4F8C0024023114604F574
:102AF0003074FDF7FBFD6023002280212068FDF784
:102B0000F5FD8023002281212068FDF7EFFDA02341
:102B1000002201212068FDF7E9FDC0230022822167
:102B20002068FDF7E3FDE023002202212068FDF785
:102B3000DDFD4FF48073002283212068FDF7D6FD70
:102B40004FF49073002203212068FDF7CFFD4FF46E
:102B5000A073002284212068FDF7C8FD4FF4B073F4
:102B6000002204212068FDF7C1FD4FF4C07300224C
:102B700085212068FDF7BAFD4FF4D07300220521AE
:102B80002068FDF7B3FD4FF4E07300228621206832
:102B9000FDF7ACFD4FF4F073002206212068FDF72D
:102BA000A5FD4FF4F473002287212068FDF79EFDF8
:102BB0004FF4F873002207212068FDF797FD0020ED
:102BC00010BD00000C090020005C00400A0601F066
:102BD0007F01D0F8C00201EB810100EBC10001D5FB
:102BE000807C704790F85201704710B51C46134620
:102BF000D0F8C0022246FEF70CF8BDE81040FFF7FF
:102C000083BE10B5D0F8C002FEF72FF8BDE8104023
:102C1000FFF77ABE70B50022044640231146FFF745
:102C2000E4FF40260125C4F8646133460022802178
:102C30002046C4F85851FFF7D8FF6662A56184F8B2
:102C40009C520020C4F894026060C4F8A402D4F836
:102C5000B80228B1D4F8B402002142682046904757
:102C6000002070BD90F89C12042903D190F89D12A9
:102C700080F89C120020704710B590F89C12032930
:102C800004D1D0F8B412C96901B18847002010BD41
:102C900001740020704710B5D0F8C002FEF77DF92E
:102CA000BDE81040FFF730BE70B5044600F52A704D
:102CB000054600F04AF80120C4F89402B4F8AE02C8
:102CC000C4F8980294F8A80210F01F010AD0012954
:102CD0000DD0022910D000F08001204600F011F83C
:102CE000002070BD2946204600F09DF8F8E72946EF
:102CF000204600F0C9F9F3E72946204600F01CF908
:102D0000EEE710B5D0F8C002FDF7C6FFBDE81040F1
:102D1000FFF7FABD10B5D0F8C002FEF758F9BDE8CC
:102D20001040FFF7F1BD90F89C1280F89D1204212D
:102D300080F89C120020704710B5D0F8C002FDF753
:102D4000E3FFBDE81040FFF7DFBD0A7802704A7864
:102D500042708A78CB7802EB032242800A794B7961
:102D600002EB032282808A79C97902EB0121C180BA
:102D700070470246002011B1C2F8B4127047022019
:102D8000704710B5D0F8B42202241AB112689047E7
:102D900000B90024204610BD70B50E461E4D89783E
:102DA00004462970012931D894F89C0202280BD0DE
:102DB00003280FD031462046FFF751FC29782046E2
:102DC000BDE87040FFF734BCD9B10320616084F8DE
:102DD0009C0209E071B16068884212D0C1B22046FD
:102DE000FFF726FC297861602046FFF7CAFF02281A
:102DF0000CD006E0022084F89C0220466160FFF7B8
:102E000017FC2046BDE87040FFF75BBC314620460A
:102E1000BDE87040FFF723BCAC01002010B5FFF700
:102E200079FF002010BD2DE9F0410A78002612F04C
:102E3000600208D0202A01D0402A70D1D0F8B422F4
:102E4000926890476DE04B78002201250A2B66D2EC
:102E5000DFE803F0405D6557650805652C29FFF73D
:102E6000BBFC5EE004468888D8B9C888C8B94888E1
:102E7000802816D200F07F0794F89C02032810D017
:102E800084F89E7239462046FFF705FF2046FFF77B
:102E900018FC1FB1022084F89C0242E084F89C5286
:102EA0003FE020463BE0FFF777FF3AE0CB88012B7D
:102EB00035D190F89C32012B04D0022B02D0032B89
:102EC0002DD104E08260012200F1080116E0012208
:102ED000011D13E090F89C22012A03D0022A01D0A0
:102EE000032A1CD1CA88022A19D1C560D0F8A412BD
:102EF00009B10321C160022200F10C01FFF7D4FBEC
:102F00000FE0498801290CD1C0F8A45211E090F8D3
:102F10009C32012B08D0022B06D0032B04D0FFF7E4
:102F20009EFB3046BDE8F08149880129F9D1C0F8FF
:102F3000A422FFF7C6FBF4E72DE9F0410A46044658
:102F400010780027097910F060030AD0202B01D0F7
:102F5000402B50D1D4F8B4021146836820469847DC
:102F60008FE0C0F34110012806D05078D0B301287B
:102F70002AD003283FD107E0D4F8B4021146836871
:102F80002046BDE8F041184794F89C02022802D080
:102F9000032872D10AE071B380296ED02046FFF772
:102FA000B0FE80212046FFF7ACFE6AE0508838B9B9
:102FB00031B1802904D0D08810B92046FFF7A1FE96
:102FC0002046FFF77EFB5CE094F89C020228E2D0EA
:102FD000032852D1508898BB4806F1D02046FFF70D
:102FE000B4FCEDE7FFE794F89C020026022803D02A
:102FF000032842D112E040E009B180293DD1080602
:1030000001F07F0000EB800004EB800101D514315A
:1030100001E001F5AA7102220E602AE0080601F023
:103020000F0000EB800004EB80000AD5806920B31C
:1030300001F07F0000EB800004EB800514350BE00D
:103040001FE0D0F85801C0B101F07F0000EB800014
:1030500004EB800505F5AA7541B1802906D020460C
:10306000FFF7B4FD10B10120286000E02E600222BD
:1030700029462046FFF718FB03E011462046FFF7DC
:10308000EEFA3846BDE8F08170B5054608780C4682
:1030900010F0600003D0202801D0402816D195F808
:1030A0009C02012803D0022801D003280ED12079E8
:1030B00008280BD8D5F8B402826828469047E188E2
:1030C000014306D12846FFF7FCFA02E02846FFF745
:1030D000C6FA002070BD704700487047B408002051
:1030E0002DE9F0470C78002630F8243048F68F128E
:1030F0001340CA78002A78D0012A7CD0022A02D054
:10310000032A75D0012648F28002134320F82430A8
:103110000D7830F8253048F68F7423402B43134345
:1031200020F825300D7B48F2C00948F6BF734CF2F9
:10313000800A4BF68F77EDB3CD7891F800C0022D61
:1031400030F82C507DD048F68F6805EA0805154305
:1031500020F82C50B0F8505091F800C0054405EB11
:103160000C15B1F808C02CF0010CA5F800C4B0F89B
:10317000505091F800C0054405EB0C15B1F80AC099
:103180002CF0010CA5F808C44D78002D7ED00D78E8
:1031900030F825C05FEA4C4C07D530F825C00CEA62
:1031A000040C4CEA0A0C20F825C091F800C030F855
:1031B0002C5000E022E06D0606D530F82C5025405A
:1031C00045EA090520F82C50CC780D78012C30F810
:1031D000254004EA03047CD084F02003134320F844
:1031E0002530C1E001E006E002E043F400738AE725
:1031F00043F4C06387E743F4806384E74D784DB3BD
:10320000B0F850500F78054405EB0715CF8827F02C
:103210000107A5F800740F7830F827506D0606D521
:1032200030F82750254045EA090520F82750CC788A
:10323000012C07D00C7830F82410194081F02001BF
:1032400004E064E00C7830F824101940114320F8B1
:10325000241090E0B0F850300D78034403EB0513D0
:10326000CD8825F00105A3F80854B0F850300D784A
:10327000034403EB0513B3F80C54C5F30905A3F895
:103280000C540D6903F20C433E2D00E045E00BD9D0
:103290004FEA551CED0601D1ACF1010C1D884FF42D
:1032A000004848EA8C2C0BE035B34FEA550CED078B
:1032B00001D00CF1010C1D884FF6FF7808EA8C2C28
:1032C00045EA0C051D800D7830F825305B0408D5E3
:1032D00000E046E030F82530234043EA0A0320F8B6
:1032E0002530097861B130F821303B4083F4005338
:1032F000134320F821303EE01D8845F40045E1E706
:103300000188394081F440511143018033E0254068
:1033100048F2801845EA08051AE791F800C030F82D
:103320002C506D0406D530F82C50254045EA0A058E
:1033300020F82C5091F800C030F82C506D0606D5BE
:1033400030F82C50254045EA090520F82C500D781E
:1033500030F825403C4084F44054144320F8254084
:1033600070E7144320F825400B7830F823103940DB
:10337000114320F823103046BDE8F0870020704745
:103380002DE9F04391F80C804F780A7848F6BF7C1D
:103390004BF68F7948F2800348F2C0054CF2800664
:1033A00048F68F74B8F1000F28D0002F30F8227043
:1033B0004FEA474748D0002F05DA30F822702740FF
:1033C000374320F822700A7830F822707F0605D53E
:1033D00030F8227027402F4320F822700D7830F803
:1033E00025202240324320F825200C7830F8242074
:1033F00002EA0C021A4320F824201AE07FB130F8C8
:103400002260760605D530F8226026402E4320F84B
:1034100022600A7830F8221001EA0C010EE030F840
:1034200022506D0405D530F822502540354320F850
:1034300022500A7830F8221001EA0901194320F8D5
:1034400022100020BDE8F083002F05DA30F822704A
:103450002740374320F822700A7830F82260760639
:1034600005D530F8226026402E4320F822600E78E1
:1034700030F8262022402A4320F826200C7830F805
:10348000242002EA09021A4320F82420C1E7002080
:10349000704700207047012120F8401F0021018063
:1034A000818001820846704730F8401F21F43F4177
:1034B0000180002070470020704730B50A7BB2BB06
:1034C0004A7848F68F7548F28004C2B10B7830F81C
:1034D0002320520607D530F823202A4048F2C005A1
:1034E0002A4320F82320CA78012A20D00A7830F80D
:1034F000221048F6BF73194081F0200114E00A78C9
:1035000030F822305B0407D530F822302B404CF2E3
:1035100080052B4320F822300A7830F822104BF631
:103520008F73194081F44051214320F8221000206C
:1035300030BD10B54A780978002A48F2800330F887
:10354000212005D048F6BF74224082F0100204E02A
:103550004BF68F74224082F480521A4320F82120C7
:10356000002010BD2DE9F0470D464B78097B04463D
:103570004FF0000948F68F7248F2800A4FF4004776
:103580004FF6FF78012B09D000296FD0E878022888
:103590006DD001286CD00120BDE8F087AE692869A4
:1035A000864200D9064691B1E97802291ED0286AE0
:1035B000801B2862287834F820104906B4F850108F
:1035C000214401EB001073D5A0F80C6416E1B3B2EE
:1035D000EA882046696900F067FAB4F85000297853
:1035E000204400EB0110A0F804640DE1296A814237
:1035F00077D9297834F82100104048F2801210431E
:1036000024F82100286A801B2862287834F82010CA
:103610004906697871D511B101292AD030E0B4F892
:103620005010214401EB0010B0F80C14C1F3090153
:10363000A0F80C1400F20C403E2E07D97109F206D6
:1036400000D1491E028847EA812107E04EB1710886
:10365000F20700D0491C028808EA81210A4302804F
:103660000EE0018841F40041018009E0F1E020E131
:1036700095E1B4F85020111901EB0010A0F80C648A
:103680006A89B3B22046696900F00EFA686930446D
:1036900068612969286A884202D9801B286202E091
:1036A0000646C5F82090687818B101282BD032E082
:1036B0002FE0B4F850002978204400EB0110B0F856
:1036C0000414C1F30901A0F8041400F204403E2ED2
:1036D00008D97109F20600D1491E028847EA812102
:1036E00008E0A1E056B17108F20700D0491C028839
:1036F00008EA81210A4302800DE00EE0018841F4CE
:103700000041018007E0B4F850002978204400EB24
:103710000110A0F804642A8971E011B1012927D0B1
:103720002DE0B4F85010214401EB0010B0F804145F
:10373000C1F30901A0F8041400F204403E2E07D999
:103740007109F20600D1491E028847EA812107E08B
:103750004EB17108F20700D0491C028808EA8121A5
:103760000A4302800BE0018841F40041018006E039
:10377000B4F85010214401EB0010A0F804642A8929
:10378000B3B22046696900F08FF968693044686116
:103790002969286A884202D9801B286202E006460D
:1037A000C5F82090687810B1012836D026E0B4F82A
:1037B00050002978204400EB0110B0F80C14C1F33C
:1037C0000901A0F80C1400F20C403E2E07D9710933
:1037D000F20600D1491E028847EA812107E04EB176
:1037E0007108F20700D0491C028808EA81210A43C7
:1037F000028003E0018841F4004101806A89B3B28C
:103800002046696900F050F9297834F8210048F61B
:10381000BF72104080F030000FE1B4F8501008196A
:10382000297800EB0110CFE62A7834F8220048F618
:103830008F63184040EA0A0024F82200B4F85000D0
:103840002A78204400EB02108BB2A0F804342A89B5
:10385000D6E7A9692869814202D9091AA96102E05B
:103860000846C5F81890B4F850102A78214401EBA6
:103870000211B1F80C24C2F30902A1F80C2401F2E0
:103880000C413E287DD94209C00600D1521E08884D
:1038900047EA82220AE0088840F4004007E0420834
:1038A000C00700D0521C088808EA82221043088012
:1038B000BBE033BBB4F850002978204400EB011082
:1038C000B0F80414C1F30901A0F80414296900F246
:1038D00004403E2907D94B09C90600D15B1E018867
:1038E00047EA832307E041B14B08C90700D05B1CBE
:1038F000018808EA8323194302E0018841F400416A
:103900000180687810B1012828D030E0B4F8500068
:103910002978204400EB0110B0F80C14C1F3090120
:10392000A0F80C14296900F20C403E2907D94B0974
:10393000C90600D15B1E018847EA832307E041B135
:103940004B08C90700D05B1C018808EA8323194390
:1039500002E0018841F40041018008E0B4F8501011
:103960000819297800EB0110298AA0F80C14E869DD
:10397000C0B3297834F82100430401D5430605D4A7
:1039800000E046E044F2400318424ED134F82100F2
:10399000104048F2C002104324F8210045E0A96914
:1039A0002869814202D9091AA96102E00846C5F8CE
:1039B000189013BBB4F850102A78214401EB02117F
:1039C000B1F80424C2F30902A1F8042401F204416D
:1039D0003E2808D94209C30600D1521E0B8847EA87
:1039E000822208E021E078B14208C30700D0521CCF
:1039F0000B8808EA822213430B80697800293FF480
:103A00002EAF012909D010E00A8842F400420A8052
:103A1000F3E700287FF443AF3DE7B4F850201119D5
:103A20002A7801EB0211A1F80C04297834F821005E
:103A30004BF68F72104080F4405040EA0A0024F8A0
:103A400021000020A8E50021A0F844104FF43F41D8
:103A5000A0F84010002070470148FDF76DB9000044
:103A60000C090020B0F844007047000010B500EBCE
:103A700042005C0800F5806009D000BF30F8042BDC
:103A800001F8012B120A01F8012B641EF6D1DA07A6
:103A900001D00088087010BD0020704711B9802146
:103AA000A0F84C100020704710B55B1C00EB4200E2
:103AB0005B0800F5806009D011F8012B11F8014B6B
:103AC00042EA042220F8042B5B1EF5D110BDFEE76C
:103AD0000907090E002804DB00F1E02080F800143B
:103AE000704700F00F0000F1E02080F8141D7047CF
:103AF0000C494B780A7A40B1012805D103F0FD004A
:103B0000487002F0FD000872704703F0FE00487034
:103B100002F0FE00087203481630C17821F004015B
:103B2000C1707047000000200C494B780A7A40B100
:103B3000012805D143F00200487042F002000872EB
:103B4000704743F00100487042F0010008720348DA
:103B50001630C17841F00401C170704700000020A8
:103B6000FCF708FD0C490220C871FEF79DFAFDF72D
:103B7000FFFF002000F014F86420FCF7D5FB0120C3
:103B800000F00EF8FEF750F8FEF770F8FEF78AF82E
:103B90000248FDF7D5FDFEE70000002018030020D5
:103BA0002DE9F041224986B08A6942F004028A6117
:103BB0008969012401F0040104911E490326CF14F0
:103BC0008D140028DFF87080088816D020F00200DD
:103BD00008800097CDE902460227694640460197D2
:103BE000FCF7B4FBCDE90246CDE9005769464046F3
:103BF000FCF7ACFB06B0BDE8F08140F002000880A5
:103C0000CDE90074CDE9024669464046FCF79EFBCB
:103C1000694640460095FCF799FB0022394640462C
:103C2000FCF795FC002229464046FCF790FCE1E7B2
:103C300000100240405C0040000801400102020305
:103C40000405060708090A0B0C0D0E0F10100000E2
:103C5000000000000000010203040607080900003C
:103C60000000010203040000883C0008000000205E
:103C70000C0300006C010008F83D00080C03002054
:103C80003C0F0000C801000802160102141422446F
:103C900014200C031B2046081A480413F13A140898
:103CA000293B82081301271B0839041A45041A6DA1
:103CB000041AA10413D9261B080D081704030904CC
:103CC0001201100A02EF020140373540101D0101B8
:103CD00002037D031A1A03100805010905A101A1B9
:103CE000100A8501050919012910151809250195E2
:103CF00010750181021A1009300931093209331592
:103D00001326FF1809750895048102C0C017380CE6
:103D100006A1018502050719E029E72F3A082F3E81
:103D20000719042965102A62101809950175068182
:103D3000030508553A05162D0575019116350391B1
:103D400003C029040173131401142019031B08155F
:103D5000041A1D043201821053127A13C5231B0862
:103D60003B0413312542081A730C1A09041A17046C
:103D7000C11AAD101AA1041AB9042A952413024AD3
:103D80001302012580FA09041502FF5D01400A11A2
:103D90002110010124811403141302081607058160
:103DA00003201D0407050207150809040115010376
:103DB00001011C0921110A1B2276202C82031066A6
:103DC000294C19193BC0324C2940992429442D050E
:103DD000070501070123094B4C693A31130A0632E2
:103DE0000213400142281301048201000812015805
:083DF000555342313000000080
:0400000508000131BD
:00000001FF
