:020000040800F2
:1000000000000120693C0008F9060008FB06000812
:10001000FD060008FF0600080107000800000000B8
:1000200000000000000000000000000003070008BE
:10003000050700080000000007070008090700087E
:10004000B13C0008B13C0008B13C0008B13C0008DC
:10005000B13C0008B13C0008B13C0008B13C0008CC
:10006000B13C0008B13C0008B13C0008B13C0008BC
:10007000B13C0008B13C0008B13C0008B13C0008AC
:10008000B13C0008B13C0008B13C0008B13C00089C
:1000900015390008B13C0008B13C0008B13C00082B
:1000A000B13C0008B13C0008B13C0008B13C00087C
:1000B000B13C0008B13C0008B13C0008B13C00086C
:1000C000B13C0008B13C0008B13C0008B13C00085C
:1000D000B13C0008B13C0008B13C0008B13C00084C
:1000E000B13C0008B13C0008B13C0008B13C00083C
:1000F000B13C0008B13C0008B13C0008B13C00082C
:10010000B13C0008B13C0008B13C0008B13C00081B
:10011000B13C0008B13C00080D0700081D070008AD
:10012000B13C0008B13C0008B13C0008B13C0008FB
:1001300000000000000000000000000000000000BF
:1001400000000000000000000000000000000000AF
:10015000000000000000000000000000000000009F
:10016000000000000000000000000000000000008F
:10017000000000000000000000000000000000007F
:10018000000000000000000000000000000000006F
:10019000000000000000000000000000000000005F
:1001A000000000000000000000000000000000004F
:1001B000000000000000000000000000000000003F
:1001C000000000000000000000000000000000002F
:1001D000000000000000000000000000000000001F
:0401E0005FF8E0F1F3
:1001E400034613F8012B002AFBD1181A0138704773
:1001F40010B5054C237833B9044B13B10448AFF35D
:1002040000800123237010BD54050020000000006D
:10021400584D000808B5034B1BB103490348AFF31D
:10022400008008BD0000000058050020584D00085B
:1002340010B101280FD070470C4B5A7822F00102FC
:100244005A701A7A22F001021A72094AD37823F0FA
:100254000403D3707047054B5A7822F002025A7097
:100264001A7A22F002021A72704700BF18000020A6
:100274002C00002010B101280FD070470C4B5A7885
:1002840042F001025A701A7A42F001021A72094AC3
:10029400D37843F00403D3707047054B5A7842F087
:1002A40002025A701A7A42F002021A72704700BFB0
:1002B400180000202C000020F0B587B02A4B9A6962
:1002C40042F004029A619B6903F004030193019BC9
:1002D40010B3264AB2F840309BB223F002039BB21B
:1002E400A2F840304FF400630293022703970126DB
:1002F4000496032505951E4C02A9204601F076F8C4
:100304004FF48053029303970496059502A920465F
:1003140001F06CF807B0F0BD144AB2F840309BB25B
:1003240043F00203A2F840304FF400660296012322
:1003340003930493032305930D4C02A9204601F073
:1003440055F84FF48055029502A9204601F04EF865
:1003540000223146204601F06CF90022294620464D
:1003640001F067F9D6E700BF00100240005C0040CE
:100374000008014008B50268034B9A4200D008BD4A
:1003840000F040FCFBE700BF0010004072B6FEE73F
:1003940000B597B0282200210CA803F047FF0023E2
:1003A4000793089309930A930B930193029303937E
:1003B40004930593069301220C924FF480330D931A
:1003C40010920222139214934FF4E01315930CA885
:1003D40000F054FCC0B90F230793022108910023B5
:1003E40009934FF480620A920B9307A800F078FEF9
:1003F40060B9102301930023069301A800F06AFF5B
:1004040030B917B05DF804FBFFF7C0FFFFF7BEFF7C
:10041400FFF7BCFF08B500F0E3FBFFF7B9FF00F0FE
:1004240031F800F0D9F800F08FF80020FFF744FF0E
:10043400642000F0F9FB0120FFF73EFF0D49002086
:1004440003F0B4FA0C4B18680023022219468068A2
:1004540003F060FD142000F0E7FB084800F010FAF8
:1004640002E0074B00221A70054B1B78002BFBD0CF
:10047400F7E700BF005C0040C800002088050020AA
:10048400090800202DE9F04389B000240494059460
:1004940006940794284B9A6942F040029A619A693B
:1004A40002F040020192019A9A6942F004029A61B0
:1004B4009A6902F004020292029A9A6942F00802CE
:1004C4009A619B6903F008030393039B1B4F224625
:1004D4002021384601F0ADF8DFF86480224620215F
:1004E400404601F0A6F818230493059401250695C7
:1004F40004A9384600F07AFF4FF02009CDF8109097
:10050400059506940226079604A9384600F06EFF66
:1005140004950594069604A90A4800F067FFCDF8EF
:10052400109005950694079604A9404600F05EFFD6
:1005340009B0BDE8F08300BF00100240001801407C
:10054400000C01400008014000B583B00023009373
:1005540001930F480F4A026047224260836041F2D0
:100564008733C3608023836100F0CEFA50B900233F
:10057400009301936946064800F0F2FA28B903B0E3
:100584005DF804FBFFF702FFF1E7FFF7FFFEF6E774
:10059400880500200014004002680E4B9A4200D0E7
:1005A400704700B583B003F5FE33DA6942F02002E8
:1005B400DA61DB6903F020030193019B02221146F7
:1005C400372001F083F8372001F090F803B05DF88C
:1005D40004FB00BF0014004008B50A480A4B03603E
:1005E4004FF4E133436000238360C36003610C2252
:1005F40042618361C36101F042F900B908BDFFF7AC
:10060400C5FEFBE7D00500200038014010B586B0D8
:10061400002302930393049305930268174B9A42B1
:1006240001D006B010BD03F558439A6942F48042E4
:100634009A619A6902F480420092009A9A6942F09F
:1006440004029A619B6903F004030193019B4FF434
:10065400007302930223039303230593084C02A916
:10066400204600F0C3FE4FF48063029300230393FB
:10067400049302A9204600F0B9FED2E700380140F5
:100684000008014000B583B001904FF0FF33012210
:1006940001A9034801F023F9019803B05DF804FBB4
:1006A400D00500200268124B9A4200D0704700B572
:1006B40083B003F5DA33DA6942F40002DA61DB6904
:1006C40003F400030193019B00221146132000F060
:1006D400FDFF132001F00AF800221146142000F057
:1006E400F5FF142001F002F803B05DF804FB00BF2D
:1006F400005C0040FEE7FEE7FEE7FEE7FEE770472A
:10070400704770477047000008B5024800F0F8F8D9
:1007140008BD00BF1C06002038B51B4800F0F0F8E7
:100724001A4A1388591C1180022B06D881231422DB
:100734001749002003F09EF938BD134600221A80A1
:10074400144D2A68137823F003031370124C082104
:10075400204600F067FF2A681378002818BF43F08A
:10076400010313701021204600F05CFF48B1022100
:100774000848026813780B431370022103F0A4F9AC
:10078400D4E70021F4E700BF880500201806002004
:100794002C000020000000200018014082B00E4B05
:1007A4009A6942F001029A619A6902F00102009288
:1007B400009ADA6942F08052DA61DB6903F080530F
:1007C4000193019B054A536823F0E06343F00073EF
:1007D400536002B0704700BF0010024000000140A7
:1007E40030B589B00446214BDA6942F01002DA616F
:1007F400DB6903F010030193019B02A903A800F035
:100804004BFD069BCBB900F027FD0346184AA2FB1B
:1008140003239B0C013B1748174A026040F2E7325E
:10082400C2604360002303618360836100F06CF95C
:10083400054630B1284609B030BD00F00DFD430037
:10084400E4E70C4800F01CF805460028F2D13620F5
:1008540000F04CFF0F2C01D90125EBE700222146C3
:10086400362000F033FF054B1C60E3E70010024024
:1008740083DE1B431C0600200010004044000020BF
:1008840090F83D30DBB2012B2FD1022380F83D30AC
:100894000268D36843F00103D3600368154A9342A6
:1008A40018D002F50062934214D0B3F1804F11D0F6
:1008B400A2F5983293420DD002F58062934209D09A
:1008C40002F58062934205D01A6842F001021A6070
:1008D400002070479A6802F00702062A07D01A68B7
:1008E40042F001021A600020704701207047002086
:1008F400704700BF002C0140704770477047704735
:1009040070B504460368DE681D6915F0020F10D047
:1009140016F0020F0DD06FF002021A610123037763
:1009240003689B6913F0030F5ED0FFF7E6FF002313
:10093400237715F0040F12D016F0040F0FD023689C
:100944006FF004021A610223237723689B6913F46E
:10095400407F4FD02046FFF7D0FF0023237715F0C8
:10096400080F12D016F0080F0FD023686FF008029A
:100974001A61042323772368DB6913F0030F40D043
:100984002046FFF7BAFF0023237715F0100F12D08B
:1009940016F0100F0FD023686FF010021A610823AD
:1009A40023772368DB6913F4407F31D02046FFF7B7
:1009B400A4FF0023237715F0010F02D016F0010FD6
:1009C4002DD115F0800F02D016F0800F2FD115F025
:1009D400400F02D016F0400F31D115F0200F02D095
:1009E40016F0200F33D170BDFFF786FF2046FFF7C6
:1009F40085FF9CE72046FFF77FFF2046FFF77EFF39
:100A0400ABE72046FFF778FF2046FFF777FFBAE70A
:100A14002046FFF771FF2046FFF770FFC9E7236800
:100A24006FF001021A612046FFF7A4FCC9E72368AE
:100A34006FF080021A61204600F0D1F8C7E72368FE
:100A44006FF040021A612046FFF759FFC5E723689B
:100A54006FF020021A61204600F0C0F8C3E70000DE
:100A64000368284A904212D002F5006290420ED0E8
:100A7400B0F1804F0BD0A2F59832904207D002F526
:100A84008062904203D002F58062904203D123F049
:100A940070034A6813431B4A904212D002F5006265
:100AA40090420ED0B0F1804F0BD0A2F59832904214
:100AB40007D002F58062904203D002F58062904232
:100AC40003D123F44073CA68134323F080034A69B3
:100AD400134303608B68C3620B688362094B9842BB
:100AE40003D003F50063984201D10B69036301232A
:100AF4004361036913F0010F03D0036923F0010379
:100B040003617047002C014040B310B5044690F8CF
:100B14003D30F3B1022384F83D30214651F8040BF3
:100B2400FFF79EFF012384F8463084F83E3084F8B2
:100B34003F3084F8403084F8413084F8423084F8FF
:100B4400433084F8443084F8453084F83D30002044
:100B540010BD80F83C30FFF71FFDDBE70120704734
:100B640090F83C20012A34D010B40346012280F8C6
:100B74003C20022280F83D2002685068946820F0EE
:100B8400700C086840EA0C0050601A6812488242EF
:100B940012D000F5006082420ED0B2F1804F0BD02B
:100BA400A0F59830824207D000F58060824203D0DD
:100BB40000F58060824204D124F080044968214316
:100BC4009160012283F83D20002083F83C0010BC92
:100BD40070470220704700BF002C014070477047E7
:100BE40008B5074A136843F010031360032000F0AC
:100BF4005BFD0F20FFF7F4FDFFF7D0FD002008BDDB
:100C040000200240034A1168034B1B780B44136015
:100C1400704700BF6406002040000020014B1868A4
:100C2400704700BF6406002038B50446FFF7F6FF9E
:100C34000546B4F1FF3F02D0044B1B781C44FFF778
:100C4400EDFF401BA042FAD338BD00BF4000002096
:100C540082B0084B1B68084AA2FB03235B0A00FB13
:100C640003F3019300BF019B5A1E0192002BF9D19B
:100C740002B0704748000020D34D6210002800F0F5
:100C8400F18170B582B00446036813F0010F2CD0D3
:100C9400994B5B6803F00C03042B1DD0964B5B68E7
:100CA40003F00C03082B12D06368B3F5803F41D0E6
:100CB400002B55D103F1804303F504331A6822F461
:100CC40080321A601A6822F480221A6037E08A4B54
:100CD4005B6813F4803FE7D0874B1B6813F4003F35
:100CE40003D06368002B00F0BF81236813F0020F68
:100CF40075D0814B5B6813F00C0F5FD07E4B5B6843
:100D040003F00C03082B54D02369002B00F08A80D5
:100D14007A4B01221A60FFF781FF0546764B1B6868
:100D240013F0020F75D1FFF779FF401B0228F5D9A4
:100D340003209EE1704A136843F4803313606368B0
:100D440043B3FFF76BFF05466B4B1B6813F4003F7F
:100D5400CBD1FFF763FF401B6428F5D9032088E15A
:100D6400B3F5A02F09D0644B1A6822F480321A60BC
:100D74001A6822F480221A60E1E703F18043A3F5A4
:100D84003C331A6842F480221A601A6842F48032B2
:100D94001A60D4E7FFF742FF0546574B1B6813F46C
:100DA400003FA2D0FFF73AFF401B6428F5D9032087
:100DB4005FE1514B5B6813F4803FA5D14E4B1B6838
:100DC40013F0020F03D02369012B40F04F814A4AEC
:100DD400136823F0F803616943EAC10313602368CD
:100DE40013F0080F33D0A369002B5CD0434B0122CE
:100DF400C3F88024FFF712FF05463F4B5B6A13F0EC
:100E0400020F21D1FFF70AFF401B0228F5D9032066
:100E14002FE1394A136823F0F803616943EAC103F7
:100E24001360DCE7354B00221A60FFF7F7FE054636
:100E3400314B1B6813F0020FD1D0FFF7EFFE401BBC
:100E44000228F5D9032014E10120FFF701FF2368EC
:100E540013F0040F00F09680274BDB6913F0805FDA
:100E640034D1254BDA6942F08052DA61DB6903F050
:100E740080530193019B0125214B1B6813F4807F50
:100E840026D0E368012B3DD0002B53D103F18043DE
:100E940003F504331A6A22F001021A621A6A22F074
:100EA40004021A6233E0154B0022C3F88024FFF7D2
:100EB400B5FE0546104B5B6A13F0020FC7D0FFF76F
:100EC400ADFE401B0228F5D90320D2E00025D3E76C
:100ED4000B4A136843F480731360FFF79FFE0646C2
:100EE400074B1B6813F4807FCBD1FFF797FE801B61
:100EF4006428F5D90320BCE00010024000004242FF
:100F0400007000405F4A136A43F001031362E36810
:100F140033B3FFF783FE06465A4B1B6A13F0020FE6
:100F24002FD1FFF77BFE801B41F288339842F3D91F
:100F340003209EE0052B09D0524B1A6A22F00102CD
:100F44001A621A6A22F004021A62E0E74D4B1A6A26
:100F540042F004021A621A6A42F001021A62D6E7E7
:100F6400FFF75CFE0646474B1B6A13F0020F08D0DE
:100F7400FFF754FE801B41F288339842F3D90320D3
:100F840077E0E5B9E369002B72D03E4A526802F07B
:100F94000C02082A56D0022B17D03B4B00221A66AB
:100FA400FFF73CFE0446374B1B6813F0007F47D025
:100FB400FFF734FE001B0228F5D9032059E0314A1B
:100FC400D36923F08053D361DCE72F4B00221A66E8
:100FD400FFF724FE05462B4B1B6813F0007F06D059
:100FE400FFF71CFE401B0228F5D9032041E0236AC9
:100FF400B3F5803F1AD023494B6823F47413226A53
:10100400606A024313434B601F4B01221A66FFF7C9
:1010140005FE04461B4B1B6813F0007F0ED1FFF73F
:10102400FDFD001B0228F5D9032022E0154A536870
:1010340023F40033A1680B435360DCE7002018E07D
:10104400002016E0012B16D00E4B5B6803F48031B0
:10105400226A914211D103F47013626A93420ED151
:10106400002006E001207047012002E0012000E09A
:10107400002002B070BD0120FBE70120F9E7012048
:10108400F7E700BF00100240000042420F4B5B68CC
:1010940003F00C02082A01D00D487047C3F38342C1
:1010A4000C49885C13F4803F0BD0084B5B68C3F396
:1010B4004043094AD35C064A02FB00F0B0FBF3F05C
:1010C4007047064B03FB00F0704700BF001002405E
:1010D40000127A00744D0008704D000800093D00AC
:1010E400002800F0A08070B50D460446524B1B68E2
:1010F40003F007038B420BD24F4A136823F0070314
:101104000B431360136803F007038B4240F08D8098
:10111400236813F0020F17D013F0040F04D0474ACA
:10112400536843F4E0635360236813F0080F04D05A
:10113400424A536843F460535360404A536823F06F
:10114400F003A1680B435360236813F0010F31D0FF
:101154006368012B20D0022B25D0384A126812F084
:10116400020F64D035494A6822F0030213434B60EE
:10117400FFF754FD0646314B5B6803F00C036268CD
:10118400B3EB820F16D0FFF749FD801B41F2883381
:101194009842F0D9032045E0284A126812F4003F2F
:1011A400E0D101203EE0254A126812F0007FD9D137
:1011B400012037E0204B1B6803F00703AB420AD938
:1011C4001D4A136823F007032B431360136803F0CD
:1011D4000703AB422DD1236813F0040F06D0174A3E
:1011E400536823F4E063E1680B435360236813F00E
:1011F400080F07D0114A536823F46053216943EA66
:10120400C1035360FFF742FF0C4B5B68C3F3031346
:101214000B4AD35CD8400B4B18600B4B1868FFF794
:10122400DFFA002070BD012070470120FAE7012099
:10123400F8E70120F6E700BF00200240001002405A
:101244008C4D00084800002044000020014B186821
:10125400704700BF4800002008B5FFF7F7FF044BB4
:101264005B68C3F30223034AD35CD84008BD00BFC4
:1012740000100240844D000808B5FFF7E7FF044B57
:101284005B68C3F3C223034AD35CD84008BD00BFE4
:1012940000100240844D00080F2303600B4B5A6872
:1012A40002F0030242605A6802F0F00282605A6857
:1012B40002F4E062C2605B68DB0803F4E06303618C
:1012C400034B1B6803F007030B60704700100240D8
:1012D4000020024070B582B00446036813F0010F89
:1012E40036D03F4BDB6913F0805F49D13C4BDA6960
:1012F40042F08052DA61DB6903F080530193019B71
:101304000125384B1B6813F4807F3BD0344B1B6A98
:1013140013F4407313D0626802F440729A420ED000
:101324002F4A136A23F440702F490126C1F8406400
:101334000026C1F84064106213F0010F36D1284A28
:10134400136A23F4407361680B431362002D3ED18A
:10135400236813F0020F06D0214A536823F4404354
:10136400A1680B435360236813F0100F34D01C4A58
:10137400536823F4800361690B43536000202CE01D
:101384000025BEE7174A136843F480731360FFF720
:1013940045FC0646134B1B6813F4807FB6D1FFF758
:1013A4003DFC801B6428F5D9032016E0FFF736FCCA
:1013B40006460B4B1B6A13F0020FC0D1FFF72EFC3D
:1013C400801B41F288339842F3D9032005E0D369A6
:1013D40023F08053D361BBE7002002B070BD00BF8F
:1013E40000100240007000400000424270B582B01C
:1013F4000024A446ABE0854DAB4214D00CD8A5F52F
:101404008015AB420FD005F57025AB420BD0A5F586
:101414008015AB4210D106E07D4DAB4203D005F5FB
:101424008035AB4208D18B68002B5AD0012B53D0A6
:101434004261082400E0CC68BEF1FF0F53D8064691
:101444004FEA8C0233680F25954023EA050304FA1A
:1014540002F2134333604B6813F0805F75D06D4B19
:101464009A6942F001029A619B6903F001030193B6
:10147400019B4FEA9C02951C674B53F825600CF0C6
:101484000305AD000F23AB4026EA0306634B9842E5
:1014940030D003F58063984200F0968003F58063B2
:1014A400984200F0938003F58063984200F09080A6
:1014B40003F58063984200F08D8003F580639842C1
:1014C40016D0062317E0CC680434B5E7CC6808349A
:1014D400B2E7CC680C34AFE702610824ACE700241F
:1014E400AAE70424A8E7061DACF108029200A9E7C4
:1014F400052300E00023AB4033430232464D45F858
:1015040022304B6813F4801F66D0454A936843EA3F
:101514000E0393604B6813F4001F63D0404AD368F2
:1015240043EA0E03D3604B6813F4003F60D03C4A97
:10153400536843EA0E0353604B6813F4803F5DD055
:10154400374A136843EA0E0313600CF1010C0B686D
:1015540033FA0CF258D0012202FA0CF203EA020E1A
:1015640032EA0303F1D14B68122B3FF644AF122B3E
:101574003FF662AF01A555F823F000BF2B14000815
:101584003B140008D1140008E31400083D140008BB
:101594003D1400083D1400083D1400083D140008E3
:1015A4003D1400083D1400083D1400083D140008D3
:1015B4003D1400083D1400083D1400083D140008C3
:1015C400CB140008D7140008012394E7022392E700
:1015D400032390E704238EE7114A936823EA0E035A
:1015E400936097E70E4AD36823EA0E03D3609AE721
:1015F4000B4A536823EA0E0353609DE7084A1368B5
:1016040023EA0E031360A0E702B070BD00002210AD
:1016140000003110001002400000014000080140A9
:10162400000401408368194201D001207047002062
:1016340070470AB1016170470904016170470000F5
:10164400002808DB0901C9B200F1604000F56140DF
:1016540080F80013704700F00F000901C9B2014B74
:101664001954704714ED00E000B500F00700C0F114
:10167400070CBCF1040F28BF4FF0040C031D062B0C
:101684000FD9C31E4FF0FF3E0EFA0CF021EA000101
:1016940099400EFA03FE22EA0E0241EA02005DF8C6
:1016A40004FB0023EEE70000074AD36823F4E06359
:1016B4001B041B0C000200F4E060034343F0BF630F
:1016C40043F40033D360704700ED00E010B50446E6
:1016D400054BD868C0F30220FFF7C6FF0146204639
:1016E400FFF7AEFF10BD00BF00ED00E0002807DBF0
:1016F40000F01F02400901239340024A42F82030BF
:10170400704700BF00E100E0026802F10C0353E8F7
:10171400003F23F490730C3242E800310029F3D1E6
:10172400026802F1140353E8003F23F0010314326A
:1017340042E800310029F3D1036B012B05D02023AB
:1017440080F84230002303637047026802F10C03FF
:1017540053E8003F23F010030C3242E80031002923
:10176400F3D1ECE710B504460268136923F440533F
:10177400C1680B43136183680269134342691A43C6
:101784000168CB6823F4B05323F00C031343CB60FC
:101794000268536923F4407381690B4353610268FF
:1017A400134B9A4220D0FFF757FD024602EB820208
:1017B40002EB820263689B00B2FBF3F20D48A0FBCC
:1017C40002314909642303FB11231B013233A0FBBB
:1017D40003035B0903F0F00202EB011203F00F03B1
:1017E400216813448B6010BDFFF746FD0246DDE718
:1017F400003801401F85EB512DE9F04383B00546C5
:101804000E4617469946DDF828802B681C6836EA90
:1018140004040CBF01240024BC4228D1B8F1FF3FCA
:10182400F3D0FFF7FBF9A0EB0900404523D8B8F14A
:10183400000F22D02B68DA6812F0040FE5D0802E56
:10184400E3D0402EE1D01A6812F0080FDDD0002456
:1018540001941A6801925B680193019B2846FFF783
:1018640053FF08236B6485F84040012000E000200A
:1018740003B0BDE8F0830320FAE70320F8E760B380
:1018840010B5044690F8413013B3242384F8413052
:101894002268D36823F40053D3602046FFF762FF25
:1018A4002268136923F4904313612268536923F077
:1018B4002A0353612268D36843F40053D3600020A1
:1018C4006064202384F8413084F84230606310BDA2
:1018D40080F84030FEF79AFED7E7012070472DE9E3
:1018E400F04182B01E4690F84130DBB2202B56D135
:1018F40004460D469046002955D00AB901204FE010
:1019040000234364212380F84130FFF787F9074619
:10191400A4F82480A4F82680A368B3F5805F02D0DD
:101924004FF0000814E023692BB34FF000080FE0D8
:10193400202384F84130032032E038F8023B226847
:10194400C3F308035360E28C92B2013A92B2E28488
:10195400E38C9BB293B100963B4600228021204643
:10196400FFF74AFF0028E3D1002DE6D015F8012B3C
:1019740023685A60E7E7A8460025E9E700963B4656
:10198400002240212046FFF737FF18B9202384F8AE
:10199400413005E0202384F84130032000E0022098
:1019A40002B0BDE8F0810120FAE7704710B50346A4
:1019B4000C4A0D490D48006840B10C4800680344C6
:1019C400521A934206D8094A136010BD0748084CBE
:1019D4000460F2E702F078FC0C2303604FF0FF3060
:1019E400F3E700BF000001200004000068060020A7
:1019F4009809002070B50C461646002506E0AFF3A2
:101A04000080214601F8010B01350C46B542F6DB96
:101A1400304670BD70B50C461646002504E014F837
:101A2400010BFEF72FFE0135B542F8DB304670BDE1
:101A34004FF0FF3070474FF400534B600020704765
:101A4400012070470020704710B480EA010313F0AE
:101A5400030F19D0034630E011F8014B03F8014B92
:101A6400013A13F0030F01D0002AF5D10F2A12D93D
:101A74000C681C604C685C608C689C60CC68DC60A2
:101A8400103A10311033F1E70346EAE751F8044BFA
:101A940043F8044B043A032AF8D804E011F8012B64
:101AA40003F8012B2246541E002AF7D110BC7047BC
:101AB40011F8014B03F8014B013A12B111F0030F75
:101AC400F6D10F2A42D90C681C704FEA142C83F803
:101AD40001C04FEA144C83F802C0240EDC704C6839
:101AE4001C714FEA142C83F805C04FEA144C83F898
:101AF40006C0240EDC718C681C724FEA142C83F827
:101B040009C04FEA144C83F80AC0240EDC72CC6876
:101B14001C734FEA142C83F80DC04FEA144C83F85D
:101B24000EC0240EDC731033103A1031C9E751F89B
:101B3400044B1C704FEA142C83F801C04FEA144C78
:101B440083F802C0240EDC700433043A032AEED86E
:101B540004E011F8012B03F8012B2246541E002A3D
:101B6400F7D1A3E7C0EB0020044B03EB800393F809
:101B74001C02003818BF0120704700BF1801002064
:101B840070B50C7804F00304012C25D0022C28D164
:101B94004FF0000E2CE00134E4B2C0EB002C224DD7
:101BA40005EB8C0C9CF87452A54217D9C0EB002CA1
:101BB400A4440CF1880C1C4D05EB8C056D68002DBC
:101BC400E9D02E68002EE6D095F818C08D88EDB2C5
:101BD400AC45E0D1B04726E00024DEE74FF0FF300B
:101BE40021E04FF0FF301EE00EF1010E5FFA8EFE91
:101BF400C0EB002C0C4C04EB8C0C9CF87442744528
:101C04000FD9C0EB002CF4440CF1880C064C04EB07
:101C14008C046468002CE7D06468002CE4D0A047EE
:101C240001E04FF0FF3070BD180100202DE9F843AA
:101C340005460E4617469846C0EB0022494B03EB77
:101C440082039B695A69002A37D0487811798842FF
:101C540008D0DB69002B78D071781A78914244D08F
:101C6400002450E0B388042B04D0052B12D04FF08D
:101C7400FF336EE092681378517803EB0123917877
:101C840003EB0143D17803EB01633A60C8F80030F9
:101C940000235EE0D368728853F8222013785178C9
:101CA40003EB0123917803EB0143D17803EB016348
:101CB4003A60C8F8003000234BE09A69002AC8D083
:101CC400487891798842C4D1B388072B44D11368EA
:101CD4003B60C5EB0525234B03EB85039B699B699F
:101CE4009B88C8F80030002333E0B288022A36D13A
:101CF400D3F80520D3F801303B60C8F80020002356
:101D040027E00134E4B2C5EB0522164B03EB820352
:101D140093F87432A3421AD9C5EB052CA4440CF1F0
:101D2400880C104B03EB8C035B68002BE9D0D3F8D1
:101D34000890B9F1000FE4D043463A4631462846AC
:101D4400C84703460028DCD103E00024DBE74FF05A
:101D5400FF331846BDE8F8834FF0FF33F9E74FF03F
:101D6400FF33F6E7180100202DE9F04105460F4640
:101D74001646002408E02BB1DB681BB13246394615
:101D8400284698470134E4B2C5EB0522114B03EB16
:101D9400820393F87432A34219D9C5EB0523234473
:101DA40088330C4A02EB83035B68002EE3D0002BDC
:101DB400E8D0D3F80C80B8F1000FE3D0B2781B7EE2
:101DC4009A42DFD1324639462846C047DAE7BDE8B1
:101DD400F08100BF1801002010B582B00446094804
:101DE40002F028F8A388E28801920093638862785D
:101DF4002178054802F01EF8044802F01BF802B0EE
:101E040010BD00BF9C4D0008B04D0008104E0008E6
:101E140010B58B7891F90220002A27DBB1F804C0B1
:101E240003F07F03CCF30A0C224C03EB4303C0EB17
:101E34000022920002EB83032344A3F83AC3B1F8CF
:101E440004C08B7803F07F03CCF3C12C03EB430372
:101E5400C0EB0022920002EB83031C4484F839C3D4
:101E640000F072FFB0FA80F0400910BDB1F804C070
:101E740003F07F03CCF30A0C0E4C03EB4303C0EBDB
:101E84000022920002EB83032344A3F87AC2B1F840
:101E940004C08B7803F07F03CCF3C12C03EB430322
:101EA400C0EB0022920002EB83031C4484F879C245
:101EB400D6E700BF180100202DE9F84F8146884677
:101EC40093461D4BC0EB002203EB820292695268D9
:101ED400C0EB002103EB810393F8230290470446EF
:101EE40000252E462846FF27BA4607E094F803A0AB
:101EF40023781D441C44AE4200D8DEB92378CBB10C
:101F04006378042BF2D0052B0BD0022BF0D1677928
:101F1400B845EDD1A678E37846EA032600250120EA
:101F2400E6E74745E4D1DA45E2D121464846FFF7E2
:101F34006FFFDDE7BDE8F88F1801002008B594466F
:101F4400C0EB0023254901EB83018A6862448A605F
:101F5400CB68A3EB0C03CB601BBBC0EB00221F4B75
:101F640003EB82031B7D03BBC0EB00221B4B03EB83
:101F74008203DB882BB11346184A12F92330002B55
:101F84001DDBC0EB0022154B03EB820393F81E32DA
:101F9400032B09D1114B03EB8203002283F81E2289
:101FA40002E0802101F098F908BD0C4B03EB820399
:101FB40000221A751346802101F08EF9F4E7C0EB74
:101FC4000022064B03EB8203042283F81E22002323
:101FD4001A46194601F0D2F9E6E700BF18010020BD
:101FE4002DE9F8430446164698464FEA1129CDB226
:101FF40009F1FF330E2B00F2E080DFE813F00F004D
:1020040025005200DE00DE001701B900DE00DE000C
:10201400DE00DE00DE00DE00DE00D20000F092FE14
:10202400834BC4EB042203EB820282F823029369FC
:102034001B68002B00F0CB8098470746002800F06F
:10204400CA8003780124BBE0C0EB0022784B03EB89
:1020540082039B695968002900F0C080744B03EB2C
:10206400820393F8230288470746002800F0BA80C9
:102074008378C27843EA0223C079C0F380106C4AA3
:10208400C4EB042102EB810181F81F02F979C1F349
:102094004011C4EB042402EB840282F820120124D0
:1020A4008EE0EE2D2BD0C0EB0022614B03EB8203BC
:1020B4009B691A69002A00F09B80C0EB00245C4BEA
:1020C40003EB8403294693F823029047074600282C
:1020D40000F0928005B3FEF783F880B200F1010CA2
:1020E4004FEA4C0C1FFA8CFCBCF5007F24D83368F3
:1020F40083F800C0336803225A70002332E0C0EB37
:1021040000244B4B03EB84039B695F69002F6CD065
:102114003F683B78012453E032680423137032682B
:102124000321517032680178917032684178D1701E
:10213400C8F80030012447E03E4801F07BFE3E48E9
:1021440001F0E0FE3D4801F075FE00243CE03468F7
:102154005A00911CFD5C65543168033200248C5490
:1021640001339BB28342F2D3C8F800C001242BE0B0
:10217400C0EB00222E4B03EB82039B69DA68002A32
:102184003DD0C0EB00242A4B03EB840393F82302D5
:1021940090470746B8B38378C27843EA0223012400
:1021A4000EE0C0EB0024224B03EB84039B691B6A03
:1021B40063B31F685B68012402E000273B463C468A
:1021C40044B33760C8F800302046BDE8F8830027E0
:1021D4003B463C46F4E700231C46F1E700273B4618
:1021E4003C46EDE700231C46EAE700231C46E7E7EC
:1021F40000273B463C46E3E700231C46E0E7002774
:102204003B463C46DCE700231C46D9E71F46002337
:102214001C46D5E7074801F00DFE2A464946084802
:1022240001F008FE054801F005FECDE70024CBE7E8
:10223400180100209C4D0008184E0008104E00089C
:10224400304E00082DE9F84304461F464E8848786E
:10225400092800F2AC80DFE800F00529AA29AA5574
:1022640064AA6B77136800211970C4EB0421524BE4
:1022740003EB810393F81F3223B111680B7843F009
:1022840001030B70C4EB04244B4B03EB840494F85C
:10229400213223B111680B7843F002030B701368E9
:1022A40000225A7002233B60012581E0012E03D0F5
:1022B40000233B6001257BE0032811D03E4BC4EB97
:1022C400042203EB8202002182F82112C4EB0422CF
:1022D40003EB8203D3F8F8330A2120469847E7E753
:1022E400354BC4EB042203EB8202012182F8211254
:1022F400C4EB042203EB8203D3F8F833092120460C
:102304009847D5E7F1B2C4EB04222B4B03EB8203CD
:1023140083F81D12204600F005FD00233B600125D3
:1023240046E03B4631462046FFF75AFE05463FE06D
:102334001268C4EB0424204B03EB840494F81C328D
:10234400137001253D6033E016F0FF0F0BD1C4EB91
:102354000424194B03EB8403002283F81C22012577
:1023640000233B6024E0F6B2002231462046FFF70A
:10237400A3FD05460028F3D0DFF83C804FEA04298A
:10238400C4EB042308EB830383F81C62002283F864
:10239400222207212046FFF7E7FCA9EB040908EBFA
:1023A4008908D8F8F833072120469847D8E700254C
:1023B4002846BDE8F88300BF1801002008B58978D5
:1023C40000F08EFEB0FA80F0400908BD2DE9F04F10
:1023D40083B0814688469246274BC0EB002203EB2C
:1023E400820292695268C0EB002103EB810393F8E7
:1023F40023029047044600252E460095FF27BB463E
:1024040001950AE094F803B0A778B84514D023786E
:102414001D441C44AE4200D82EBB23781BB3637802
:10242400042BEFD0052B0BD0022BF0D1A678E37848
:1024340046EA03260025EAE7DA45E8D10194E6E70F
:102444004745E4D1BAF1000F07D0D345DFD1214687
:102454004846FFF7DDFC0090D9E721464846FFF7E0
:10246400ADFF0090D3E7019A08214846FFF77CFCB2
:10247400009803B0BDE8F08F180100202DE9F84F53
:1024840004460E4691469846B1F802A08F88C0EBE8
:102494000023544901EB83018B695B6891F82302A3
:1024A400984705462046FFF75DFB8346002800F069
:1024B40092804FEA1A2AFFB273780B2B00F28980BC
:1024C400DFE803F006878787878711878787647328
:1024D400D9F8002000231370D9F800205370022388
:1024E400C8F8003077E0BAF1210F24D0BAF1220FF6
:1024F40047D04FF0000B6EE0A878EA7840EA02205B
:1025040000221A441D44904201D8002866D12B7839
:10251400ABB16978042904D0212904D00229F0D16F
:10252400EAE7AC78EDE7BC42EBD1C9F800502B7870
:10253400C8F800304FE0FF2400221046E7E74FF0D0
:10254400000B48E00132D2B2C4EB0421254B03EB6B
:10255400810393F87432934215D9C4EB04231344D2
:102564008833204901EB83035B68002BEAD0197E92
:10257400B942E7D11A69C9F800205B69C8F800308C
:1025840029E00022E0E74FF0000B24E0D9F8002016
:10259400C4EB0424134B03EB84033B4493F86432ED
:1025A40013700123C8F8003015E07288C4EB0421CD
:1025B4000C4B03EB81033B4483F86422B18872889B
:1025C400D2B2C9B22046FFF701FF0023C8F8003099
:1025D40001E04FF0000B5846BDE8F88F4FF0000BB8
:1025E400F9E700BF180100202DE9F04383B08046CD
:1025F4000C4617461D468988CEB2FFF7B3FA8146CA
:10260400B8B16378012B1CD0032B2FD0002B43D1FE
:102614000DF107023146404600F03CFE9DF80730BC
:102624005BB13B6801221A703B6800225A70022396
:102634002B60484603B0BDE8F0833B6800221A7063
:10264400F2E763881BB100232B609946F1E7144835
:1026540001F0F0FB3146134801F0ECFB124801F0A5
:10266400E9FB3146404600F0B7FDE2E7638823B159
:102674004FF0000900232B60DBE7094801F0DAFB87
:1026840031460A4801F0D6FB074801F0D3FB314636
:10269400404600F075FDEDE74FF00009C9E700BFC3
:1026A4009C4D00085C4E0008104E0008744E000853
:1026B40010B50C7804F00304012C07D0022C0AD0C6
:1026C40074B9FFF7BFFD70B100200BE0FFF7D6FE31
:1026D40060B1002006E0FFF787FF50B1002001E061
:1026E4004FF0FF3010BD4FF0FF30FBE74FF0FF30ED
:1026F400F8E74FF0FF30F5E738B50D460C7804F0F5
:102704006004202C1ED0402C30D0002C42D1FFF786
:10271400CFFF002801DB01203DE06B78062B03D1BD
:102724006B88B3F5C06F37D01C4801F083FB1C489D
:1027340001F0E8FB1B4801F07DFB2846FFF74CFB4A
:10274400002028E0FFF71CFA002801DB012022E02A
:10275400124801F06FFB144801F0D4FB114801F05A
:1027640069FB2846FFF738FB002014E0FFF75EFA08
:10277400002801DB01200EE0084801F05BFB0B4858
:1027840001F0C0FB074801F055FB2846FFF724FB86
:10279400002000E0002038BD0020FCE79C4D00082C
:1027A400884E0008104E0008A04E0008B84E0008DD
:1027B40070B582B004460D46CB88B3F5007F03D9CB
:1027C40091F90030002B61DAC4EB04229200183234
:1027D400534B1A440432C4EB042103EB81039A6083
:1027E400E988D960E9881961002119750192EB889B
:1027F4001BB195F900308B4256DAC4EB04239B00DD
:102804001033474A134401AA29462046FFF774FFB0
:10281400002858D0EA88C4EB0421414B03EB810320
:1028240019698A4228BF0A46DA60B2F5007F57D890
:10283400C4EB04213A4B03EB810398680199884265
:1028440001D0FFF701F9C4EB0422354B03EB8203FB
:10285400DB68002B5AD01146314A02EB8102012178
:1028640082F81E12C4EB04222D4E06EB8206B268D7
:102874008021204600F030FDEA8833699A4220D94D
:1028840013F03F0F1DD1012232751AE0254801F0E3
:10289400D1FA254801F036FB244801F0CBFA802117
:1028A400204600F06DFC0CE0C4EB04211C4B03EB50
:1028B4008103022183F81E12EB880021204600F0D8
:1028C4005DFD02B070BDC4EB0422154B03EB820323
:1028D400002283F81E228021204600F051FCF0E7FC
:1028E400104801F0A7FA104801F00CFB0F4801F062
:1028F400A1FAC4EB04220A4B03EB8203002283F8FF
:102904001E228021204600F03BFCDAE7C4EB0421C0
:10291400034A02EB8102032182F81E12A2E700BFE0
:10292400180100209C4D0008D04E0008104E0008ED
:1029340010B50446C0EB0023264901EB8301002AAD
:102944003FD094468A6862448A60CB68A3EB0C0348
:10295400CB608BBBC4EB04239B0018331D4803449A
:1029640004338B60C4EB04239B001033C4EB0422B8
:1029740092000832034402442046FFF7BDFE70B1C2
:10298400C4EB0422134B03EB8203032283F81E22BD
:1029940000231A468021204600F09EFC19E0C4EB77
:1029A40004220C4B03EB8203002283F81E228021B5
:1029B400204600F0E5FB0CE00021204600F0DEFCA0
:1029C40007E0C0EB0024034B03EB8403002283F8ED
:1029D4001E2210BD1801002030B583B0044600212A
:1029E40000F0A0F9C4EB04222A4B03EB820300227B
:1029F40083F81D2283F81C2283F81E2283F82322E5
:102A04009B691B686BB300209847C379ADF8043009
:102A140007238DF8003005238DF8013000258DF84B
:102A2400035080238DF802308DF806506946204605
:102A340000F08AF98DF802506946204600F084F9C6
:102A44002A4601212046FFF78FF9C4EB0422114BDB
:102A540003EB8203D3F8F83301212046984703B0EF
:102A640030BD0D4D284601F0E5F94FF479730B4A5A
:102A74000B490C4801F0DEF90B4C204601F0DAF961
:102A8400284601F0D7F9094801F03CFA204601F044
:102A9400D1F9FEE7180100209C4D0008EC4E000817
:102AA4000C4F0008504F0008104E00086C4F0008EF
:102AB40038B50446C0EB0023054D05EB8305082219
:102AC4002846FEF7C1FF29462046FFF771FE38BDB0
:102AD4001801002010B501F07F0303EB430CC0EB99
:102AE40000239B0003EB8C03034C2344D3F8803274
:102AF40003B1984710BD00BF1801002010B501F0C4
:102B04007F0303EB430CC0EB00239B0003EB8C031C
:102B1400034C2344D3F8403303B1984710BD00BF9E
:102B2400180100202DE9F0418846C0EB00240D4E29
:102B340006EB84044FF47F720021204601F076FBFB
:102B4400C4F81880002384F87432802284F8782230
:102B5400054AC4F8802284F83833044BC4F840335F
:102B6400BDE8F08118010020411F00083529000844
:102B740010B591F800C091F90030002B16DB0CF071
:102B84007F02164C02EB420EC0EB00239B0003EBCA
:102B94008E03234483F838C34B68C0EB00208000C5
:102BA40000EB8E000444C4F8403310BD0CF07F02E7
:102BB4000A4C02EB420EC0EB00239B0003EB8E0396
:102BC400234483F878C24B68C0EB0020800000EBFC
:102BD4008E000444C4F88032E7E700BF18010020E7
:102BE400C0EB0020044B03EB800393F81C02003875
:102BF40018BF0120704700BF1801002070B5C0B194
:102C04001A4D284601F016F940F24253184A194960
:102C1400194801F00FF9194C204601F00BF9284628
:102C240001F008F9164801F06DF9204601F002F9A7
:102C3400FEE70446134B03EBC0035960124D060232
:102C4400C0EB002305EB8303C3F8F82300220B2118
:102C5400FFF78AF8361B05EB8605D5F8F8330B2108
:102C640020469847204600F03DF870BD9C4D000872
:102C7400EC4E0008944F0008504F0008104E000816
:102C8400B44F00086C0600201801002001335B08D3
:102C940000EB420000F5806008E00A7891F801C07A
:102CA40042EA0C2220F8042B0231013B002BF4D120
:102CB400704710B45C0800EB420000F5806007E048
:102CC40030F8042B0A70C2F307224A700231013C27
:102CD400002CF5D113F0010F01D003880B7010BC48
:102CE4007047000008B500F005FE0D4B5B6801223B
:102CF400A3F840200020A3F84000A3F84400A3F860
:102D040050004FF43D42A3F84020B3F858206FEA36
:102D140042426FEA524292B2A3F8582008BD00BF63
:102D24006C0600200A4621B9044B5B688021A3F895
:102D34004C10034B1A720020704700BF6C06002031
:102D4400740600200220704770B50C468A7812F091
:102D5400780F0DD102F07F03CA7802F00302012A32
:102D64001FD0032A00F2B581DFE802F033CED1CBC5
:102D7400C24E304601F05EF88C23C14AC149C248B4
:102D840001F058F8C14D284601F054F8304601F0DE
:102D940051F8A178BE4801F04DF8284601F04AF8F0
:102DA400FEE7B64D284601F045F88D23B44AB949EB
:102DB400B54801F03FF8B54C204601F03BF82846F1
:102DC40001F038F8B44801F09DF8204601F032F8DB
:102DD400FEE74FF40070B1494D6835F8232092B2F4
:102DE40022F4EC4222F07002024348F280000243D3
:102DF40025F82320496831F8232092B222F4E042D6
:102E040022F070021A43024321F8232094F902208D
:102E1400002AC0F2B280A188C1F30A0103EB430087
:102E24009F4A02EBC002A2F8D010E07800F0030041
:102E340082F8D200012082F8D400B2F8D620914260
:102E44002AD9974AD2680A44B2F5007F61D8A0888B
:102E5400C0F30A00924A03EB430102EBC101A1F85B
:102E6400D600D06803EB430102EBC101A1F8D800FE
:102E74008A494968B1F8500080B2014401EB03115A
:102E8400D06820F0010080B2A1F80804D168A088BD
:102E9400C0F30A000144D160804A5268B2F850106D
:102EA40089B20A4402EB0312A188C1F30A00002884
:102EB40048D1B2F80C1489B221F4F84189B2A2F8CD
:102EC4000C14B2F80C146FEA41416FEA514189B213
:102ED400A2F80C14714A516831F8232012F4804F7F
:102EE40000F0FA8031F8232092B222F4E04222F07A
:102EF400700242F4404242F0800221F82320002074
:102F040070BD4FF4C06066E74FF4806063E7002053
:102F140061E75A4E304600F08DFFAF23584A6149AD
:102F2400594800F087FF594D284600F083FF30468A
:102F340000F080FFA1785C4800F07CFF284600F098
:102F440079FFFEE73E280AD8C1F3490011F0010FCA
:102F540000D00130810289B2A2F80C14BAE7C1F39F
:102F6400451011F01F0F00D101386FEAC0616FEAFC
:102F7400514189B2A2F80C14ACE7A188C1F30A014B
:102F840003EB4300464A02EBC0021182E07800F0F2
:102F94000300907401201075D28A914228D9404AC6
:102FA400D2680A44B2F5007F4ED8A088C0F30A0064
:102FB4003B4A03EB430102EBC101C882D068591CB0
:102FC40001EB410122F8310034494968B1F850005D
:102FD40080B2014401EB0311D06820F0010080B2FB
:102FE400A1F80004D168A088C0F30A000144D160AC
:102FF4002A4A516831F8232012F0400F0CD031F8DE
:10300400232092B222F4E04222F0700242F4004201
:1030140042F0C00221F82320E27802F00302012AE0
:1030240046D01E4A516831F8232092B222F4E0427D
:1030340022F0400282F0200242F4004242F0800278
:1030440021F8232000205BE70C4E304600F0F2FE0E
:10305400C0230B4A15490C4800F0ECFE0B4D2846E2
:1030640000F0E8FE304600F0E5FEA1780E4800F0DE
:10307400E1FE284600F0DEFEFEE700BFC44F000874
:10308400D44F0008F84F0008504F0008104E0008B5
:1030940018500008305000087C5000086C060020CE
:1030A40074060020A0500008FC50000814510008C9
:1030B4000A4A516831F8232092B222F4E04222F005
:1030C400400242F4004242F0800221F82320002012
:1030D40016E74FF0FF3013E7002011E76C060020DD
:1030E40001F07F0211F0800F24D1244B596831F88C
:1030F400223013F4804F0CD031F822309BB223F4E9
:10310400E04323F0700343F4404343F0800321F889
:1031140022301A4B596831F822309BB223F4804391
:1031240023F0700343F4004343F0800321F822307A
:1031340000207047114B596831F8223013F0400FCA
:103144000CD031F822309BB223F4E04323F0700317
:1031540043F4004343F0C00321F82230074B59687D
:1031640031F822309BB223F4E04323F0400343F4CC
:10317400004343F0800321F82230D9E76C06002095
:1031840001F07F0211F0800F12D1124B596831F80F
:1031940022309BB223F4804323F0700383F48053E2
:1031A40043F4004343F0800321F8223000207047A9
:1031B400084B596831F822309BB223F4E04323F0E2
:1031C400400383F0100343F4004343F0800321F8E9
:1031D4002230EBE76C06002001F07F0211F0800F33
:1031E40026D12A4B596831F8223013F4804F0CD081
:1031F40031F822309BB223F4E04323F0700343F40C
:10320400404343F0800321F82230204B596831F8C1
:1032140022309BB223F4804323F0700383F44053A1
:1032240043F4004343F0800321F822300020704728
:10323400164B596831F8223013F0400F0CD031F896
:1032440022309BB223F4E04323F0700343F40043A1
:1032540043F0C00321F8223002EB42010C4B03EB94
:10326400C1039B7C012BE1D0084B596831F8223013
:103274009BB223F4E04323F0400383F0200343F4A0
:10328400004343F0800321F82230CFE76C0600208E
:103294007406002001F07F0311F0800F0DD10D4959
:1032A400496831F8233013F4805F03D0012313708D
:1032B4000020704700231370FAE70649496831F883
:1032C400233013F0100F02D001231370F0E7002312
:1032D4001370EDE76C060020F8B501F07F04114689
:1032E400002A3FD004EB4400224A02EBC002127DC4
:1032F400002A3CD0DFF87CC0621C02EB42000CEBDD
:10330400C000416004EB44000CEBC00003620025E4
:103314004562068A9E4228BF1E46174FB6B202EB8C
:10332400420233463CF832207868FFF7AFFC7A68F3
:10333400B2F850309BB21A4402EB0412A2F80464AF
:103344007A6832F824309BB223F4E04323F040033C
:1033540083F0300343F4004343F0800322F8243025
:103364002846F8BD002BBDD04FF0FF30F9E76FF0D1
:103374000100F6E7740600206C06002010B401F08A
:103384007F0114462AB301EB4100164A02EBC00246
:1033940092F8D42012B3134A02EBC000C0F8DC4008
:1033A400C0F8E03002460020C2F8E4000E4B5A6830
:1033B40032F821309BB223F4804323F0700383F46A
:1033C400405343F4004343F0800322F8213010BCFF
:1033D4007047002BD7D04FF0FF30F8E76FF00100B3
:1033E400F5E700BF740600206C0600202DE9F04FBD
:1033F40085B0C04B5B68B3F844309DB213F4004F02
:1034040040F01C8115F4806F40F0F68115F4804F74
:1034140009D0B84B5A68B2F844309BB223F48043C5
:103424009BB2A2F8443015F4005F09D0B14B5A683E
:10343400B2F844309BB223F400539BB2A2F8443058
:1034440015F4805F19D0AB4B5A68B2F840309BB288
:1034540023F004039BB2A2F84030B2F840309BB290
:1034640023F008039BB2A2F84030B2F844309BB278
:1034740023F480539BB2A2F8443015F4006F40F05B
:10348400E08115F4807F09D09A4B5A68B2F8443031
:103494009BB223F480739BB2A2F8443005B0BDE81C
:1034A400F08F33F8242092B222F4E14222F0700229
:1034B4006FEA42426FEA524292B223F824208D4BC3
:1034C4005A68B2F850309BB203EBC403023302EBE8
:1034D4004302B2F80064C6F30906874F631C03EB8A
:1034E4004301CA003A44516803EB4303DA003A4407
:1034F4003144516004EB4402D3003B441A6A921BEA
:103504001A625A6A324404EB4401CB003B445A62C7
:1035140044F080010020FFF7DDFAFB88BBB1764B55
:1035240093F90030002B18DA734B1B7A002B00F050
:103534008580002E40F082806F4A137A6D49496875
:1035440043F08003A1F84C300023137276E01A464E
:1035540019461846FFF712FFE6E700231A461946F4
:103564001846FFF70BFFDFE733F8242022F0700240
:103574001205120D42F0800223F824205D4B586896
:10358400B0F850309BB203EBC403063300EB4303A3
:10359400594E04EB4404E200324493F80034B2F888
:1035A400D8203146FFF785FB31460020FFF780FA2B
:1035B40044E033F8242097B212F4004F40F09E8088
:1035C40017F0800F3AD04B4A516831F824309BB23F
:1035D40023F4E14323F070036FEA43436FEA534358
:1035E4009BB221F824305068B0F850309BB203EB02
:1035F400C403023300EB4303B3F80024C2F309020B
:103604003D4B04F1010C0CEB4C06F10019444968E4
:103614001144F6001E44716004EB4407FE00334479
:103624001E6AB61A1E625F6A3A445A62002E40F05D
:10363400B68044F080010020FFF74CFA2D4B5B6804
:10364400B3F8442012F4004F3FF4DCAEB3F8444026
:10365400A5B214F00F04ACD115F0100F3FF421AF54
:1036640033F8242091B212F4006F7FF47DAF11F48B
:10367400004FE3D033F8242022F070021205120D1B
:1036840042F0800223F824201A4B5868B0F85030D6
:103694009BB203EBC403063300EB430393F80074BB
:1036A400DFF8548004EB4403DE0046443B46B6F89E
:1036B400D820D6F8DC10FFF7FCFAD6F8DC303B440F
:1036C400C6F8DC30D6F8E030DB1BC6F8E030D6F8BC
:1036D400E4203A44C6F8E42021460020FFF70EFA1D
:1036E400002FABD100231A4619461846FFF746FEB1
:1036F400A4E700BF6C0600207406002033F82420E1
:1037040022F070021205120D42F0800223F82420E8
:10371400764B5868B0F850309BB203EBC4030633C1
:1037240000EB430393F800841FFA88FBDFF8C0A181
:1037340004EB4403DE0056445B46B6F8D820D6F8C2
:10374400DC10FFF7B6FAD6F8DC304344C6F8DC30B8
:10375400D6F8E030A3EB0803C6F8E030D6F8E4204E
:103764004244C6F8E420B6F8D010594500D823B92D
:1037740021460020FFF7C2F922E75C4B5A6832F871
:1037840024309BB223F4804323F0700383F440532A
:1037940043F4004343F0800322F8243010E7544AF2
:1037A40004EB4407FB0013441B8A9E4228BF1E46B9
:1037B400B6B2631C03EB4303DF003346D25BFFF76F
:1037C40065FA4A494B68B3F8502092B2134403EBAC
:1037D4000413A3F804644A6832F824309BB223F437
:1037E400E04323F0400383F0300343F4004343F009
:1037F400800322F8243021E73D4C4FF4C8720021A5
:10380400204600F013FD4023E3600020FFF7E4F8B6
:10381400364A51680B889BB223F4804323F070032B
:1038240083F4405343F4004343F080030B80526815
:10383400B2F844309BB223F480639BB2A2F84430C4
:10384400E4E50023072B0BD8284A526832F82310EA
:1038540004AA02EB430222F8101C0133DBB2F1E7A5
:10386400224B5A68B2F840309BB243F00103A2F8ED
:103874004030B2F840309BB223F001039BB2A2F86F
:103884004030B2F8443013F4806FFAD0B2F84430C8
:103894009BB223F480639BB2A2F844300023072B2D
:1038A4000BD8124A526804A901EB430131F8101CE9
:1038B40022F823100133DBB2F1E70C4B5A68B2F85B
:1038C40040309BB243F00803A2F84030B2F84430D1
:1038D4009BB223F400639BB2A2F84430B2F84030A8
:1038E4009BB243F00403A2F84030CAE56C06002002
:1038F4007406002008B5044B03EBC0035B6803485F
:103904000360FCF7CFFE08BD6C060020040800200D
:1039140008B50020FFF76AFD08BD000000487047A5
:103924007452000800487047D85100080048704796
:10393400CC510008032903D8024B53F821007047E7
:1039440000207047B8510008014B00221A707047DC
:103954000808002008B5074B00221A70022900D07D
:1039640008BD4023044AFFF709FD044B01221A70E5
:10397400F6E700BF080800200C0800200908002012
:10398400072900D0704708B54023054A0221FFF7F4
:10399400F5FC044B00221A70034B01221A7008BD77
:1039A4000C080020080800200908002038B5044647
:1039B4000D462049FFF7B6F81F492046FFF7D8F80F
:1039C4001E492046FFF7D4F81D492046FFF7D0F8DA
:1039D4001C492046FFF7CCF81B492046FFF7C8F8DE
:1039E4001A492046FFF7C4F819492046FFF7C0F8E2
:1039F40018492046FFF7BCF817492046FFF7B8F8E6
:103A040016492046FFF7B4F815492046FFF7B0F8E9
:103A140014492046FFF7ACF813492046FFF7A8F8ED
:103A240012492046FFF7A4F8114A29462046FFF719
:103A3400E5F838BD94510008B4000020AC00002023
:103A4400A40000209C000020940000208C00002092
:103A5400840000207C000020740000206C00002002
:103A6400640000205C000020540000204C00002072
:103A7400853900082DE9F04107460E46154698465B
:103A8400FFF7AEF8C8B14FF0000C06E016F80CE0F2
:103A94000B4C04F80CE00CF1010C6545F6DC094B09
:103AA40001221A702B46064A41463846FFF714FC99
:103AB400044B1B78DBB2012BFAD0BDE8F08100BFC8
:103AC40014050020080800202DE9F84305460024C9
:103AD40015E0D5F804C003EBC4071CF807E02A6816
:103AE400925D0120984002401A4142EA4E020CF8CD
:103AF40007200133DBB2072BEBD90134E4B22646AD
:103B04004FEAD109B4EBD10F01D20023F3E700232C
:103B140011E0D5F804C003EBC4071CF807E02A68D9
:103B2400925D0120984002401A4142EA4E020CF88C
:103B340007200133DBB201F007084345E9D300272E
:103B440045E0A9688A5D0123A340DBB21A438A5584
:103B5400AA68925DD5F80CC01CF806104A402241B0
:103B640012F0010F04D019430CF806102B69984782
:103B74000134E4B2072C28D86B6804EBC7001B5C43
:103B840003F00F030F2BDCD0002BF1D1D5F808C0C4
:103B94001CF806E00123A340DB43D9B203EA0E0379
:103BA4000CF80630AB689B5DD5F80CE01EF806C037
:103BB40083EA0C03234113F0010FD9D00CEA010C62
:103BC4000EF806C06B699847D2E70137FFB23E464C
:103BD400B94501D90024CDE7002418E0A9688A5D1D
:103BE4000123A340DBB21A438A55AA68925DD5F833
:103BF4000CC01CF806104A40224112F0010F04D0F8
:103C040019430CF806102B6998470134E4B2A04517
:103C140026D96B6804EBC7001B5C03F00F030F2B62
:103C2400DCD0002BF1D1A96811F806E00123A340F0
:103C3400DB435FFA83FC03EA0E038B55AB689B5DA1
:103C4400D5F80CE01EF806104B40234113F0010F89
:103C5400DBD001EA0C010EF806106B699847D4E733
:103C6400BDE8F883FDF7A1FE0B480C490C4A00237C
:103C740002E0D458C4500433C4188C42F9D3094A1E
:103C8400094C002301E013600432A242FBD300F08C
:103C940021FBFCF7BFFB7047000000201801002047
:103CA400CC5200085405002098090020FEE70000CB
:103CB400002310B50446C0E90033C0E9043383602F
:103CC40081814366C2818361194608225C3000F019
:103CD400ADFA0D4B246263620C4BA3620C4BE3629E
:103CE4000C4B23630C4B9C4206D003F168029442B4
:103CF40002D0D0339C4205D104F15800BDE81040F5
:103D040000F00CBB10BD00BF81400008A3400008B8
:103D1400DB400008FF4000084C080020024A034929
:103D2400034800F069B800BFBC000020C54B000880
:103D3400CC00002041680C4B10B59942044601D0D8
:103D440000F03EFFA168094B994202D0204600F0E2
:103D540037FFE168064B994204D02046BDE8104085
:103D640000F02EBF10BD00BF4C080020B408002096
:103D74001C09002010B50B4B0B4C0C4A20461A6052
:103D840004210022FFF794FF04F1680001220921B5
:103D9400FFF78EFF04F1D0000222BDE8104012218B
:103DA400FFF786BF840900204C080020213D00084D
:103DB400014800F0B4BA00BF8D090020014800F0AA
:103DC400AFBA00BF8D09002010B50446FFF7F0FF1D
:103DD400236A1BB1BDE81040FFF7F0BF044B236218
:103DE400044B1B68002BF5D1FFF7C4FFF2E700BFBB
:103DF400393D0008840900202DE9F8430746884628
:103E040014460026D4E90195B9F1010905D52468C1
:103E1400002CF7D13046BDE8F883AB89012B07D9D4
:103E2400B5F90E30013303D029463846C04706435E
:103E34006835E9E70FB407B5064904AB086853F8D9
:103E4400042B8168019300F093FB03B05DF804EB4D
:103E540004B07047C8000020036A70B505460E46DA
:103E640084680BB9FFF7B0FF636EDB0705D4A38941
:103E7400980502D4A06D00F052FAA389190702D55F
:103E84002369002B35D12146284600F079F980B307
:103E94004FF0FF35636EDA0705D4A3899B0502D47E
:103EA400A06D00F03DFA284670BD002B04DAA2692B
:103EB4009A4217DC0A2915D023685A1C226019700B
:103EC400A36816F8011F013BA3600029EDD1002B64
:103ED40011DA22460A21284600F013F90130D7D01E
:103EE4000A25D7E72246284600F00BF90130E7D12E
:103EF400CEE7013EE4E723685A1C22600A221A70C6
:103F0400EEE70000024B01461868FFF7A5BF00BFAB
:103F1400C80000202DE9F7431D46574B04461F688F
:103F24000E46904627B13B6A13B93846FFF74CFF5B
:103F3400B8F1020F06D0B8F1010F00F29A80002DFB
:103F4400C0F29780636ED90705D4A3899A0502D479
:103F5400A06D00F0E4F92146384600F031FE616BB3
:103F640041B104F14403994202D0384600F0DAF931
:103F7400002363630023A3616360A3891B0603D545
:103F84003846216900F0CEF9A389B8F1020F23F471
:103F94004A6323F00303A38161D001AB6A4621463F
:103FA400384600F035FEA3891843A0812DBB009D3F
:103FB400284600F0FFF90646002852D1DDF80090AB
:103FC400A94540D14FF0FF35B4F90C3043F002025B
:103FD400A2810022A26004F1470222602261012230
:103FE4006261626ED60704D4980502D4A06D00F015
:103FF40097F9284603B0BDE8F083002ED8D03B6A79
:1040040013B93846FFF7E0FEB8F1010F08BFA389E2
:10401400C4E9046504BF43F00103A381B4F90C307F
:10402400266013F008021ED0D90741BF00226D425A
:10403400A260A56158BFA560626ED20701D49B053A
:1040440013D50025D5E7484600F0B4F90646002804
:10405400B8D0A3894D4643F08003A381CFE7002560
:10406400B2E7A946F5E7A260E6E7A06D00F058F9CB
:10407400E7E74FF0FF35BCE7C800002010B50C4659
:10408400B1F90E1000F0FCF80028ABBF636DA389F2
:104094001B1823F48053ACBF6365A38110BD2DE9C5
:1040A400F0411F468B890546DB050C46164605D5AF
:1040B40002230022B1F90E1000F0D0F8A389324691
:1040C40023F48053A38128463B46B4F90E10BDE87F
:1040D400F04100F0E7B810B50C46B1F90E1000F04D
:1040E400BDF8431CA38915BF606523F4805343F4D2
:1040F4008053A38118BFA38110BDB1F90E1000F045
:104104009DB8F8B50E461446054618B1036A0BB9B6
:10411400FFF75AFEA369A360A3891A0701D523698F
:1041240043B92146284600F02BF818B14FF0FF3769
:104134003846F8BD23682269F6B2981A636937468F
:10414400834205DC2146284600F03AFD0028EDD1E3
:10415400A368013BA36023685A1C22601E70626935
:10416400431C9A4204D0A389DB07E1D50A2EDFD190
:104174002146284600F024FD0028D9D0D6E70000C7
:1041840038B5294B054618680C4618B1036A0BB9B3
:10419400FFF71AFEB4F90C30190722D4DA0607D453
:1041A40009222A6043F040034FF0FF30A38133E03B
:1041B400580712D5616B41B104F14403994202D00E
:1041C400284600F0AFF800236363A38923F0240397
:1041D400A3810023636023692360A38943F0080358
:1041E400A38123694BB9A38903F42073B3F5007F3A
:1041F40003D02146284600F030FDB4F90C3013F00A
:1042040001020AD00022A26062695242A2612269BC
:1042140042B913F08000C5D138BD990758BF62690F
:10422400A260F4E70020F7E7C80000200346024438
:10423400934200D1704703F8011BF9E738B5002316
:10424400054D044608462B60FDF7F2FB431C02D1E2
:104254002B6803B1236038BD8809002038B50446B3
:10426400084611460022054D2A601A46FDF7EAFB6E
:10427400431C02D12B6803B1236038BD8809002098
:1042840038B50446084611460022054D2A601A46F0
:10429400FDF7B0FB431C02D12B6803B1236038BD8A
:1042A4008809002038B50446084611460022054D09
:1042B4002A601A46FDF7AEFB431C02D12B6803B1FA
:1042C400236038BD88090020014B1868704700BF7F
:1042D400C800002070B500260C4D0D4C641BA410C2
:1042E400A64209D100F036FD00260A4D0A4C641B93
:1042F400A410A64205D170BD55F8043B9847013679
:10430400EEE755F8043B98470136F2E7C45200083B
:10431400C4520008C4520008C852000870477047CD
:104324007047000038B50546002940D051F8043CD8
:104334000C1F002BB8BFE41800F0E6F81C4A136801
:1043440033B9636014602846BDE8384000F0E2B831
:10435400A34208D9206821188B4201BF19685B6801
:1043640009182160EDE71A465B680BB1A342FAD93C
:1043740011685018A0420BD12068014450188342A0
:104384001160E0D118685B68084410605360DAE794
:1043940002D90C232B60D6E7206821188B4201BF79
:1043A40019685B680918216063605460CBE738BD05
:1043B40094090020024B0146186800F025B800BF9C
:1043C400C800002070B50F4E0C463168054611B97F
:1043D40000F0A2FC30602146284600F09DFC431CFE
:1043E40003D14FF0FF34204670BDC41C24F00304F5
:1043F400A042F8D0211A284600F08EFC0130F2D1F8
:10440400EFE700BF900900202DE9F843CD1C25F00B
:10441400030508350C2D38BF0C25002D064601DB9D
:10442400A94204D90C2333600020BDE8F883DFF8E7
:10443400D48000F069F8D8F800301C4644BB294603
:104444003046FFF7BFFF431C044658D1D8F800405C
:104454002746002F43D1002C4BD0236839463046E1
:1044640004EB030900F058FC814542D12168304631
:104474006D1A2946FFF7A6FF01303AD023682B4472
:104484002360D8F800305A6862BBC8F800700FE0A7
:104494002268521B20D40B2A17D96119A342256024
:1044A40018BF5960636808BFC8F8001062514B60B8
:1044B400304600F02FF804F10B00231D20F0070014
:1044C400C21A1CBF1B1AA350AFE76268A3420CBFF9
:1044D400C8F800205A60EBE723466468AEE73C4620
:1044E4007F68B6E71A465B68A342FBD1002353609A
:1044F400DEE70C233046336000F00CF894E70560E7
:10450400D6E700BF940900200148FFF708BF00BFA9
:104514008C0900200148FFF703BF00BF8C0900206D
:10452400936810B4013B002B936007DA9469A342AB
:1045340001DB0A2902D110BCFFF7E3BD1368581C44
:1045440010601970084610BC7047F8B506460F464F
:104554001446D518AC4201D1002007E03A46304653
:1045640014F8011BFFF7DCFF431CF3D1F8BD000076
:104574002DE9F04F0D461446984606469DB018B1F5
:10458400036A0BB9FFF720FC6B6ED90705D4AB891E
:104594009A0502D4A86DFFF7C2FEAB891B0701D5AB
:1045A4002B699BB929463046FFF7EAFD70B16B6E63
:1045B400DC0704D54FF0FF301DB0BDE8F08FAB89A8
:1045C4009805F7D4A86DFFF7ABFEF3E70023099332
:1045D40020238DF8293030234FF00109CDF80C80C9
:1045E400DFF8A8818DF82A3023469A4613F8012B68
:1045F4000AB1252AF9D1BAEB040B0BD05B4622464B
:1046040029463046FFF7A1FF013000F0A780099A40
:104614005A4409929AF80030002B00F09F8000233E
:104624004FF0FF32CDE905230AF1010A0493079301
:104634008DF853301A935446052214F8011B53483D
:1046440000F07AFB049AD8B9D10644BF20238DF830
:104654005330130744BF2B238DF853309AF800309E
:104664002A2B15D0544600204FF00A0C079A2146F5
:1046740011F8013B303B092B4BD9B0B1079214E040
:10468400A0EB080309FA03F31343A2460493D2E709
:10469400039B191D1B680391002BBBBF5B4242F0B7
:1046A400020207930793B8BF049223782E2B0AD1F2
:1046B40063782A2B32D1039B02341A1D1B680392A0
:1046C40043EAE3730593DFF8C8A003225046217838
:1046D40000F032FB38B14022049BA0EB0A00824078
:1046E40013430134049314F8011B062229488DF85E
:1046F400281000F021FB00283FD0274B1BBB039B55
:10470400073323F0070308330393099B3B440993BE
:104714006AE70C4601200CFB0232A8E700234FF0A5
:104724000A0C194601340593204610F8012B303A3F
:10473400092A03D9002BC6D00591C4E704460123F6
:104744000CFB0121F0E703AB00932A463046134BE0
:1047540004A9AFF300800746781CD6D16B6ED90745
:1047640005D4AB899A0502D4A86DFFF7D9FDAB89AE
:104774005B063FF51FAF09981EE703AB00932A467B
:104784003046064B04A900F07DF8E4E786520008A1
:104794008C52000890520008000000004F450008A9
:1047A4002DE9F047164698468A680B6907469342F6
:1047B400B8BF1346336091F843200C46DDF82090CF
:1047C4000AB1013333602368990642BF3368023368
:1047D4003360256815F0060506D104F1190AE3686B
:1047E40032689B1AAB422BDC94F843302268003BBE
:1047F40018BF0123920630D44146384604F14302DF
:10480400C847013023D02368226903F00603042B30
:1048140014BF002533684FF0000608BFE56804F1B3
:104824001A0408BFED1A54F8123C08BF25EAE575CE
:104834009342C4BF9B1AED18B5421AD1002008E078
:104844000123524641463846C847013003D14FF050
:10485400FF30BDE8F0870135C1E73020E11881F869
:1048640043005A1C94F845102244023382F8431042
:10487400C2E70123224641463846C8470130E6D004
:104884000136D9E72DE9FF470F7E9146782F804600
:104894000C469A460C9E01F1430207D8622F0AD8AF
:1048A400002F00F0D180582F00F0B88004F14206A8
:1048B40084F842703AE0A7F16303152BF6D801A1FE
:1048C40051F823F02149000835490008B14800088F
:1048D400B1480008B1480008B1480008354900084B
:1048E400B1480008B1480008B1480008B1480008C0
:1048F400334A00085F490008ED490008B148000840
:10490400B1480008554A0008B14800085F4900084A
:10491400B1480008B1480008F549000833681A1D79
:104924001B68326004F1420684F8423001239CE0A3
:1049340033682068191D3160060601D51D6803E03F
:104944004506FBD5B3F90050002D03DA2D236D4243
:1049540084F843300A23584811E021683368080674
:1049640053F8045B02D4490648BFADB26F2F3360DD
:1049740014BF0A2308235048002184F843106668B2
:10498400002EA66005DB21682E4321F0040121607E
:104994004BD01646B5FBF3F103FB1157C75D06F880
:1049A400017D2F46BB420D46F4D9082B0BD1236859
:1049B400DF0708D5236961689942DEBF302306F812
:1049C400013C06F1FF36921B22614B4621464046CC
:1049D400CDF800A003AAFFF7E3FE01304AD14FF05F
:1049E400FF3004B0BDE8F087236843F02003236060
:1049F4007827324884F84570236831681F0651F8D7
:104A0400045B02D45F0648BFADB23160D90744BF2E
:104A140043F0200323601DB11023ADE72648E9E7E6
:104A2400236823F020032360F6E71646BDE73368C6
:104A34002568181D616930602E061B6801D5196050
:104A440002E06806FBD51980002316462361BCE703
:104A5400336800211A1D32601E686268304600F017
:104A64006BF908B1801B606063682361002384F8DC
:104A74004330AAE73246494640462369D0470130CD
:104A8400ADD023689B0713D4E068039B9842B8BF5A
:104A94001846A6E70123324649464046D04701302E
:104AA4009DD00135E36803995B1AAB42F2DCEBE776
:104AB400002504F11906F5E797520008A8520008EA
:104AC400B1F90C20F8B5160705460C4654D44B68CA
:104AD400002B02DC0B6C002B48DDE66A002E45D06F
:104AE400002312F480522F68216A2B6030D0626D4B
:104AF400A389590705D56368D21A636B0BB1236C7C
:104B0400D21A00232846E66A216AB047431CA389C7
:104B140006D129681D292BD8284ACA40D60727D58B
:104B2400002262602269D904226004D5421C01D1AA
:104B34002B6803B96065616B2F60B9B104F144035C
:104B4400994202D02846FFF7EDFB002363630DE092
:104B540001232846B0470246501CC9D12B68002BBC
:104B6400C6D01D2B01D0162B1DD12F60002021E0B3
:104B740043F040031BB21AE00F69002FF6D09307ED
:104B840018BF00230E6808BF4B69F61B0F608B60CB
:104B9400002EEBDD33463A462846216AD4F828C075
:104BA400E047002807DCB4F90C3043F040034FF031
:104BB400FF30A381F8BD0744361AE9E7010040201D
:104BC40038B50B6905460C4613B90025284638BD8F
:104BD40018B1036A0BB9FFF7F7F8B4F90C30002BDE
:104BE400F3D0626ED00704D4990502D4A06DFFF708
:104BF40096FB28462146FFF763FF636E0546DA07F6
:104C0400E4D4A3899B05E1D4A06DFFF789FBDDE71C
:104C140070B50C46B1F90E10154600291E4696B023
:104C24000CDAA389002113F0800F14BF40234FF442
:104C34008063002031602B6016B070BD6A4600F0BE
:104C440049F80028EDDB019901F47041A1F5005306
:104C5400594259414FF48063EBE78B89F7B59D07BF
:104C640006460C4607D504F147032360236101235C
:104C7400636103B0F0BD6A4601ABFFF7C9FF009F53
:104C8400054639463046FFF7BFFB48B9B4F90C3046
:104C94009A05EED423F0030343F00203A381E2E771
:104CA400A389C4E9040743F08003A381019B206026
:104CB4005BB13046B4F90E1000F01EF828B1A38998
:104CC40023F0030343F00103A381A3891D43A581BA
:104CD400CFE7000038B50023064D044608461146C8
:104CE4002B60FCF7A8FE431C02D12B6803B12360A0
:104CF40038BD00BF8809002038B50023054D04469F
:104D040008462B60FCF79CFE431C02D12B6803B1C0
:104D1400236038BD8809002038B50023054D0446BA
:104D240008462B60FCF742FE431C02D12B6803B1FA
:104D3400236038BD88090020034610B5C9B2024477
:104D44009342184601D1002003E0047801338C42D9
:104D5400F6D110BDF8B500BFF8BC08BC9E4670473C
:0C4D6400F8B500BFF8BC08BC9E467047C4
:104D70000102000002030405060708090A0B0C0DD6
:104D80000E0F1010000000000102030400000000DC
:104D90000000000001020304060708091B5B333111
:104DA0006D5B452F757362645F636F72655D200094
:104DB00053657475703A20626D52657175657374D0
:104DC00054797065203078253032782C2062526515
:104DD0007175657374203078253032782C207756C1
:104DE000616C7565203078253034782C2077496ED9
:104DF000646578203078253034782C20774C656EC7
:104E0000677468203078253034780D0A000000007F
:104E10001B5B306D00000000737472696E67207355
:104E2000697A65206F766572666C6F770D00000099
:104E300064657363726970746F72203C7479706515
:104E40003A25782C696E6465783A25783E206E6F35
:104E50007420666F756E64210D0A000065703A2536
:104E600030327820636C6561722068616C740D0A61
:104E70000000000065703A25303278207365742098
:104E800068616C740D0A00007374616E6461726411
:104E90002072657175657374206572726F720D0092
:104EA000636C6173732072657175657374206572CC
:104EB000726F720D0000000076656E646F72207272
:104EC000657175657374206572726F720D000000F4
:104ED00052657175657374206275666665722074BB
:104EE0006F6F20736D616C6C0D000000555345525F
:104EF0002F4368657272795553422F636F72652F25
:104F0000757362645F636F72652E6300675F7573AC
:104F100062645F636F72655B62757369645D2E6462
:104F2000657363726970746F72732D3E6465766920
:104F300063655F64657363726970746F725F6361E8
:104F40006C6C6261636B20213D204E554C4C00001F
:104F5000415353455254204641494C205B25735DD3
:104F600020402025733A25640D0A000064657669A7
:104F700063655F64657363726970746F725F6361A8
:104F80006C6C6261636B206973204E554C4C0D0A4A
:104F90000D0000006275736964203C20434F4E464B
:104FA00049475F5553424445565F4D41585F42550E
:104FB00053000000627573206F766572666C6F77C0
:104FC0000D0A0D001B5B33316D5B452F5553425D60
:104FD00020000000555345522F4368657272795581
:104FE00053422F66736465762F7573625F64635FE7
:104FF00066736465762E630065705F696478203C33
:1050000020434F4E4649475F5553424445565F45FE
:10501000505F4E554D000000457020616464722061
:1050200025303278206F766572666C6F770D0A00D6
:105030005553425F4745545F454E44504F494E5487
:105040005F545950452865702D3E626D41747472ED
:105050006962757465732920213D205553425F456F
:105060004E44504F494E545F545950455F49534F39
:105070004348524F4E4F55530000000069736F2054
:10508000656E64706F696E74206E6F7420737570D6
:10509000706F727420696E2066736465760D00000F
:1050A00028675F66736465765F7564632E706D61F3
:1050B0005F6F6666736574202B20675F6673646537
:1050C000765F7564632E6F75745F65705B65705F86
:1050D0006964785D2E65705F6D707329203C3D209A
:1050E000434F4E4649475F5553425F4653444556EA
:1050F0005F52414D5F53495A450000004570207092
:105100006D612025303278206F766572666C6F771E
:105110000D0A000028675F66736465765F756463D7
:105120002E706D615F6F6666736574202B20675FFC
:1051300066736465765F7564632E696E5F65705B28
:1051400065705F6964785D2E65705F6D707329208E
:105150003C3D20434F4E4649475F5553425F4653BF
:105160004445565F52414D5F53495A450000000087
:105170004261694A69616E67000000004261694AE4
:1051800069616E672078626F7800000056312E30BA
:1051900000000000213900082939000831390008D1
:1051A0000000000039390008000000000000000085
:1051B0000000000000000000C85100087051000805
:1051C0007C5100088C510008090400000A06000206
:1051D0000000004000000000090299000401008066
:1051E000FA0904000002FF5D0100112110010125F0
:1051F000811403030304130208030307058103203A
:105200000004070502032000080904010004FF5DF3
:1052100003001B21000101018340010420168500C9
:1052200000000000001605000000000000070583D4
:10523000032000020705040320000407058503205E
:105240000040070505032000100904020001FF5D6E
:1052500002000921000101228607000705860320BC
:1052600000100904030000FFFD13040641000101C2
:105270000300000012010002FFFFFF405E048E02E7
:10528000100101020301232D302B2000686C4C001B
:105290006566674546470030313233343536373836
:1052A0003941424344454600303132333435363794
:0C52B0003839616263646566000000002C
:0852BC0028AFFF7F0100000094
:0452C40019020008C3
:0452C800F5010008E4
:1052CC00780500207C050020740500207005002066
:1052DC0035020008790200080020000000000000E0
:1052EC00000000000000000000000000001400009E
:1052FC0000000000000000000000000000000000A2
:10530C00010000001000000000127A0007000000ED
:10531C005939000806000000593900080500000042
:10532C005939000804000000593900080300000036
:10533C00593900080200000059390008010000002A
:10534C0059390008870000004D390008860000001C
:10535C004D390008850000004D390008840000001C
:10536C004D390008830000004D3900088200000010
:10537C004D390008810000004D3900080000000084
:10538C00030000004C080020CC00002000000000AE
:10539C004C080020B40800201C090020000000006C
:1053AC0000000000000000000000000000000000F1
:1053BC0000000000000000000000000000000000E1
:1053CC0000000000000000000000000000000000D1
:0853DC000000000000000000C9
:0400000508003C694A
:00000001FF
