:020000040800F2
:10000000E017002045010008B71300081911000887
:10001000B5130008B50200088F1A000800000000A0
:10002000000000000000000000000000BB130008FA
:10003000B702000800000000B9130008BD13000853
:100040005F0100085F0100085F0100085F01000810
:100050005F0100085F0100085F0100085F01000800
:100060005F0100085F0100085F0100085F010008F0
:100070005F0100085F0100085F0100085F010008E0
:100080005F0100085F0100085F0100085F010008D0
:10009000891A00085F0100085F0100085F0100087D
:1000A0005F0100085F0100085F0100085F010008B0
:1000B0005F0100085F0100085F0100085F010008A0
:1000C0005F0100085F0100085F0100085F01000890
:1000D0005F0100085F0100085F0100085F01000880
:1000E0005F0100085F0100085F0100085F01000870
:1000F0005F0100085F0100085F0100085F01000860
:100100005F0100085F0100085F0100085F0100084F
:100110005F0100085F010008391400084514000859
:100120005F0100085F0100085F0100085F0100082F
:10013000DFF80CD000F072F8004800478D2200086C
:10014000E01700200648804706480047FEE7FEE724
:10015000FEE7FEE7FEE7FEE7FEE7FEE7FEE7FEE777
:100160003714000831010008202A04DB203A21FA64
:1001700002F00021704721FA02F3D040C2F12002C0
:100180009140084319467047D2B201E000F8012BB4
:10019000491EFBD270470022F6E710B513460A4607
:1001A00004461946FFF7F0FF204610BD421C10F828
:1001B000011B0029FBD1801A70472DE9F05F05462D
:1001C000002092469B4688460646814640241BE016
:1001D0002846414647462246FFF7C6FF53465A4641
:1001E000C01A914110D311461846224600F028F853
:1001F0002D1A67EB01084F4622460120002100F02E
:100200001FF817EB00094E41201EA4F10104DFDCAA
:10021000484631462A464346BDE8F09F064C074D06
:1002200006E0E06840F0010394E8070098471034C6
:10023000AC42F6D3FFF780FF4C3700086C3700085C
:10024000202A04DB203A00FA02F100207047914096
:10025000C2F1200320FA03F319439040704770B5B0
:100260008C1810F8015B15F0070301D110F8013B61
:100270002A1106D110F8012B03E010F8016B01F8E8
:10028000016B5B1EF9D12B0705D40023521E0DD440
:1002900001F8013BFAE710F8013BCB1A921C03E08E
:1002A00013F8015B01F8015B521EF9D5A142D8D3C6
:1002B000002070BDFEE7704772B6FEE770B50446D9
:1002C00000F014F90546601C02D00448007804448C
:1002D00000F00CF9401BA042FAD370BD480000208A
:1002E0002DE9F84FDFF8C8910024A9F1040B23464B
:1002F0000F2709F1040AABF1040ED1E00125A54056
:1003000006EA0502AA4276D1DFF8A8C14E68A6EB3C
:100310000C0866452BD00DDC032E34D005DC36B33B
:10032000012E19D0022E2FD11BE0112E16D0122E25
:100330002AD119E0B8F5881F19D006DCB8F5803F3E
:1003400015D0B8F5801F1FD111E0B8F5001F0ED0F1
:10035000B8F5041F18D10AE0CB6815E0CB681B1D67
:1003600012E0CB6808330FE0CB680C330CE08B68ED
:100370002BB1012B4FF0080303D0456104E00423A7
:1003800002E0056100E00023FF2A01D8064601E0F3
:1003900000F104064FEA840501D9A5F12005D6F83D
:1003A000008007FA05FC28EA0C0803FA05F548EA7C
:1003B0000508C6F800804D68ED0070D53E4DAE6969
:1003C00046F00106AE61AD6924F0030605F00105B3
:1003D00000953A4D06EB050CDCF80850A607360FE1
:1003E00007FA06F825EA0805DFF8D480404503D16E
:1003F0004FF0000825E052E0DFF8C880404502D108
:100400004FF001081DE0DFF8C080404502D14FF0F9
:10041000020816E0DFF8B480404502D14FF003082F
:100420000FE0DFF8AC80404502D14FF0040808E04F
:10043000DFF8A080404502D14FF0050801E04FF001
:10044000060808FA06F848EA0508CCF808804D685E
:10045000D9F80060ED024D4601D5164300E0964301
:100460002E604D68DAF80060AD02554601D516439E
:1004700000E096432E604D68DBF80060AD035D46FA
:1004800001D5164300E096432E604D68DEF800600B
:10049000ED03754601D5164300E096432E60641CBB
:1004A0000A681646E2407FF429AFBDE8F88F0000E5
:1004B000080401400000111000100240000001403B
:1004C00000080140000C01400010014000140140F0
:1004D00000180140001C01408068084000D0012045
:1004E00070470AB1016170470904FBE70148806861
:1004F00070470000480000200248816802781144DB
:100500008160704748000020074810B5016841F03D
:1005100010010160032000F0A1F80F2000F006F8A0
:1005200000F050F8002010BD0020024030B5054614
:100530001F4887B0C16941F01001C161C06906A9B7
:1005400000F01000009001A800F0CCF90498B0B1C0
:1005500000F0E8F940001749174AB0FBF1F11748DD
:10056000491E0260416040F2E7320021C0E90321E8
:100570008160816100F0ECFB040003D015E000F025
:10058000D1F9E8E70D4800F02FFC04000DD136202A
:1005900000F036F8102D07D200222946362000F050
:1005A0003DF80748056000E0012407B0204630BD53
:1005B0000010024040420F0000100040C40500201F
:1005C0004C0000200C4808B5816941F001018161AF
:1005D000816901F001010091C16941F08051C1615F
:1005E000C06900F0805000900448416821F0E0614B
:1005F00041F00071416008BD001002400000014060
:10060000002809DB00F01F02012191404009800011
:1006100000F1E020C0F8001170470000F0B40E4B6C
:100620001B680C46C3F30223C3F10705042D00D950
:100630000425191D072901D2002300E0DB1E012635
:1006400006FA05F1491E214099409E40761E16404B
:100650003143F0BC01F02CBA0CED00E0064900F08B
:10066000070208684FF6FF03184040EA0220034AD9
:1006700010430860704700000CED00E00000FA0530
:1006800008B500680F4988421AD10F48C16941F482
:100690000001C161C069002200F400000090114611
:1006A0001320FFF7BBFF1320FFF7AAFF002211461C
:1006B0001420FFF7B3FFBDE808401420FFF7A0BFE8
:1006C00008BD0000005C0040001002402DE9F84326
:1006D00005460078354CC00754D0E0690026C000BC
:1006E00008D4E06940F08050E061E069012600F044
:1006F000805000902E480168C90512D401688046D8
:1007000041F480710160FFF7F1FE074605E000BF8C
:10071000FFF7ECFEC01B642823D8D8F80000C00502
:10072000F6D5206A10F4407021D0A98801F44071F8
:1007300081421CD0206A1F49012220F440700A60C7
:1007400000220A602062C00711D0FFF7CFFE0746E3
:1007500041F2883808E000BFFFF7C8FEC11B4145E1
:1007600002D90320BDE8F883206A8007F4D5206A07
:10077000696820F44070084320621EB1E06920F0EF
:100780008050E0612878800705D56068A96820F46A
:100790004040084360602878C00605D560686969F4
:1007A00020F48000084360600020DBE70010024076
:1007B00000700040400442422DE9F0470F4605001A
:1007C00061D0434E306800F00700B84209D230686B
:1007D00020F0070038433060306800F00700B8426E
:1007E00051D128683B4C810712D5400703D560687A
:1007F00040F4E06060602878000703D5606840F44A
:10080000605060606068A96820F0F0000843606094
:100810002878C00728D06868012810D021680228ED
:1008200010D0890700292EDA616821F00301014305
:100830006160FFF75BFE804641F288390DE0216878
:100840008903EFE78901EDE7FFF750FEA0EB080110
:10085000494502D90320BDE8F0876068696800F067
:100860000C00B0EB810FEFD1306800F00700B84208
:100870000BD9306820F0070038433060306800F052
:100880000700B84201D00120E5E72878400705D5E8
:100890006068E96820F4E060084360602878000739
:1008A00006D56068296920F4605040EAC1006060A4
:1008B00000F058F86168084AC1F30311515CC84060
:1008C0000649086006480068FFF730FE0020C2E7CE
:1008D0000020024000100240D235000854000020E1
:1008E0004C0000200F2202600C4A536803F00303FF
:1008F0004360536803F0F0038360536803F4E063DC
:10090000C36052684FF4E06303EAD2020261044814
:10091000006800F007000860704700000010024007
:10092000002002400448054900684968044AC1F3B0
:100930000221515CC8407047540000200010024062
:10094000E23500080448054900684968044AC1F3D3
:10095000C221515CC8407047540000200010024082
:10096000E23500080E4A51680E4801F00C03042BD2
:1009700011D0082B0FD10C48C1F38343C903C05CCD
:100980000AD55168084AC1F34041921E515C054A9C
:100990005043B0FBF1F070470449484370470000F2
:1009A0000010024000127A00C235000800093D0024
:1009B0002DE9F84F040070D02078C04DC00749D011
:1009C0006868C0F38100012807D06868C0F381001F
:1009D000022809D16868C00306D52868800339D584
:1009E00060680028E7D035E06068B0F5803F0BD044
:1009F00010B1B0F5A02F11D0286820F48030286005
:100A0000286820F4802002E0286840F480302860C4
:100A1000606890B1FFF76AFD06460AE0286840F476
:100A200080202860F0E700BFFFF760FD801B64288E
:100A300073D828688003F7D50CE0FFF757FD06460A
:100A400005E000BFFFF752FD801B6428F0D828683E
:100A50008003F7D420789A4E80074FF001094FF0B9
:100A6000000839D5686810F00C0F07D06868C0F32B
:100A70008100022809D16868C00306D4286880076D
:100A800014D52069012808D110E02069B0B1C6F85A
:100A90000090FFF72BFD074605E00AE1FFF726FD72
:100AA000C01B0228C4D828688007F7D52868616968
:100AB00020F0F80040EAC10028600DE0C6F8008090
:100AC000FFF714FD074604E0FFF710FDC01B0228E6
:100AD00023D828688007F7D4207800072CD57948D8
:100AE000A169D9B1C0F80090FFF700FD074604E006
:100AF000FFF7FCFCC01B02280FD8686A8007F7D5F7
:100B000071484FF4FA510068B0FBF1F0009000BF5B
:100B10000098411E0091FAD20EE080E0C0F80080FB
:100B2000FFF7E4FC074604E0FFF7E0FCC01B0228E7
:100B300075D8686A8007F7D42078400760D5E869DF
:100B40000027C00008D4E86940F08050E861E869F7
:100B5000012700F0805000905C480168C90513D45B
:100B60000168834641F480710160FFF7BFFC824653
:100B700006E000BFFFF7BAFCA0EB0A0064284ED8DD
:100B8000DBF80000C005F5D5E06801280AD008B1FF
:100B9000052813D0286A20F001002862286A20F076
:100BA000040002E0286A40F001002862E06841F297
:100BB000883B98B1FFF79AFC82460BE0286A40F028
:100BC00004002862EEE700BFFFF790FCA0EB0A01EB
:100BD00059455AD8286A8007F6D50CE0FFF786FCFD
:100BE000824605E0FFF782FCA0EB0A0159454CD88C
:100BF000286A8007F6D41FB1E86920F08050E861C8
:100C0000E06988B36968C1F38101022944D00228F0
:100C1000C6F8608004D0FFF769FC044638E034E091
:100C2000FFF764FC074604E0FFF760FCC01B0228E6
:100C30002BD828688001F7D4206AB0F5803F05D111
:100C40006868A16820F4003008436860D4E90801AE
:100C50000843696821F4741108436860C6F860901D
:100C6000FFF744FC044606E025E000BFFFF73EFC2A
:100C7000001B022809D828688001F7D51BE000BFB7
:100C8000FFF734FC001B022802D90320BDE8F88FCF
:100C900028688001F4D40EE00128F7D06868226A41
:100CA00000F48031914204D1616A00F470108842EE
:100CB00001D00120EAE70020E8E700000010024030
:100CC0000000424280044242540000200070004074
:100CD0007047704770B590F83C20012A2CD0012451
:100CE00080F83C40022280F83D2003685A689D68E5
:100CF00022F070060A6832435A60104B02689A422A
:100D00000ED00F4B9A420BD0B2F1804F08D00D4B52
:100D10009A4205D00C4B9A4202D00C4B9A4204D115
:100D2000496825F080031943916080F83D40002117
:100D300080F83C10084670BD022070BD002C0140B8
:100D4000003401400004004000080040000C004056
:100D500010B5040003D094F83D0010B107E0012065
:100D600010BD002084F83C00204600F01FF802204F
:100D700084F83D00211D206800F0A4FB012084F8C8
:100D8000460084F83E0084F83F0084F8400084F870
:100D9000410084F8420084F8430084F8440084F859
:100DA000450084F83D00002010BD000008B5006833
:100DB0000B49884212D10B48C16941F02001C16141
:100DC000C069022200F02000009011463720FFF792
:100DD00025FCBDE808403720FFF712BC08BD000025
:100DE000001400400010024090F83D10012901D08D
:100DF00001207047022180F83D100168CA6842F066
:100E00000102CA6000680E4988420ED00D4988422E
:100E10000BD0B0F1804F08D00B49884205D00B4968
:100E2000884202D00A49884204D1816801F0070152
:100E3000062903D0016841F00101016000207047DC
:100E4000002C014000340140000400400008004034
:100E5000000C004070472DE9F04104460068C66868
:100E600005694FF00007A90713D5B10711D5F91E81
:100E7000016101202077206880698007204602D028
:100E8000FFF7E8FF04E000F07EF8204600F07CF871
:100E90002777680716D5700714D521686FF004000E
:100EA0000861022020772068806910F4407F204686
:100EB00002D0FFF7CFFF04E000F065F8204600F015
:100EC00063F82777280715D5300713D521686FF009
:100ED00008000861042020772068C0698007204648
:100EE00002D0FFF7B7FF04E000F04DF8204600F015
:100EF0004BF82777E80616D5F00614D521686FF071
:100F000010000861082020772068C06910F4407F35
:100F1000204602D0FFF79EFF04E000F034F82046A0
:100F200000F032F82777E80708D0F00706D02168EC
:100F30006FF001000861204600F028F8280608D567
:100F4000300606D521686FF0800008612046FFF763
:100F5000BFFE680608D5700606D521686FF0400010
:100F60000861204600F01CF8A8060AD5B00608D58E
:100F700021686FF0200008612046BDE8F041FFF7CE
:100F8000A8BEBDE8F08170477047000000680349C3
:100F9000884201D1FFF7B0BA70470000001000404E
:100FA000704770B5040004D094F84100002510B1DA
:100FB00006E0012070BD84F84050204600F024F87F
:100FC000242084F841002068C16821F40051C160E8
:100FD000204600F0EDFA2068016921F4904101619A
:100FE0002068416921F02A0141612068C16841F40B
:100FF0000051C1606564202084F8410084F84200FB
:101000006563002070BD000030B585B000240094F9
:1010100001940294039400681449884224D114482E
:10102000816941F480418161816901F480410491C9
:10103000816941F00401816180690E4D00F0040076
:1010400004904FF400700090022001900320039060
:1010500069462846FFF744F92815CDE9000469469A
:1010600028460294FFF73CF905B030BD0038014036
:1010700000100240000801402DE9F843044690F8B2
:101080004100984616460D46202802D00220BDE8B1
:10109000F88385B17EB100206064212084F841008E
:1010A000FFF724FAA6848146E684A0682027B0F5DD
:1010B000805F02D003E00120E9E7206910B12E46ED
:1010C00000250EE000260CE08021204600F0CCFA3E
:1010D000A8B9C6B116F8010B21684860E08C401E23
:1010E000E084E08C4B464FF00002CDF800800028F1
:1010F000EAD14FF04001204600F0B6FA40B184F842
:1011000041700320C3E735F8020BC0F30800E3E7A2
:1011100084F841700020BAE7FEE72DE9F047044665
:101120000D460020012113E0236802EBC0071E5C7E
:1011300001FA02F31E406368D640521C13F807C040
:10114000D2B246EA4C06DE55082AEDD3401CC0B2A6
:10115000B0EBD50F4FF00002E6D305F007098A4641
:101160000EE0216866680B5C0AFA02F10B4002EBA4
:10117000C001D340775C521C43EA47037354D2B298
:101180009145EED800263DE00027606807EBC601D8
:10119000405CC243120703D030F0F00017D02BE0C0
:1011A000A2680AFA07F0935D0343DBB29355D4F8C3
:1011B0000CC003401CF8062002EA000843451BD07F
:1011C00002430CF8062008462169884714E0A3680A
:1011D0000AFA07F09A5D82439A55D4F80CC002408F
:1011E0001CF8063003EA0008424505D083430CF89A
:1011F00006306269084690477F1CFFB2082FC4D3AF
:10120000761CF6B2B6EBD50FBED3002532E060688F
:1012100005EBC601405CC243120703D030F0F0007A
:1012200014D025E0A2680AFA05F0935D0343DBB20F
:101230009355E7680340BA5D02EA000C634517D096
:101240000243BA5522690846904711E0A3680AFA9A
:1012500005F09A5D82439A55E7680240BB5D03EA58
:10126000000C624504D08343BB550846616988473A
:101270006D1CEDB2A945CAD8BDE8F0872DE9F04351
:1012800085B0002427480094019402940394816956
:1012900041F040018161816901F04001049181695F
:1012A00041F004018161816901F0040104918169C7
:1012B00041F0080181618069DFF86C8000F008006E
:1012C0000490002220214046FFF70BF9DFF85C90E4
:1012D000002220214846FFF704F9182001258DE857
:1012E000310069464046FEF7FBFF202702260097A3
:1012F0000396CDE9015469464046FEF7F1FFCDE97A
:10130000005469460A480296FEF7EAFF00970396E2
:10131000CDE9015469464846FEF7E2FF05B0BDE855
:10132000F08300000010024000180140000C014052
:10133000000801401CB500240F4800940D49019499
:1013400001604721C0E9011441F28731C160802169
:101350008161FFF7FDFC08B1FEF7AEFF009469461E
:1013600005480194FFF7B6FC002801D0FEF7A4FF62
:101370001CBD000000140040340500200C4810B5CE
:101380000A4901604FF4E1314160002181600C2283
:10139000C160C0E904128161C161FFF702FE00284B
:1013A00003D0BDE81040FEF787BF10BD00380140F4
:1013B0007C050020FEE7FEE770477047704730B5B8
:1013C00095B028216846FEF7E6FE14210AA8FEF72C
:1013D000E2FE18210FA8FEF7DEFE01210804CDE988
:1013E00000100024029402250491CDE907504FF427
:1013F000E01009906846FFF7DBFA08B172B6FEE725
:101400000F20CDE90A054FF48060CDE90C400221A0
:101410000AA80E94FFF7D0F908B172B6FEE71020C3
:1014200014940F900FA8FFF751F9002801D072B65D
:10143000FEE715B030BD70470148FFF70CBD000056
:10144000C405002070B51A48FFF705FD1949088842
:10145000421C0A80032823D3174C002008802068F0
:10146000164D017801F0FC01017008212846FFF7B4
:1014700033F800B1012021680A7810430870102168
:101480002846FFF729F808B1012100E00021206873
:10149000027842EA4101017002210748FFF73DFE50
:1014A000BDE87040812314220549002000F084BE6D
:1014B00034050020460000202800002000180140CC
:1014C00000000020F0B50268204C214D214E224F33
:1014D000224B4FF0804CA04209D0984207D0604583
:1014E00005D0A84203D0B04201D0B84204D122F0C6
:1014F000700E4A6842EA0E02A04209D0984207D014
:10150000604505D0A84203D0B04201D0B84203D113
:1015100022F44075CA682A434D6922F080022A43AA
:1015200002608A68C2620A688262A04201D0984260
:1015300001D109690163012141610169C90703D032
:10154000016921F001010161F0BD0000002C0140A2
:101550000004004000080040000C0040003401403E
:1015600001680C3151E8002F22F4907241E8002309
:10157000002BF5D10168143151E8002F22F001024F
:1015800041E80023002BF5D1016B012909D1016845
:101590000C3151E8002F22F0100241E80023002B0B
:1015A000F5D1202180F8421000210163704700002E
:1015B00070B5044600680169E26821F440511143A6
:1015C00001612169A0680843616908432168CA680C
:1015D00041F20C639A430243CA6020684169A269E0
:1015E00021F44071114341611E492068884202D1B3
:1015F000FFF7A8F901E0FFF795F900EBC00101EB57
:101600000012606864218000B2FBF0F3B3FBF1F3D9
:101610006FF018067343B2FBF0F5B2FBF0F605EB82
:101620008305322303EB0515B5FBF1F5B6FBF1F6A7
:1016300005F0F00505EB0615B2FBF0F6B2FBF0F095
:10164000B0FBF1F06FF01802504306EB800003EBA3
:101650000010B0FBF1F0216800F00F002844886012
:1016600070BD0000003801402DE9F8439846174648
:101670000D460446089E24E0701C22D0FEF736FF7B
:10168000A0EB0800B0421AD8CEB12068C168490763
:1016900017D5802D15D0402D13D00168C9430907F7
:1016A0000FD401680025406800902046FFF758FFDE
:1016B0000820606484F840500120BDE8F8830320CE
:1016C000FBE72068006835EA000004D00020B8423B
:1016D000D2D00020F1E70120F9E700002DE9F04F1A
:1016E000E74C85B06068B0F84460DFF89883300458
:1016F0004FF4806948F2800B7DD49AE0B0F84460E2
:1017000016F00F0578D030F825A05FEA0A4140D5E1
:1017100030F8251040F68F72114041F0800120F81A
:1017200025106068B0F85020062101EBC5010A447D
:1017300009EB420105EB4502415C08EBC207009151
:10174000B7F8D820D7F8DC10D037009B00F0B2FCF7
:10175000F86800990844F86038690099401A3861BF
:101760007869009942187A6137F8D009009988425F
:101770007ED8D7F8E00000287AD0616831F82500DB
:101780004BF68F72104080F4405040EA0B0021F875
:1017900025005FEA0A6046D5616831F8250048F601
:1017A0000F72104040F4004021F825006068B0F846
:1017B0005010022202EBC5020A4409EB4201415AD1
:1017C00005EB4503C1F3090208EBC301CB691344E0
:1017D000CB610B6A9B1A0B624B6A1A444A620B6A12
:1017E000002B7DD00A8A934200D313469FB20A8B06
:1017F000C9693B4601E016E0AAE000F071FC6068B0
:10180000B0F85010084400EB0510A0F804746168AB
:1018100031F8250048F6BF72104080F0300040EAF1
:101820000B0021F825006068B0F8441009043FF56A
:1018300065AF70051AD54FF4C8719248FEF7ABFC3E
:101840004021C8F80C10002001F096F96168088862
:101850004BF68F72104080F4405040EA0B00088035
:10186000606830F8441F21F480610180700400E05A
:10187000FAE005D5616831F8440F20F48040088013
:10188000B00405D5606830F8441F21F40051018090
:10189000F00411D5606830F8401F21F00401018088
:1018A000606830F8401F21F008010180606830F85E
:1018B000441F21F48051018030053ED5D4F8041036
:1018C000002001AA31F8203022F81030401CC0B2AC
:1018D0000828F7D331F8400F40F00100088000E0FD
:1018E000C7E0606830F8401F21F0010101806068A6
:1018F000B0F844104905FBD530F8441F21F480614D
:1019000001800020636832F8101023F82010401C7A
:10191000C0B20828F6D3616831F8400F40F00800E3
:101920000880606830F8441F21F40061018061681C
:1019300031F8400F40F004000880F00505D56068DC
:1019400030F8441F21F48071018005B0BDE8F08FAC
:10195000F10601883FD448F60F72114041F400416E
:1019600001806068B0F850104FF0000A891C09EB44
:101970004101405A4746C0F30905D8F81C008021B0
:101980002844C8F81C00D8F82000401BC8F82000E4
:10199000D8F8240042195046C8F8242001F0A8F8CD
:1019A000F88810B13878000605D400231A46194685
:1019B000184600F0AFFF387A00283FF434AF002D0E
:1019C0007FF431AF387A616840F08000A1F84C00B4
:1019D00087F808A027E70A0517D5018840F68F7217
:1019E000114041F0800101806068B0F85020921DE4
:1019F00009EB4201B8F8D820435C224900F05AFBB9
:101A00002049002001F060F80DE70904E2D50188C3
:101A100040F68F72114041F0800101806068B0F89B
:101A200050104746891D09EB410137F8D82F455C16
:101A30004FF0000A2B46796800F03CFB786851466D
:101A400028447860B868401BB860F86842190020E4
:101A5000FA6001F063F8002DBCD100231A46194644
:101A6000184600F057FFDEE62946002001F056F840
:101A70008FE645F08001002001F03AF8D3E600003F
:101A8000580000204C0600200020FFF727BEFEE78C
:101A90000FB4054B10B503A9044A029800F0B8F83A
:101AA00010BC5DF814FB00009D200008E800002039
:101AB0000907090E002804DB00F1E02080F800147B
:101AC000704700F00F0000F1E02080F8141D70470F
:101AD00002E008C8121F08C1002AFAD170477047F7
:101AE000002001E001C1121F002AFBD17047000055
:101AF0002DE9F8430746C8884FF400780D46404565
:101B00000CD92878000609D432A0FFF7C1FF36A00F
:101B1000FFF7BEFF3BA0FFF7BBFF39E03B48C7EB39
:101B2000072100EB810404F11C00A060E988E1605A
:101B3000E9880026216126750090E88868B1287838
:101B400000060AD4022084F81E02EB8800213846E1
:101B5000A26800F0DFFEBDE8F88304F110036A46D6
:101B60002946384601F0B8FA80B1EA8820699042E7
:101B700000D20246E26042450FD916A0FFF788FF67
:101B800019A0FFF785FF1FA0FFF782FF84F81E62F0
:101B90008021384600F0A0FEDDE7A0680099884269
:101BA00001D000F0E5FBE368012613B184F81E6262
:101BB00002E0032084F81E0280213846A26800F06B
:101BC000D5FEE98820698142C5D98006C3D1267532
:101BD000C1E700001B5B33316D5B452F7573626499
:101BE0005F636F72655D2000526571756573742067
:101BF00062756666657220746F6F20736D616C6CC0
:101C00000D0A00001B5B306D00000000EC0000209E
:101C10002DE9FF4F8DB00F460546002606E025282A
:101C20000BD0DDE90F1290476D1C761C2878002838
:101C3000F5D111B03046BDE8F08F0024A246A14690
:101C40000122EC4900E0044315F8013F203B02FA71
:101C500003F00842F7D128782A2810D06FF02F021D
:101C60002878A0F13001092914D80AEB8A0102EB87
:101C7000410144F0020400EB010A6D1CF0E701CFC2
:101C80005FEA000A03D544F40054CAF1000A44F0A4
:101C900002046D1C28782E2817D115F8010F44F086
:101CA00004042A280ED06FF02F022878A0F130010A
:101CB00009290AD809EB890102EB410100EB01096E
:101CC0006D1CF2E757F8049B6D1C28786C280FD028
:101CD00006DC4C2817D068280DD06A2814D104E0FF
:101CE000742810D07A280FD10DE044F400140AE0D3
:101CF00044F4801401E044F440146978814202D134
:101D000004F580146D1C6D1C2A786E2A1FD00CDC23
:101D1000632A31D004DC002A8BD0582A11D1A3E0E9
:101D2000642A68D0692A0CD165E0732A2ED004DCBD
:101D30006F2A73D0702A04D19BE0752A6FD0782A5D
:101D40006ED01046DDE90F129047761C50E1C4F3C7
:101D50000250022806D0032809D0042801CF09D058
:101D6000066045E101CFF117C0E9006140E101CF14
:101D700006803DE106703BE117F8040B8DF800008A
:101D800000208DF80100EB46012003E057F804BB6A
:101D90004FF0FF3061074FF0000102D40DE008F171
:101DA0000101884649450FDA8045F8DB1BF8081029
:101DB0000029F4D108E008F1010188468142FADBEC
:101DC0001BF808100029F6D1DDE90F23AAEB080063
:101DD0008146214600F036F9304400EB080604E065
:101DE000DDE90F121BF8010B9047B8F10108F7D29B
:101DF00021464846F7E00A21C4F302534FF0000B96
:101E00000891022B04D001CFC117032B09D00AE09F
:101E1000FF1D27F00707F7E8020108E032E01FE0A6
:101E200020E000B2C117042B01D140B2C117031E3C
:101E300071F1000307DA4FF0000CD0EB0C006CEBF3
:101E400001012D2302E0230504D52B238DF8243036
:101E5000012303E0E30701D02023F7E7984658E089
:101E60000A2110E010210EE010204FF0000B089026
:101E70000CE010214FF0000B44F004044FF008096F
:101E8000089103E008214FF0000B0891C4F30253BE
:101E9000022B04D001CF0021032B06D006E0FF1D4A
:101EA00027F00707F7E8020103E080B2042B00D116
:101EB000C0B24FF0000823072BD5702A07D0DDF8F9
:101EC00020C08CF0100C5CEA0B0C05D00EE0402317
:101ED0008DF82430012308E050EA010306D03023B6
:101EE0008DF824308DF8252002239846DDF820C097
:101EF0008CF0080C5CEA0B0C0BD150EA010301D109
:101F0000630706D530238DF824304FF00108A9F17E
:101F10000109582A04D038A20B9208AA0A920BE0B1
:101F20003AA2F9E75B46089AFEF747F90B9B9B5CE0
:101F30000A9A521E0A92137050EA0102F2D10A98CC
:101F4000ADEB000000F1200B600702D524F48034D3
:101F500001E04FF00109D94502DDA9EB0B0000E0DB
:101F6000002000EB0B0141440890AAEB010AE003BA
:101F700006D4DDE90F232146504600F063F80644FD
:101F80004FF0000908E009A911F80900DDE90F1276
:101F9000904709F10109761CC145F4DBE0030CD53B
:101FA000DDE90F232146504600F04CF8064404E0DA
:101FB000DDE90F1230209047761C0899481E0890E2
:101FC0000029F5DC08E00A980A990078491C0A9172
:101FD000DDE90F129047761CBBF10001ABF1010B5C
:101FE000F1DC21465046DDE90F2300F019F80644E4
:101FF0006D1C1BE609280100303132333435363789
:102000003839616263646566000000003031323344
:1020100034353637383941424344454600000000E4
:102020002DE9F041044600251E461746880404D4D5
:1020300005E039462020B0476D1C641EF9D52846BE
:10204000BDE8F0812DE9F041044600251E4690468A
:10205000C80301D5302700E02027880404D505E017
:1020600041463846B0476D1C641EF9D52846BDE888
:10207000F081000000487047FE35000800487047B6
:10208000EC350008004870479736000801700A0ACE
:1020900042700A0C8270090EC170704713B54FF080
:1020A000FF33012269460248FEF7E6FF00981CBD97
:1020B0007C05002010B500EB42005C0800F5806054
:1020C00009D000BF30F8042B01F8012B120A01F8E7
:1020D000012B641EF6D1DA0701D00088087010BD0C
:1020E00010B55B1C00EB42005B0800F5806009D076
:1020F00011F8012B11F8014B42EA042220F8042BBD
:102100005B1EF5D110BD000070B50C460546274991
:1021100000F03AFA2649284600F094F92449284666
:10212000083100F08FF922492846103100F08AF971
:102130001F492846183100F085F91D4928462031ED
:1021400000F080F91A492846283100F07BF9184937
:102150002846303100F076F915492846383100F02C
:1021600071F913492846403100F06CF910492846AE
:10217000483100F067F90E492846503100F062F905
:102180000B492846583100F05DF90949284660316D
:1021900000F058F906492846683100F053F9214605
:1021A0002846BDE87040034A00F026BEA436000869
:1021B00064000020492B00082DE9F0411E4614461A
:1021C0000D46074600F0C6F8002813D000200A4943
:1021D00002E02A5C0A54401CA042FADB074D0120B1
:1021E00068702346044A3146384600F0BFFB6878E1
:1021F0000128FCD0BDE8F081E80400206000002048
:102200000549C0EB002001EB800090F81C0200287B
:1022100000D0012070470000EC0000200C494B78F2
:102220000A7A40B1012805D103F0FD00487002F0A0
:10223000FD000872704703F0FE00487002F0FE00D7
:10224000087203481438C17821F00401C170704746
:10225000140000200C494B780A7A40B1012805D1BE
:1022600043F00200487042F002000872704743F0E9
:102270000100487042F00100087203481438C17828
:1022800041F00401C170704714000020FEF73CF9D2
:10229000FFF795F8FEF7F2FFFFF770F8FFF74AF83F
:1022A000002000F0C9FD6420FEF708F8012000F0CE
:1022B000C3FD08490020FFF727FF1420FDF7FEFFAC
:1022C0000548FEF791FD054800210278002AFCD060
:1022D0000170FAE7005C0040340500206000002037
:1022E000042901D300207047014850F821007047AD
:1022F000D400002010B500F01FF80E4801214268FC
:10230000A2F8401042680021A2F840104268A2F8EA
:1023100044104268A2F8501042684FF43D41A2F8C0
:102320004010406830F8581F41F4004101800020FF
:1023300010BD000058000020044901EBC000044912
:10234000406808600846FEF79BB90000580000206E
:10235000E40000200549C0EB002001EB800090F86C
:102360001C02002800D0012070470000EC00002073
:102370002DE9F0410746054680071646B0EB817F00
:1023800005D02CE011F8010B05F8010B761EA8070B
:102390000FD0002EF6D10CE001C9103E01C501C9D5
:1023A00001C551F8080B45F8080B51F8040C45F825
:1023B000040C102EF0D202E001C9361F01C5042E14
:1023C000FAD203E011F8010B05F8010B761EF9D2E1
:1023D00034E000BF11F8010B05F8010B761E1EB1A9
:1023E0008807F7D10C4617E00C4625E028462168FF
:1023F000FFF74CFE2D1D28466168FFF747FE2D1D97
:102400002846A168FFF742FE2D1DE16828461034DA
:10241000FFF73CFE2D1D103E102EE7D205E002CC4A
:102420002846FFF733FE2D1D361F042EF7D203E09A
:1024300014F8010B05F8010B761EF9D23846BDE8F9
:10244000F081000070B50A78134E02F07F0303EBB1
:102450004304C0EB002006EB8003150603EB840069
:102460000CD580F878224868097801F07F0101EBEB
:10247000410103EB8101C1F8800270BD80F838236F
:102480004868097801F07F0101EB410103EB81010C
:10249000C1F8400370BD0000EC0000202DE9F041C0
:1024A000884607461249C0EB07201546002401EB79
:1024B000800616E006EB8400D0F824025DB170B10E
:1024C000C36863B1A978007E814208D12A4641469B
:1024D0003846984703E010B1C368002BF6D1641C5E
:1024E000E4B296F87402A042E4D8BDE8F08100009E
:1024F000EC0000202DE9F0410C78224E04F003049A
:10250000C0EB002506EB8505012C02D0022C1FD064
:1025100033E0002495F8747217E000BF05EB8406E1
:10252000D6F824627EB1D6F800C0BCF1000F0AD004
:1025300096F818C091F804E0F44504D13468A44634
:10254000BDE8F0416047641CE4B2A742E6D814E05D
:10255000002495F874720EE005EB8406D6F8246228
:102560003EB1D6F804C0BCF1000F02D0BDE8F04186
:102570006047641CE4B2A742EED84FF0FF30BDE8DC
:10258000F0810000EC00002070B50D46C0EB00218A
:102590000B4800EB81044FF47F712046FDF7FBFDF3
:1025A0000020A56184F87402802184F8781205491E
:1025B000C4F8801284F838030348C4F8400370BD9F
:1025C000EC000020ED290008512A000830B51F4A10
:1025D00021F080000B06516848F68F7548F28004A0
:1025E00031F8203012D45B0407D531F820302B406D
:1025F0004CF280052B4321F82030526832F820102D
:102600004BF68F73194081F4405119E05B0607D5F2
:1026100031F820302B4048F2C0052B4321F8203000
:102620000B4B00EB400103EBC101897C01290AD06F
:10263000526832F8201048F6BF73194081F020012B
:10264000214322F82010002030BD00005800002057
:102650004C06002030B5184A21F080000B06516866
:1026600048F68F7548F2800431F820300FD45B04AF
:1026700007D531F820302B404CF280052B4321F850
:102680002030526832F820104BF68F730EE05B0654
:1026900007D531F820302B4048F2C0052B4321F8F4
:1026A0002030526832F8201048F6BF731940214399
:1026B00022F82010002030BD5800002030B521F055
:1026C00080000D060B494FF000034FF001044968EC
:1026D00031F8200003D400F44050C00402E000F0C0
:1026E0003000C006002801DA147000E013700020EA
:1026F00030BD0000580000202DE9F0438878CA78EA
:1027000020F0800012F0030209D0012A0FD0022A23
:1027100008D0032A08D04FF0FF30BDE8F0834FF413
:10272000007306E0002304E04FF4C06301E04FF4BF
:102730008063674A566836F8204048F68F152C406B
:102740001C4348F280052C4326F82040546834F896
:10275000203048F68F76334003432B4324F8203053
:102760008B784FF001081C065A4B8C884FF6FE7987
:1027700063D4C4F30A0500EB400403EBC404A4F8DB
:10278000D050CF7807F0030784F8D27084F8D48053
:10279000B4F8D670BD4217D98D88C5F30A0524F860
:1027A000D65FDD6865805468B4F850502C44DD680D
:1027B00004EB001405EA0905A4F80854DC688D88C8
:1027C000C5F30A052C44DC605368B3F8504089888F
:1027D000234403EB001303F20C434C050DD0C1F36B
:1027E0000A043E2C11D8C1F34904C90700D0641C67
:1027F0004FF6FF7101EA842110E0198821F4F841B5
:102800001980198841F4004108E0C1F34514C90654
:1028100000D1641E4FF4004141EA842119805168BF
:1028200031F82020520450D531F820204CF280039A
:1028300032401A4321F8202047E0C4F30A0700EB96
:10284000400403EBC404278291F803C00CF0030C8E
:1028500084F812C084F81480B4F816C0674516D9FD
:102860008F88C7F30A07E782DF6827835468B4F8C4
:1028700050703C44DF6804EB001407EA0907A4F831
:102880000074DC688F88C7F30A073C44DC60546836
:1028900034F820305B0607D534F82030334048F256
:1028A000C006334324F82030C978526801F0030190
:1028B000012932F8201048F6BF7301EA030101D064
:1028C00081F02001294322F82010002025E7000094
:1028D000580000204C06002021F080000A060C4918
:1028E00010B5496848F2800331F8202005D44BF632
:1028F0008F74224082F4805204E048F6BF74224074
:1029000082F010021A4321F82020002010BD0000A0
:102910005800002010B521F080011AB913B14FF012
:10292000FF3010BD0F4801EB410400EBC40090F8EC
:10293000D4409CB1E0E93723002282600A48426813
:1029400032F821004BF68F73184080F4405048F263
:102950008003184322F82100002010BD6FF0010011
:1029600010BD00004C060020580000202DE9F04169
:10297000170021F0800403D113B1501EBDE8F0818F
:10298000184804EB440100EBC100017D31B3002184
:10299000C761C0E90831018A994200D80B46124E3E
:1029A0001D46028B9BB239467068FFF799FB706831
:1029B000B0F85010084400EB0410A0F804547168FB
:1029C00031F8240048F6BF72104080F0300048F221
:1029D0008002104321F824000020CFE76FF00100AF
:1029E000CCE700004C060020580000201749C0EB3F
:1029F000002330B401EB83018B689C188C60CB689A
:102A00009B1ACB6001D0224614E00B7D0022012BE3
:102A10000DD0CB8893B10B781B060FD5042281F81B
:102A20001E22002330BC1A461946FFF773BF0A75F1
:102A300000231A4630BC8021FFF798BF91F81E0290
:102A4000032801D181F81E2230BC7047EC00002021
:102A500070B50646C0EB06211A48002500EB81013F
:102A60000C465AB3A0681044A060E3689B1AE36068
:102A700006D002463046BDE870400021FFF74ABF4D
:102A800004F11C00A06004F1100304F108023046B8
:102A900000F022FB50B1032084F81E023046BDE84E
:102AA000704000231A468021FFF760BF84F81E5251
:102AB0003046BDE870408021FFF70EBF81F81E52FE
:102AC00070BD0000EC00002070B50546074AC0EB61
:102AD000052002EB800408222046FFF749FC21462E
:102AE0002846BDE87040FFF703B80000EC00002066
:102AF00030B4094BC0EB002403EB840301F07F04E6
:102B000004EB440403EB8403D3F88032002B01D0A0
:102B100030BC184730BC7047EC00002030B4094B83
:102B2000C0EB002403EB840301F07F0404EB4404B6
:102B300003EB8403D3F84033002B01D030BC18479B
:102B400030BC7047EC00002010B508290FD2DFE838
:102B500001F00E0E0E0E0E0E0E044023044A02214A
:102B6000FFF7D8FE0348002141700121017010BD1C
:102B70000C060020600000207CB50646002100F015
:102B8000CDF91B48C6EB062100EB8105002485F832
:102B90001D4285F81C4285F81E4285F82342A8692B
:102BA000016820468847C079ADF8040007208DF8F9
:102BB000000005208DF801008DF8034080208DF87D
:102BC00002008DF8064069463046FFF795FD8DF806
:102BD000024069463046FFF78FFD00220121304652
:102BE000FFF75CFCD5F8F8230121304690477CBD07
:102BF000EC0000202DE9F04716460A0ACFB29946AC
:102C000057490125C0EB0023904601EB8304062AB7
:102C100051D007DC012A0BD0022A16D0B8F1030FDD
:102C20007BD127E0072A7AD0B8F10F0F75D17FE06A
:102C300000F0C8F884F82302A169096800296CD063
:102C4000884700287ED0017877E0A0694168002994
:102C500078D094F823028847002873D0C27941883D
:102C6000C2F3801284F81F22C279C2F3401284F8A2
:102C7000202262E0A069EE2F20D00269002A61D0F4
:102C800094F823023946904704005BD00325CFB166
:102C9000FDF78CFA82B2022303EB420081B2B1F558
:102CA000007F1DD92FA0FEF7F3FE33A0FEF7F0FE44
:102CB00037A0FEF7EDFE0020BDE8F087406960B365
:102CC0000068C0E731680420087031684D703268D0
:102CD0002178917032686178D170C9F800001AE0EB
:102CE0003068AA46017030684570002007460EE043
:102CF000D6F800C003EB4008255C0CF808500AEB3E
:102D00004005D6F800C0401C80B20CF80570904217
:102D1000EED3C9F800100120CEE713E0FFE7A06969
:102D2000C16879B194F82302884758B1418804E01A
:102D3000A069016A31B1D1E900013060C9F8001021
:102D40002846B9E7002507A0FEF7A2FE3A4641460D
:102D500011A0FEF79DFE0EA0FEF79AFEF0E7000020
:102D6000EC0000201B5B33316D5B452F7573626493
:102D70005F636F72655D2000737472696E672073A4
:102D8000697A65206F766572666C6F770D0A000050
:102D90001B5B306D000000006465736372697074C2
:102DA0006F72203C747970653A25782C696E646581
:102DB000783A25783E206E6F7420666F756E6421B8
:102DC0000D0A00000220704701490020487070473A
:102DD0006000002010B5064C00226270022905D167
:102DE0004023044AFFF796FD0120207010BD00002B
:102DF000600000200C06002070B504460C4800EB73
:102E0000C40041600B48C4EB042100EB81050B2199
:102E1000C5F8F82300222046FFF740FBD5F8F82339
:102E20000B21204690472046BDE87040FFF762BA6C
:102E300058000020EC0000202DE9F041224986B026
:102E40008A6942F004028A618969012401F004015F
:102E500004911E490326CF148D140028DFF87080DA
:102E6000088816D020F0020008800097CDE90246BD
:102E70000227694640460197FDF732FACDE902463E
:102E8000CDE9005769464046FDF72AFA06B0BDE88D
:102E9000F08140F002000880CDE90074CDE90246DF
:102EA00069464046FDF71CFA694640460095FDF725
:102EB00017FA002239464046FDF713FB0022294647
:102EC0004046FDF70EFBE1E700100240405C004089
:102ED000000801401CB5044608A0FEF7D9FDE188B2
:102EE000A088CDE900016388627821780848FEF760
:102EF000CFFDBDE81C4007A0FEF7CABD1B5B333108
:102F00006D5B452F757362645F636F72655D200052
:102F1000C83600081B5B306D0000000021B9044A70
:102F200080205268A2F84C000248017200207047CD
:102F3000580000204C0600202DE9F74F8B468246B2
:102F4000C0EB0A211C484FF0000900EB81014FF053
:102F5000FF0891F82302896947464E4649684D4665
:102F60008847044622E06078022804D004280AD06A
:102F7000052815D10AE067795F4511D14FF00109A5
:102F8000002566880CE094F8038009E05F4507D1CE
:102F90000299884504D12146504600F00FF8814639
:102FA000207805440444B54200D316B9207800289F
:102FB000D9D14846BDE8FE8FEC00002070B58A7874
:102FC0008B881506184EC3F30A0402F07F02C0EB8B
:102FD000002302EB420206EB830303EB82020ED5D1
:102FE000A2F87A428C788A8804F07F0404EB4404C7
:102FF00003EB8403C2F3C12283F879220DE0A2F827
:103000003A438C788A8804F07F0404EB440403EB91
:103010008403C2F3C12283F83923FFF76DFB08B1A3
:10302000002070BD012070BDEC0000202DE9F74F9D
:103030008346C0EB0B2127484FF0000900EB8101CC
:103040004FF0FF0891F8230289694746CA4649684C
:103050004E464D468847044631E06078022804D049
:10306000042805D0052821D10DE0002566881DE043
:10307000A778019894F80380874217D10299884570
:1030800014D1A14612E0019887420FD1029821463F
:1030900028B180450AD15846FFF790FF05E0584611
:1030A000A178FFF7D7FA40B1002082462078054486
:1030B0000444B54203D316B104E00120F5E72078BB
:1030C0000028CAD14A4608215846FFF7E7F950467A
:1030D000BDE8FE8FEC00002070B50D780C4615F0B1
:1030E000600104D0202921D0402930D131E021468F
:1030F00015F0030504D0012D05D0022D0AD105E0FD
:1031000000F068F804E000F057F901E000F0DAF8A8
:10311000002828D16078062803D16088B0F5C06FF8
:1031200015D012A0FEF7B4FC15A008E02146FFF769
:10313000E1F9002817DA0DA0FEF7AAFC17A0FEF7A8
:10314000A7FC1CA0FEF7A4FC2046FFF7C3FE00204E
:1031500070BD214600F0C4F9002804DA03A0FEF790
:1031600097FC16A0EBE7012070BD00001B5B33311C
:103170006D5B452F757362645F636F72655D2000E0
:103180007374616E646172642072657175657374C5
:10319000206572726F720D0A00000000636C61732B
:1031A000732072657175657374206572726F720D2C
:1031B0000A0000001B5B306D0000000076656E6445
:1031C0006F722072657175657374206572726F72AB
:1031D0000D0A00002DE9F0471E460B460746012563
:1031E0005B78374C4988C7EB072C28464FF000081E
:1031F00004EB8C040A2B3DD2DFE803F0051B3C1BDB
:103200003C2F363C40451368414683F8008094F8D3
:103210001F320BB11368187094F8210220B11068A6
:10322000037843F00203037010684170022030609D
:1032300021E0012908D1032B09D084F82182D4F898
:10324000F8230A2138469047C6F8008013E084F836
:1032500021020921D4F8F823F4E7C9B284F81D1239
:103260003846FFF75BFEEFE733463846FFF7C2FC10
:10327000054600E000252846BDE8F087126894F86E
:103280001C121170D3E7C8B25FEA000912D00146E0
:1032900000223846FFF750FE78B184F81C9284F87B
:1032A0002282002207213846FFF7F8F80721D4F8D8
:1032B000F823C7E784F81C82C6E70025C4E70000AE
:1032C000EC0000202DE9F84F1E4617460D468246B9
:1032D00091F804900124FEF793FF002809D0687844
:1032E0004FF0000838B101281AD003282BD0002451
:1032F0002046BDE8F88F6A4649465046FFF7DEF99A
:103300009DF8000018B139680120087002E03968A2
:1033100081F800803968022081F801803060E7E799
:10332000688870B912A0FEF7B3FB494615A0FEF7F6
:10333000AFFB1AA0FEF7ACFB49465046FFF746F933
:10334000D6E7002410E068880028FAD108A0FEF72C
:103350009FFB494613A0FEF79BFB10A0FEF798FBCE
:1033600049465046FFF7B8FAC6F80080C0E70000AB
:103370001B5B33316D5B452F757362645F636F72E6
:10338000655D200065703A2530327820636C656198
:10339000722068616C740D0A000000001B5B306DC8
:1033A0000000000065703A25303278207365742083
:1033B00068616C740D0A00002DE9FF4F488883B0E6
:1033C000000A0290002091F804B081460090FF208E
:1033D000019003980D46C0EB002140481F4600EBCA
:1033E00081069046B1694FF0010A96F823024968B8
:1033F000884704460398FEF703FF00284CD06878FE
:103400000C2850D2DFE800F0064F4F4F4F4F0F4FC0
:103410004F4F525DD8F8001000200870D8F8001007
:10342000487002204AE0029821281FD0222821D08B
:1034300039E06178022904D0042907D021290FD16D
:1034400007E061884FF00009009109E0A17801913F
:1034500006E00199594503D1C8F80040207819E0E9
:10346000009981440444894500D3E1B920780028BB
:10347000DFD118E0002096F8742212E006EB8001FC
:10348000D1F8241259B10C7E5C4508D10A69C8F8FC
:10349000002048693860012007B0BDE8F08F401C6B
:1034A000C0B28242EAD84FF0000A08E006EB0B00F7
:1034B00090F86412D8F8000001700120386050467E
:1034C000EAE706EB0B01A87881F86402AA7829796B
:1034D0000398FFF7ABFD0020F0E70000EC000020B0
:1034E0002DE9F0470C468246C0EB0A2133481E46C0
:1034F00000EB81079046B9694FF0FF394869E8B1A0
:103500006378027993422CD1A188042902D005293D
:1035100051D101E0806803E0C068618850F8210063
:1035200001784278C37801EB02218278C8F8000064
:10353000120402EB0362114431600FE0886980B12C
:10354000627883799A420CD1A188072933D1016826
:10355000C8F80010B8698069808830600020BDE834
:10356000F087C86968B161780278914209D1A18871
:10357000022920D1D0F80510D0F80120C8F8002089
:10358000DAE7002513E000BF07EB8500D0F824023E
:1035900058B1D0F808C0BCF1000F06D033464246FF
:1035A00021465046E0470028D9D06D1CEDB297F86F
:1035B0007402A842E8D84846D1E70000EC00002099
:1035C000010202030405060708090A0B0C0D0E0F81
:1035D00010100000000000000000010203040607B4
:1035E000080900000000010203040904120100029E
:1035F000FFFFFF405E048E02100101020301090279
:10360000990004010080FA0904000002FF5D010036
:10361000112110010125811403030304130208037F
:1036200003070581032000040705020320000809A1
:1036300004010004FF5D03001B2100010101834020
:10364000010420168500000000000016050000009F
:103650000000000705830320000207050403200083
:103660000407058503200040070505032000100915
:1036700004020001FF5D020009210001012286070A
:1036800000070586032000100904030000FFFD1356
:10369000040641000101030A060002000000400088
:1036A000000000007D20000875200008852000082B
:1036B00000000000E12200080000000000000000FF
:1036C000000000000000000053657475703A20622D
:1036D0006D52657175657374547970652030782505
:1036E0003032782C206252657175657374203078A1
:1036F000253032782C207756616C7565203078251E
:103700003034782C2077496E646578203078253005
:1037100034782C20774C656E6774682030782530BB
:1037200034780D0A0000000056312E3000000000F1
:103730004261694A69616E67000000004261694A3E
:1037400069616E672078626F780000006C3700084E
:1037500000000020280500005E020008D83700089D
:1037600028050020B8120000E01A00081102131406
:103770000212201A40161328051B2042081A44047E
:10378000131D221B0855048132018210D3127A3294
:103790008113C92D5B0882085A83085A84085A8508
:1037A000085A86085A870829541AD5085A02085A0E
:1037B00003085A04085A05085A06085A070813EA63
:1037C00035140830371B083C041A280401FF01FF98
:0837D00001FF01FF01480000A8
:0400000508000131BD
:00000001FF
