:020000040800F2
:1000000000000120F54900084D0600084F060008D1
:1000100051060008530600085506000800000000BD
:10002000000000000000000000000000570600086B
:1000300059060008000000005B0600085D06000885
:100040003D4A00083D4A00083D4A00083D4A000874
:100050003D4A00083D4A00083D4A00083D4A000864
:100060003D4A00083D4A00083D4A00083D4A000854
:100070003D4A00083D4A00083D4A00083D4A000844
:100080003D4A00083D4A00083D4A00083D4A000834
:10009000610600083D4A00083D4A00083D4A000844
:1000A0003D4A00083D4A00083D4A00083D4A000814
:1000B0003D4A00083D4A00083D4A00083D4A000804
:1000C0003D4A00083D4A00083D4A00083D4A0008F4
:1000D0003D4A00083D4A00083D4A00083D4A0008E4
:1000E0003D4A00083D4A00083D4A00083D4A0008D4
:1000F0003D4A00083D4A00083D4A00083D4A0008C4
:100100003D4A00083D4A00083D4A00083D4A0008B3
:100110003D4A00083D4A00087106000881060008B3
:100120003D4A00083D4A00083D4A00083D4A000893
:1001300000000000000000000000000000000000BF
:1001400000000000000000000000000000000000AF
:10015000000000000000000000000000000000009F
:10016000000000000000000000000000000000008F
:10017000000000000000000000000000000000007F
:10018000000000000000000000000000000000006F
:10019000000000000000000000000000000000005F
:1001A000000000000000000000000000000000004F
:1001B000000000000000000000000000000000003F
:1001C000000000000000000000000000000000002F
:1001D000000000000000000000000000000000001F
:0401E0005FF8E0F1F3
:1001E40010B5054C237833B9044B13B10448AFF36D
:1001F40000800123237010BDF802002000000000DD
:10020400984A000808B5034B1BB103490348AFF3F0
:10021400008008BD00000000FC020020984A00088D
:1002240010B101280FD070470C4B5A7822F001020C
:100234005A701A7A22F001021A72094AD37823F00A
:100244000403D3707047054B5A7822F002025A70A7
:100254001A7A22F002021A72704700BF2C000020A2
:100264001800002010B101280FD070470C4B5A78A9
:1002740042F001025A701A7A42F001021A72094AD3
:10028400D37843F00403D3707047054B5A7842F097
:1002940002025A701A7A42F002021A72704700BFC0
:1002A4002C00002018000020F0B587B02A4B9A6972
:1002B40042F004029A619B6903F004030193019BD9
:1002C40010B3264AB2F840309BB223F002039BB22B
:1002D400A2F840304FF400630293022703970126EB
:1002E4000496032505951E4C02A9204603F01AFA2C
:1002F4004FF48053029303970496059502A9204670
:1003040003F010FA07B0F0BD144AB2F840309BB2C3
:1003140043F00203A2F840304FF400660296012332
:1003240003930493032305930D4C02A9204603F081
:10033400F9F94FF48055029502A9204603F0F2F929
:1003440000223146204603F010FB002229462046B5
:1003540003F00BFBD6E700BF00100240005C004036
:100364000008014008B50268034B9A4200D008BD5A
:1003740002F0E4FDFBE700BF0010004072B6FEE7A8
:1003840000B597B0282200210CA804F056FB0023E6
:100394000793089309930A930B930193029303938E
:1003A40004930593069301220C924FF480330D932A
:1003B40010920222139214934FF4E01315930CA895
:1003C40002F0F8FDC0B90F2307930221089100231E
:1003D40009934FF480620A920B9307A803F01CF868
:1003E40060B9102301930023069301A803F00EF9CA
:1003F40030B917B05DF804FBFFF7C0FFFFF7BEFF8D
:10040400FFF7BCFF08B502F087FD0D4B0222DA713D
:10041400FFF7B6FF00F018F800F078F800F0BEF827
:100424000020FFF741FF642002F09AFD0120FFF74E
:100434003BFF00F0D9F9034800F010FCFEE700BFD1
:100444002C0000202C0300202DE9F04389B0002467
:100454000494059406940794284B9A6942F0400248
:100464009A619A6902F040020192019A9A6942F0F3
:1004740004029A619A6902F004020292029A9A6949
:1004840042F008029A619B6903F008030393039BFB
:100494001B4F22462021384603F067FADFF86480B8
:1004A40022462021404603F060FA18230493059461
:1004B4000125069504A9384603F034F94FF02009C4
:1004C400CDF81090059506940226079604A938469F
:1004D40003F028F904950594069604A90A4803F044
:1004E40021F9CDF8109005950694079604A9404685
:1004F40003F018F909B0BDE8F08300BF0010024012
:1005040000180140000C01400008014000B583B010
:100514000023009301930F480F4A02604722426070
:10052400836041F28732C260836100F0DBFC50B922
:100534000023009301936946064800F0FFFC28B9A4
:1005440003B05DF804FBFFF719FFF1E7FFF716FFAF
:10055400F6E700BF2C0300200014004002680E4B95
:100564009A4200D0704700B583B003F5FE33DA69D0
:1005740042F02002DA61DB6903F020030193019B5E
:1005840002221146372003F03DFA372003F04AFADD
:1005940003B05DF804FB00BF0014004008B50A482E
:1005A4000A4B03604FF4E133436000238360C3606C
:1005B40003610C2242618361C36103F08BFA00B9C9
:1005C40008BDFFF7DBFEFBE77403002000380140A1
:1005D40010B586B000230293039304930593026835
:1005E400174B9A4201D006B010BD03F558439A69DF
:1005F40042F480429A619A6902F480420092009A1D
:100604009A6942F004029A619B6903F0040301931E
:10061400019B4FF400730293022303930323059376
:10062400084C02A9204603F07DF84FF4806302933E
:1006340000230393049302A9204603F073F8D2E73E
:100644000038014000080140FEE7FEE7FEE7FEE750
:10065400FEE77047704770477047000008B50248CE
:1006640001F096FA08BD00BFE808002008B502486A
:1006740000F034FB08BD00BFC003002038B51B48A0
:1006840000F02CFB1A4A1388591C1180022B06D83F
:1006940082230F221749184804F0BDF838BD1346C9
:1006A40000221A80154D2A68137823F0030313706F
:1006B400134C0821204603F051F92A6813780028C6
:1006C40018BF43F0010313701021204603F046F9CC
:1006D40048B102210948026813780B4313700221C0
:1006E40004F0B7F8D4E70021F4E700BF2C0300209E
:1006F400BC03002033000020080400200000002078
:100704000018014082B00E4B9A6942F001029A61CE
:100714009A6902F001020092009ADA6942F080526A
:10072400DA61DB6903F080530193019B054A536846
:1007340023F0E06343F00073536002B0704700BFDE
:10074400001002400000014030B589B00446214B3E
:10075400DA6942F01002DA61DB6903F010030193F5
:10076400019B02A903A802F033FF069BCBB902F058
:100774000FFF0346184AA2FB03239B0C013B1748B7
:10078400174A026040F2E732C2604360002303610B
:100794008360836100F0A6FB054630B1284609B0AA
:1007A40030BD02F0F5FE4300E4E70C4800F056FAD1
:1007B40005460028F2D1362003F034F90F2C01D974
:1007C4000125EBE700222146362003F01BF9054BF7
:1007D4001C60E3E70010024083DE1B43C0030020DB
:1007E400001000409401002008B500220F49104871
:1007F40003F0A1F970B90F490D4803F0B3F960B9DA
:100804000D490B4804F01EF850B9094803F0B1F93A
:1008140048B908BDFFF7B2FDEDE7FFF7AFFDEFE71D
:10082400FFF7ACFDF1E7FFF7A9FDF2E77800002040
:1008340008040020C00200209400002012230B8032
:10084400004870476400002004230B800048704770
:1008540060000020002393421ED200B510E00CF18A
:10086400370C01F813C000014FEA430C0CF1010CE2
:100874004FF0000E01F80CE00133DBB2934209D2D1
:100884004FEA107CB0F1204FE9D20CF1300C01F8A2
:1008940013C0E8E75DF804FB7047000038B50B4B64
:1008A400D3F8E807D3F8EC47D3F8F037C01800D1F1
:1008B40038BD074D08222946FFF7CCFF042205F175
:1008C40010012046FFF7C6FFF2E700BF00F0FF1F4C
:1008D4004600002008B51A230B80FFF7DFFF01480C
:1008E40008BD00BF4400002008B50A4628B90549E0
:1008F400054803F096FD034808BD0249024803F089
:1009040090FDF8E7CC060020B04A000810B50A466E
:10091400034C2146034803F084FD204610BD00BF6C
:10092400CC060020D04A000808B50A4628B9054973
:10093400054803F076FD034808BD0249024803F068
:1009440070FDF8E7CC060020E44A000808B50A4622
:1009540028B90549054803F064FD034808BD024968
:10096400024803F05EFDF8E7CC060020F84A0008D0
:10097400002070470020704700207047022805D8E7
:10098400DFE800F0050402000120704702207047F0
:1009940002680E4B9A4200D0704700B583B003F54D
:1009A400DA33DA6942F40002DA61DB6903F4000342
:1009B4000193019B00221146142003F023F8142014
:1009C40003F030F803B05DF804FB00BF005C0040A6
:1009D40008B500F52671D0F8D40203F0E2F808BD9A
:1009E40008B501EB810300EBC303D3F86421D0F80D
:1009F400D40203F003F908BD08B501EB810300EB51
:100A0400C3035A6AD0F8D40203F03EF908BD08B50E
:100A1400D0F8D40203F0DFF908BD10B50446837999
:100A2400022B09D10121D4F8D40203F0BDF9D4F882
:100A3400D40203F091F910BDFFF7A0FCF2E7000027
:100A440010B50446D0F8D40203F0B1F9A37A23B167
:100A5400024A136943F00603136110BD00ED00E080
:100A640008B5D0F8D40203F0ABF908BD10B50446BC
:100A74004848C0F8D442C4F8C002474B0360082376
:100A840003710223837100238372C372037300F022
:100A940023FB00287BD1402300221146D4F8C00256
:100AA40001F088FA602300228021D4F8C00201F00A
:100AB40081FA802300228121D4F8C00201F07AFA5D
:100AC400A02300220121D4F8C00201F073FAC0234C
:100AD40000228221D4F8C00201F06CFAE023002243
:100AE4000221D4F8C00201F065FA4FF480730022A9
:100AF4008321D4F8C00201F05DFA4FF49073002210
:100B04000321D4F8C00201F055FA4FF4A073002277
:100B14008421D4F8C00201F04DFA4FF4B0730022DE
:100B24000421D4F8C00201F045FA4FF4C073002246
:100B34008521D4F8C00201F03DFA4FF4D0730022AD
:100B44000521D4F8C00201F035FA4FF4E073002215
:100B54008621D4F8C00201F02DFA4FF4F07300227C
:100B64000621D4F8C00201F025FA4FF4F4730022F0
:100B74008721D4F8C00201F01DFA4FF4F873002263
:100B84000721D4F8C00201F015FA002010BDFFF7C8
:100B9400F5FB80E7E8080020005C004008B5D0F8C9
:100BA400C00200F00DFBFFF7E9FE08BD08B594464E
:100BB4001A466346D0F8C00201F0C2F8FFF7DEFE21
:100BC40008BD08B5D0F8C00201F0FCF8FFF7D6FE66
:100BD40008BD08B5D0F8C00201F06DF9FFF7CEFEEC
:100BE40008BD08B5D0F8C00201F0A5F9FFF7C6FEAC
:100BF40008BDD0F8C03211F0800F08D101F07F0198
:100C040001EB810103EBC10393F85201704701F03A
:100C14007F0101EB810103EBC103987C704708B5A8
:100C2400D0F8C00200F0A1FFFFF7A8FE08BD08B588
:100C3400D0F8C00201F019F9FFF7A0FE08BD08B50D
:100C4400D0F8C00201F0F4F8FFF798FE08BD0000E8
:100C540000487047CC0800207047704790F83D303A
:100C6400DBB2012B2FD1022380F83D300268D36818
:100C740043F00103D3600368154A934218D002F588
:100C84000062934214D0B3F1804F11D0A2F5983290
:100C940093420DD002F58062934209D002F580623E
:100CA400934205D01A6842F001021A60002070478E
:100CB4009A6802F00702062A07D01A6842F0010275
:100CC4001A6000207047012070470020704700BF61
:100CD400002C0140704770477047704770B5044658
:100CE4000368DE681D6915F0020F10D016F0020FBC
:100CF4000DD06FF002021A610123037703689B6928
:100D040013F0030F5ED0FFF7E6FF0023237715F0FF
:100D1400040F12D016F0040F0FD023686FF00402F2
:100D24001A610223237723689B6913F4407F4FD011
:100D34002046FFF7D0FF0023237715F0080F12D0C9
:100D440016F0080F0FD023686FF008021A6104230D
:100D540023772368DB6913F0030F40D02046FFF7A5
:100D6400BAFF0023237715F0100F12D016F0100FDE
:100D74000FD023686FF010021A61082323772368C9
:100D8400DB6913F4407F31D02046FFF7A4FF002332
:100D9400237715F0010F02D016F0010F2DD115F0B5
:100DA400800F02D016F0800F2FD115F0400F02D023
:100DB40016F0400F31D115F0200F02D016F0200F9D
:100DC40033D170BDFFF786FF2046FFF785FF9CE710
:100DD4002046FFF77FFF2046FFF77EFFABE7204664
:100DE400FFF778FF2046FFF777FFBAE72046FFF7C3
:100DF40071FF2046FFF770FFC9E723686FF0010217
:100E04001A612046FFF7AEFAC9E723686FF0800243
:100E14001A61204600F0D1F8C7E723686FF040025A
:100E24001A612046FFF759FFC5E723686FF02002D7
:100E34001A61204600F0C0F8C3E700000368284A9E
:100E4400904212D002F5006290420ED0B0F1804F71
:100E54000BD0A2F59832904207D002F580629042FE
:100E640003D002F58062904203D123F070034A68F4
:100E740013431B4A904212D002F5006290420ED0F6
:100E8400B0F1804F0BD0A2F59832904207D002F512
:100E94008062904203D002F58062904203D123F431
:100EA4004073CA68134323F080034A691343036001
:100EB4008B68C3620B688362094B984203D003F5C5
:100EC4000063984201D10B69036301234361036901
:100ED40013F0010F03D0036923F00103036170478A
:100EE400002C014040B310B5044690F83D30F3B1F6
:100EF400022384F83D30214651F8040BFFF79EFF8E
:100F0400012384F8463084F83E3084F83F3084F876
:100F1400403084F8413084F8423084F8433084F817
:100F2400443084F8453084F83D30002010BD80F80A
:100F34003C30FFF713FBDBE70120704790F83C20BF
:100F4400012A34D010B40346012280F83C20022246
:100F540080F83D2002685068946820F0700C08689E
:100F640040EA0C0050601A681248824212D000F520
:100F7400006082420ED0B2F1804F0BD0A0F59830C1
:100F8400824207D000F58060824203D000F5806081
:100F9400824204D124F080044968214391600122F3
:100FA40083F83D20002083F83C0010BC70470220E9
:100FB400704700BF002C01407047704738B512F4E9
:100FC400804F44D00468B4F850309BB291F800C00C
:100FD40003EBCC03023304EB4304B4F80044C4F33E
:100FE40009048B69A34228D31B1B8B618B697BB9D2
:100FF400056835F82C309BB223F4804323F070034A
:1010040083F4005343F4004343F0800325F82C3069
:1010140012F0400F0ED002680D7832F825309BB2E2
:1010240023F4E04323F0700343F4004343F0C0038C
:1010340022F8253024B9204638BD00238B61D5E73A
:1010440023460A894969006801F04DFFF3E7046803
:10105400B4F850309BB291F800C003EBCC030633D4
:1010640004EB4304B4F80044C4F309048B69A342B9
:101074002FD31B1B8B618B697BB9056835F82C302A
:101084009BB223F4804323F0700383F4005343F4AE
:10109400004343F0800325F82C3012F0400F0FD1A9
:1010A400026891F800C032F82C309BB223F4E0437C
:1010B40023F0700343F4004343F0C00322F82C30C0
:1010C400002CB8D023464A894969006801F00BFF17
:1010D400B1E700238B61CEE738B500286ED0044613
:1010E40090F89132A3B1032384F891320023637101
:1010F400206800F08BFF234653F8040B0ECB00F05E
:1011040075FF50B1022384F891320125284638BD79
:1011140080F89032FFF73CFCE5E70021206800F0FE
:101124007FFF034608B9024615E0022384F8913292
:101134000125EBE702EB820104EBC10101204874B5
:101144000A740020C87408624862013202EB82010A
:10115400C9006050D2B220799042EBD816E003EB7C
:10116400830204EBC202002182F8511182F850314B
:1011740082F85311C2F86011C2F8641103EB8302C0
:1011840004EBC202C2F868110133DBB29842E6D81C
:10119400234653F8040B0ECB00F044FF054620B160
:1011A400022384F891320125B0E7002363730123FD
:1011B40084F89132206801F094FAA7E70125A5E7A5
:1011C40038B590F89032012B11D00446012580F8EF
:1011D4009052006800F011FF29462046FFF73DFDBC
:1011E400206801F07CFA002084F8900238BD0220C7
:1011F400FCE770B505460C46164612F0400F00F0A9
:101204000E810268B2F850309BB2097803EBC10337
:10121400023302EB4302B2F80024C2F30902A369C9
:1012240093424ED99B1AA361A369002B66D16378BC
:10123400002B49D12B68B3F8502092B2134403EB2E
:101244000113B3F80424C2F30902A3F80424B3F885
:1012540004246FEA42426FEA524292B2A3F8042491
:101264002B686278002A3CD1B3F8502092B2134420
:10127400227803EB0213B3F80C24C2F30902A3F897
:101284000C24B3F80C246FEA42426FEA524292B241
:10129400A3F80C2421782846FFF7AEFB16F4804F00
:1012A40041D02A68217832F821309BB223F4E043FC
:1012B40023F0700343F4404343F0800322F82130C9
:1012C40031E00023A361AFE7012BC9D12B68B3F848
:1012D400502092B2134403EB01130022A3F8042418
:1012E400BEE7012AD6D1B3F8502092B21344227833
:1012F40003EB02130022A3F80C24CBE716F4804F6F
:101304000DD0286830F821309BB223F4E04323F059
:10131400700343F4404343F0800320F8213094F8F1
:101324002430012B12D02A68217832F821309BB264
:1013340023F4E04323F0400383F0300343F40043F9
:1013440043F0800322F82130002070BD6369134408
:101354006361E3691344E361216A2369994224D3F5
:10136400C91A21626278002A44D12A68B2F850105E
:1013740089B20A44217802EB0112B2F80414C1F3D1
:101384000901A2F804143E2B1BD9580913F01F0FAE
:1013940000D10138B2F8041489B2800280B201434A
:1013A40041F40041A2F8041426E021B9002384F892
:1013B40024301346D6E7002384F8243023620B46F6
:1013C400D0E74BB9B2F804146FEA41416FEA5141D6
:1013D40089B2A2F804140FE0590813F0010F00D0E9
:1013E4000131B2F8040480B2890289B20143A2F83F
:1013F400041401E0012A06D09BB22289616928689D
:1014040001F077F98FE72A68B2F8501089B20A44DC
:10141400217802EB011299B2A2F80414ECE70268F5
:10142400B2F850309BB2097803EBC103063302EBE8
:101434004302B2F80024C2F30902A36993424FD3D2
:101444009B1AA361A369002B67D16378002B4AD14F
:101454002B68B3F8502092B2134403EB0113B3F892
:101464000424C2F30902A3F80424B3F804246FEAA1
:1014740042426FEA524292B2A3F804242B68627883
:10148400002A3DD1B3F8502092B21344227803EBE2
:101494000213B3F80C24C2F30902A3F80C24B3F822
:1014A4000C246FEA42426FEA524292B2A3F80C242F
:1014B40021782846FFF7A0FA16F4804F7FF433AF63
:1014C4002A68217832F821309BB223F4E04323F0D8
:1014D400700343F4404343F0800322F8213022E7B1
:1014E4000023A361AEE7012BC8D12B68B3F85020C9
:1014F40092B2134403EB01130022A3F80424BDE7C2
:10150400012AD5D1B3F8502092B21344227803EBC8
:1015140002130022A3F80C24CAE716F4804F0DD15D
:10152400286830F821309BB223F4E04323F07003A1
:1015340043F4404343F0800320F8213094F82430EE
:10154400012B7FF4F0AE636913446361E3691344D0
:10155400E361216A2369994224D3C91A21622A6862
:101564006178002943D1B2F8501089B20A44217835
:1015740002EB0112B2F80C14C1F30901A2F80C1425
:101584003E2B1BD9580913F01F0F00D10138B2F8B4
:101594000C1489B2800280B2014341F40041A2F8E4
:1015A4000C1426E021B9002384F824301346D6E72E
:1015B4000023236284F824300B46D0E74BB9B2F8F9
:1015C4000C146FEA41416FEA514189B2A2F80C143C
:1015D4000FE0590813F0010F00D00131B2F80C04E8
:1015E40080B2890289B20143A2F80C1401E00129F6
:1015F40006D09BB262896169286801F07AF892E6A4
:10160400B2F8501089B20A44217802EB011299B25F
:10161400A2F80C14EDE72DE9F04105462868B0F86E
:10162400443013F4004F00F09D82B0F84440A3B25C
:1016340014F00F0440F0DE8013F0100F6BD0038819
:101644009AB213F4006F40F0998012F4004FE5D081
:10165400038823F070031B051B0D43F080030380F4
:101664002868B0F850309BB295F8502103EBC203C0
:10167400063300EB4303B3F80034C3F30903C5F89E
:101684006C318BB1D5F8641171B1B5F8562101F004
:101694002AFCD5F86431D5F86C211344C5F86431BB
:1016A40000212846FFF79CF92A68138899B213F49D
:1016B400006FB3D101F44051B1F5405FAED0B2F840
:1016C40050309BB21A44B2F80C34C3F30903A2F8A5
:1016D4000C34D5F860313E2B73D9590913F01F0F20
:1016E40000D10139B2F80C349BB2890289B20B43A0
:1016F40043F40043A2F80C342A6813889BB223F401
:10170400804323F0700383F4405343F4004343F0D5
:101714008003138082E703889BB223F4E14323F020
:1017240070036FEA43436FEA53439BB203802A6812
:10173400B2F850309BB2297C03EBC103023302EBB5
:101744004302B2F80034C3F30903EB626A6A1A4431
:101754006A6200212846FFF74FF96B7B002B3FF4A8
:101764005DAFAB6A002B7FF459AF6B7B2A6843F003
:101774008003A2F84C3000236B734FE7B0F850306D
:101784009BB295F8502103EBC203063300EB4303ED
:10179400B3F80034C3F30903C5F86C31B5F8562126
:1017A40005F5267101F09FFB2A68138823F0700366
:1017B4001B051B0D43F0800313802846FFF708F92F
:1017C4002CE74BB9B2F80C346FEA43436FEA534346
:1017D4009BB2A2F80C348FE7590813F0010F00D024
:1017E4000131B2F80C3498B28B029BB20343A2F8D5
:1017F4000C3481E730F824309EB213F4004F50D1FA
:1018040016F0800F3FF40AAF04EB8401C9001031D5
:1018140029442A6832F824309BB223F4E14323F0AC
:1018240070036FEA43436FEA53439BB222F82430B8
:1018340004EB840305EBC303DB7C012B00F0F28093
:1018440016F4807F40F089812868B0F850309BB24C
:1018540004EB840205EBC202167C03EBC6030233DD
:1018640000EB4303B3F80034C3F30903621C02EB37
:10187400820255F832209A4240F25281671C07EBEB
:101884008707D21A45F83720621C02EB820255F80A
:101894003220002A40F04B8131462846FFF7ACF84D
:1018A400BCE630F8243023F070031B051B0D43F015
:1018B400800320F8243004EB8401C90001F5A871E9
:1018C40005EB010804EB840305EBC30393F85C31D7
:1018D400002B42D12868B0F850309BB204EB84024C
:1018E40005EBC20292F8502103EBC203063300EB6E
:1018F4004303B3F80074C7F3090717BB04EB84036D
:1019040005EBC303D3F86C213A44C3F86C21D3F834
:1019140064213A44C3F86421D3F868313BB104EB41
:10192400840305EBC303D3F860319F4275D204EB03
:10193400840305EBC30393F850112846FFF750F8CE
:101944005EE704EB840105EBC1013B46B1F8562187
:10195400D1F8641101F0C7FAD0E704EB840305EB76
:10196400C30393F85331022B35D0296804EB840266
:1019740005EBC20292F8500131F820309BB223F4F7
:10198400E04323F0700343F4004343F0C00321F821
:101994002030286892F8502130F8223013F4804F18
:1019A40020D0B0F850309BB203EBC203023300EBFB
:1019B4004303B3F80074C7F30907002F9ED004EB68
:1019C400840105EBC1013B46B1F85821D1F86411FB
:1019D40001F089FA92E7324641462846FFF7EEFACB
:1019E40007468BE7B0F850309BB203EBC2030633D3
:1019F40000EB4303B3F80074C7F30907002F3FF467
:101A04007DAF04EB840105EBC1013B46B1F85A21DB
:101A1400D1F8641101F067FA70E74146286800F0D4
:101A24007BFEEDE6631C03EB8303DB000022EA503C
:101A340004EB840305EBC3031B7F1BB316F0400FB9
:101A44003BD004EB840305EBC3035B7C1BBB2B681B
:101A5400B3F8502092B2134404EB840205EBC202A3
:101A6400127C03EB0213B3F80424C2F30902A3F8B3
:101A74000424B3F804246FEA42426FEA524292B259
:101A8400A3F8042404EB840405EBC404217C284655
:101A9400FEF7B2FFC2E5012BF4D12B68B3F8502056
:101AA40092B2134404EB840205EBC202127C03EBF2
:101AB40002130022A3F80424E4E72B6804EB840255
:101AC40005EBC202527CD2B9B3F8502092B213444F
:101AD40004EB840205EBC202127C03EB0213B3F89D
:101AE4000C24C2F30902A3F80C24B3F80C246FEA03
:101AF40042426FEA524292B2A3F80C24C2E7012A8E
:101B0400C0D1B3F8502092B2134404EB840205EB25
:101B1400C202127C03EB02130022A3F80C24B1E7E7
:101B2400621C02EB8202D2000027AF50ACE604EB49
:101B3400840205EBC202566A1E445662013404EB69
:101B4400840205EBC202526804EB840405EBC4046E
:101B54001344636000F0E0FD60E532462846FFF779
:101B640048FB5BE50020BDE8F08190F89032012B42
:101B74000CD010B50446012380F8903241730068FC
:101B840000F0A7FD002084F8900210BD02207047E9
:101B940010B584B00446006800F0A5FD10F4004FB1
:101BA40020D110F4806F21D110F4804F2FD110F484
:101BB400005F37D110F4805F3ED110F4006F40F025
:101BC400878010F4007F40F0AE8010F4807F27D02F
:101BD4002268B2F844309BB223F480739BB2A2F81B
:101BE40044301DE02046FFF716FD19E02268B2F8E4
:101BF40044309BB223F480639BB2A2F84430204665
:101C0400FEF70BFF00212046FFF7AFFF08E0226834
:101C1400B2F844309BB223F480439BB2A2F8443020
:101C240004B010BD2268B2F844309BB223F40053D0
:101C34009BB2A2F84430F3E72268B2F840309BB27A
:101C440023F004039BB2A2F840302268B2F840307B
:101C54009BB223F008039BB2A2F840302046FEF763
:101C6400FFFE2268B2F844309BB223F480539BB247
:101C7400A2F84430D4E7226832F8231004AA02EB15
:101C8400430222F8101C0133DBB2072BF3D922687C
:101C9400B2F840309BB243F00103A2F8403022680E
:101CA400B2F840309BB223F001039BB2A2F840305B
:101CB4002368B3F8442012F4806FF9D0B3F84420B9
:101CC40092B222F4806292B2A3F8442000230BE083
:101CD4000023DAE7226804A901EB430131F8101C60
:101CE40022F823100133DBB2072BF3D92268B2F8B0
:101CF40040309BB243F00803A2F840302268B2F8A7
:101D040044309BB223F400639BB2A2F844302268AF
:101D1400B2F840309BB243F00403A2F840302046AE
:101D2400FEF78EFE7CE72268B2F844309BB223F4BF
:101D340000739BB2A2F844302046FEF768FE6FE7BA
:101D440010B50446084611F0800F26D101F0070CA7
:101D54000CEB8C0E4FEACE0E0EF5A87E04EB0E01B2
:101D64000CEB8C0C04EBCC0C4FF0000E8CF851E116
:101D740000F0070008700A61CB70022B1DD094F8A4
:101D84009032012B1CD0012384F89032206800F09B
:101D94005AF9002084F8900210BD01F0070C0CEBF6
:101DA4008C01C900103121440CEB8C0C04EBCC0CDD
:101DB4004FF0010E8CF811E0DAE700230B71DEE737
:101DC4000220E9E710B504460A4611F0800F1FD13E
:101DD40001F0070000EB8003DB0003F5A873E118B2
:101DE40000EB800004EBC000002380F8513102F0C6
:101DF40007020A7094F89032012B17D0012384F85B
:101E04009032206800F004FB002084F8900210BD9A
:101E140001F0070000EB8003DB001033E11800EB56
:101E2400800004EBC00001234374E0E70220EEE7E6
:101E340010B501F0070C0CEB8C01C90001F5A87179
:101E44000CEB8C0E00EBCE0ECEF86421CEF868318C
:101E54000024CEF86C418EF851418EF850C10144F3
:101E6400006800F059FC204610BD38B501F0070C9D
:101E74000CEB8C01C90010310CEB8C0E00EBCE0E78
:101E8400CEF824200CF1010202EB820440F8343035
:101E940001258EF83450CEF8303000EBC402002413
:101EA40054608EF811508EF810C00144006800F0A0
:101EB40033FC204638BD38B501F007050279AA4243
:101EC40035D304460B4611F0800F1ED101EB81017E
:101ED400C90001F5A871014403EB830300EBC303BC
:101EE400002283F8512101238B700D7094F89032F5
:101EF400012B1ED0012384F89032206800F073FB7C
:101F04007DB1002084F8900238BD05EB8501C9003D
:101F14001031014405EB850300EBC30301225A741D
:101F2400E1E704F52671206800F0E1FBE9E7012010
:101F3400EAE70220E8E70B46017903F00F02914239
:101F440034D310B5044613F0800F21D103F00702F7
:101F540002EB8201C90001F5A871014402EB82027F
:101F640000EBC202002082F8510100228A7003F0C3
:101F740007030B7094F89032012B19D0012384F8D5
:101F84009032206800F054FB002084F8900210BDC9
:101F940003F0070202EB8201C9001031014402EB95
:101FA400820200EBC20201205074DEE70120704778
:101FB4000220ECE711F0800F0BD001F0070101EBD8
:101FC4008101C9001031084452B90273C380002052
:101FD400704701EB8101C90001F5A8710844F3E7DA
:101FE4000122027303811B0C4381F0E784B004A82F
:101FF40000E90E00002004B0704703460020A3F857
:1020040044004FF43F42A3F840207047B0F84030FA
:1020140023F47C535B045B0CA0F840300020704731
:102024000020704784B0844604A800E90E00012310
:10203400ACF840300020ACF84000ACF84400ACF8F8
:10204400500004B0704710B5034691F800C030F852
:102054002C2092B222F4EC4222F0700292B2C878A0
:10206400032861D8DFE800F0555C0258002048F2EC
:10207400800E42EA0E0223F82C2091F800C033F8B7
:102084002C2092B222F4E04222F0700242EA0C02C6
:1020940042EA0E0223F82C200A7B002A40F0DC805E
:1020A4004A78002A51D0B3F8502092B21A440C78DE
:1020B40002EB0412B1F806C04FEA5C0C4FEA4C0C78
:1020C400A2F800C40C7833F8242012F0400F0CD08E
:1020D40033F8242092B222F4E04222F0700242F457
:1020E400004242F0C00223F82420CA78012A1DD0FD
:1020F400097833F8212092B222F4E04222F040021F
:1021040082F0200242F4004242F0800223F82120AF
:1021140017E142F40072AAE742F4C0620020A6E785
:1021240042F480620020A2E70120A0E7097833F896
:10213400212092B222F4E04222F0400242F4004212
:1021440042F0800223F82120FBE0B3F8502092B241
:102154001A440C7802EB0412B1F806C04FEA5C0C86
:102164004FEA4C0CA2F808C4B3F8502092B21A44B7
:102174000C7802EB0412B2F80CC4CCF3090CA2F8EC
:102184000CC40C693E2C39D94FEA541E14F01F0FAD
:1021940001D10EF1FF3EB2F80CC41FFA8CFC4FEAD9
:1021A4008E2E1FFA8EFE4CEA0E0C4CF4004CA2F854
:1021B4000CC40C7833F8242012F4804F0CD033F87C
:1021C400242092B222F4E04222F0700242F440420F
:1021D40042F0800223F82420097869BB33F82120D7
:1021E40092B222F4804222F0700282F4405242F40D
:1021F400004242F0800223F82120A2E04CB9B2F858
:102204000C446FEA44446FEA5444A4B2A2F80C4468
:10221400CFE74FEA540C14F0010F01D00CF1010C7C
:10222400B2F80C44A4B24FEA8C2C1FFA8CFC44EA9A
:102234000C04A2F80C44BCE733F8212092B222F437
:10224400804222F0700282F4005242F4004242F0D2
:10225400800223F8212074E0CA78022A72D00C7814
:1022640033F8242092B222F4E24222F0700242F4C3
:10227400004242F0800223F82420B3F8502092B2A6
:102284001A4491F800C002EB0C12B1F808C04FEAEE
:102294005C0C4FEA4C0CA2F800C4B3F8502092B284
:1022A4001A4491F800C002EB0C12B1F80AC04FEACC
:1022B4005C0C4FEA4C0CA2F808C44A78002A50D1AE
:1022C4000C7833F8242012F4804F0CD033F82420F7
:1022D40092B222F4E04222F0700242F4404242F010
:1022E400800223F824200C7833F8242012F0400FC5
:1022F4000CD033F8242092B222F4E04222F070028F
:1023040042F4004242F0C00223F8242091F800C0B5
:1023140033F82C2092B222F4804222F0700282F42C
:10232400405248F28004224323F82C20097833F8E1
:10233400212092B222F4E04222F04002224323F808
:10234400212010BD0C7833F8242092B222F4E0420C
:1023540022F0700242F4014242F0800223F8242069
:102364008BE70C7833F8242012F4804F0CD033F828
:10237400242092B222F4E04222F0700242F440425D
:1023840042F0800223F824200C7833F8242012F041
:10239400400F0CD033F8242092B222F4E04222F011
:1023A400700242F4004242F0C00223F82420CA78AA
:1023B400012A1ED00C7833F8242092B222F4E04291
:1023C40022F0400282F0200242F4004242F08002F5
:1023D40023F82420097833F8212092B222F4804291
:1023E40022F0700242F4004242F0800223F82120DD
:1023F400A7E70C7833F8242092B222F4E04222F0CA
:10240400400242F4004242F0800223F82420E1E733
:102414000B7B002B46D14B7813B30A7830F822306B
:1024240013F0400F0CD030F822309BB223F4E04379
:1024340023F0700343F4004343F0C00320F8223038
:102444000A7830F822309BB223F4E04323F04003AF
:1024540043F4004343F0800320F822300020704707
:102464000A7830F8223013F4804F0CD030F8223040
:102474009BB223F4E04323F0700343F4404343F05E
:10248400800320F822300A7830F822309BB223F4FB
:10249400804323F0700343F4004343F0800320F8A7
:1024A4002230DBE74B78002B4ED10A7830F822300B
:1024B40013F4804F0CD030F822309BB223F4E04365
:1024C40023F0700343F4404343F0800320F82230A8
:1024D4000A7830F8223013F0400F0CD030F8223054
:1024E4009BB223F4E04323F0700343F4004343F02E
:1024F400C00320F822300A7830F822309BB223F44B
:10250400E04323F0700343F4004343F0C00320F896
:1025140022300A7830F822309BB223F4804323F02F
:10252400700348F2800C43EA0C0320F822300A7846
:1025340030F822309BB223F4E04323F0400343EA13
:102544000C0320F8223089E70A7830F8223013F49B
:10255400804F0CD030F822309BB223F4E04323F0B8
:10256400700343F4404343F0800320F822300A7898
:1025740030F8223013F0400F0CD030F822309BB2E8
:1025840023F4E04323F0700343F4004343F0C00317
:1025940020F822300A7830F822309BB223F4E0434A
:1025A40023F0700343F4404343F0800320F82230C7
:1025B4000A7830F822309BB223F4E04323F040033E
:1025C40048F2800C43EA0C0320F822300A7830F8F1
:1025D40022309BB223F4804323F0700343EA0C03BC
:1025E40020F822303AE74B788BB10A7830F8223061
:1025F4009BB223F4E04323F0400383F0100343F43D
:10260400004343F0800320F82230002070470A780A
:1026140030F822309BB223F4804323F0700383F418
:10262400805343F4004343F0800320F82230ECE766
:102634000B7B002B4BD14B7833B30A7830F8223024
:1026440013F0400F0CD030F822309BB223F4E04357
:1026540023F0700343F4004343F0C00320F8223016
:10266400CB78012B33D00A7830F822309BB223F494
:10267400E04323F0400383F0200343F4004343F09A
:10268400800320F8223022E00A7830F8223013F454
:10269400804F0CD030F822309BB223F4E04323F077
:1026A400700343F4404343F0800320F822300A7857
:1026B40030F822309BB223F4804323F0700383F478
:1026C400405343F4004343F0800320F822300020B9
:1026D400704711B98023A0F84C30002070470020C7
:1026E400704700207047B0F8440080B27047002063
:1026F400704701335B0800EB420000F5806008E09E
:102704000A7891F801C042EA0C2220F8042B023125
:10271400013B002BF4D1704770B505460C464A784E
:10272400012A3BD00B7B002B40F0A6828B690A69FF
:10273400934240F284829B1A8B61B5F850309BB26D
:102744002B44217803EB0113B3F80C14C1F30901F2
:10275400A3F80C143E2A40F27682510912F01F0F9E
:1027640000D10139B3F80C2492B2890289B20A4328
:1027740042F40042A3F80C24227835F822309BB2AC
:1027840023F4804323F0700383F4405343F4004361
:1027940043F0800325F82230002070BD8E6909695A
:1027A4008E4200D90E46237B73B3E378022B4DD0BF
:1027B400236A9B1B2362217835F8213013F0400FE4
:1027C40000F0F581002A40F0E281B5F850309BB268
:1027D4002B4403EB0113B3F80C24C2F30902A3F84E
:1027E4000C243E2E40F2BA81710916F01F0F00D15D
:1027F4000139B3F80C2492B2890289B20A4342F433
:102804000042A3F80C24CBE1B6B23346E2886169F6
:102814002846FFF76EFFB5F850309BB22B44227860
:1028240003EB0213A3F80464227835F822309BB238
:1028340023F4E04323F0400383F0300343F40043E4
:1028440043F0800325F822300020A6E7236A99424A
:1028540080F06681227835F822309BB223F4E0437D
:1028640023F0700343F4014343F0800325F822303E
:10287400236A9B1B2362227835F8223013F0400F21
:1028840000F0A7806378B3BBB5F850309BB22B44FB
:1028940003EB0213B3F80C24C2F30902A3F80C24CB
:1028A4003E2E0FD9710916F01F0F00D10139B3F86C
:1028B4000C2492B2890289B20A4342F40042A3F87A
:1028C4000C241AE04EB9B3F80C246FEA42426FEAC2
:1028D400524292B2A3F80C240FE0720816F0010FD2
:1028E40000D00132B3F80C1489B2920292B20A43B6
:1028F400A3F80C2401E0012B30D0B3B262896169E2
:102904002846FFF7F6FE636933446361236A22694C
:1029140093422DD99B1B23626378002B45D1B5F8D4
:1029240050309BB22B44227803EB0213B3F80424F7
:10293400C2F30902A3F804243E2E1DD9710916F02E
:102944001F0F00D10139B3F8042492B2890289B26D
:102954000A4342F40042A3F8042428E0B5F85030B6
:102964009BB22B4403EB0213B2B2A3F80C24C4E7CA
:10297400002222621E46CFE74EB9B3F804246FEA60
:1029840042426FEA524292B2A3F804240FE0720862
:1029940016F0010F00D00132B3F8041489B2920288
:1029A40092B20A43A3F8042401E0012B06D0B3B287
:1029B400228961692846FFF79CFE35E7B5F8503057
:1029C4009BB22B44227803EB0213B2B2A3F8042483
:1029D400EDE76378B3BBB5F850309BB22B4403EBFF
:1029E4000213B3F80424C2F30902A3F804243E2E0C
:1029F4000FD9710916F01F0F00D10139B3F804245F
:102A040092B2890289B20A4342F40042A3F8042430
:102A14001AE04EB9B3F804246FEA42426FEA524214
:102A240092B2A3F804240FE0720816F0010F00D04C
:102A34000132B3F8041489B2920292B20A43A3F8A1
:102A4400042401E0012B30D0B3B222896169284605
:102A5400FFF74FFE636933446361236A226993423B
:102A64002DD99B1B23626378002B45D1B5F85030D8
:102A74009BB22B44227803EB0213B3F80C24C2F369
:102A84000902A3F80C243E2E1DD9710916F01F0F5C
:102A940000D10139B3F80C2492B2890289B20A43F5
:102AA40042F40042A3F80C2428E0B5F850309BB25D
:102AB4002B4403EB0213B2B2A3F80424C4E70022AC
:102AC40022621E46CFE74EB9B3F80C246FEA4242A5
:102AD4006FEA524292B2A3F80C240FE0720816F087
:102AE400010F00D00132B3F80C1489B2920292B2F1
:102AF4000A43A3F80C2401E0012B06D0B3B2628987
:102B040061692846FFF7F5FD8EE6B5F850309BB2B3
:102B14002B44227803EB0213B2B2A3F80C24EDE7A2
:102B2400217835F8212092B222F4E24222F0700298
:102B340042F4004242F0800225F82120B5F85020EA
:102B440092B22A44217802EB01129BB2A2F8043417
:102B5400228961692846FFF7CCFD65E64EB9B3F8D2
:102B64000C246FEA42426FEA524292B2A3F80C2458
:102B740016E0720816F0010F00D00132B3F80C14FD
:102B840089B2920292B20A43A3F80C2408E0B5F881
:102B940050309BB22B4403EB0113B2B2A3F80C24C4
:102BA400B3B2628961692846FFF7A3FD3CE6B2BB74
:102BB400B5F850309BB22B4403EB0113B3F8042453
:102BC400C2F30902A3F804243E2E0FD9710916F0AA
:102BD4001F0F00D10139B3F8042492B2890289B2DB
:102BE4000A4342F40042A3F8042421E04EB9B3F8A6
:102BF40004246FEA42426FEA524292B2A3F80424D8
:102C040016E0720816F0010F00D00132B3F8041474
:102C140089B2920292B20A43A3F8042408E0B5F8F8
:102C240050309BB22B4403EB0113B2B2A3F804243B
:102C3400B3B2228961692846FFF75BFDF4E50022FF
:102C44008A611A4679E54AB9B3F80C246FEA42421C
:102C54006FEA524292B2A3F80C248DE5510812F0A7
:102C6400010F00D00131B3F80C2492B2890289B269
:102C74000A43A3F80C247FE5CB78022B4DD0012B1B
:102C840040F02F8189692369994240F2E680C91A8C
:102C9400A161F2B9B5F8502092B22A44217802EB2E
:102CA4000112B2F80414C1F30901A2F804143E2B72
:102CB40040F2D780580913F01F0F00D10138B2F841
:102CC400041489B2800280B2014341F40041A2F8A5
:102CD40004146278002A40F0F680B5F8502092B2CD
:102CE4002A44217802EB0112B2F80C14C1F3090151
:102CF400A2F80C143E2B40F2CD80590913F01F0F9B
:102D040000D10139B2F80C349BB2890289B20B4369
:102D140043F40043A2F80C342EE5F2B9B0F8503075
:102D24009BB203440A7803EB0213B3F80424C2F3FE
:102D34000902A3F804240A693E2A31D9510912F080
:102D44001F0F00D10139B3F8042492B2890289B269
:102D54000A4342F40042A3F804246378002B51D1BF
:102D6400B5F850309BB22B44227803EB0213B3F82E
:102D74000C24C2F30902A3F80C2422693E2A28D9A0
:102D8400510912F01F0F00D10139B3F80C2492B28B
:102D9400890289B20A4342F40042A3F80C2433E0C6
:102DA4004AB9B3F804246FEA42426FEA524292B23B
:102DB400A3F80424D1E7510812F0010F00D0013127
:102DC400B3F8042490B28A0292B20243A3F8042412
:102DD400C3E74AB9B3F80C246FEA42426FEA52429D
:102DE40092B2A3F80C240FE0510812F0010F00D0A6
:102DF4000131B3F80C2490B28A0292B20243A3F8D0
:102E04000C2401E0012B1DD0E369002B3FF4B4AC8A
:102E1400227835F8221044F2400303EA01008B4380
:102E240002D000287FF4A8AC35F822309BB223F4FA
:102E3400E04323F0700343F4004343F0C00325F858
:102E4400223099E4B5F850309BB22B44227803EB3E
:102E54000213228AA3F80C24D6E70023A3610B46AD
:102E640017E74BB9B2F804146FEA41416FEA5141D4
:102E740089B2A2F804142CE7590813F0010F00D00A
:102E84000131B2F8040480B2890289B20143A2F884
:102E940004141EE74BB9B2F80C346FEA43436FEAEB
:102EA40053439BB2A2F80C3466E4590813F0010FA3
:102EB40000D00131B2F80C3498B28B029BB20343B8
:102EC400A2F80C3458E4012A7FF456ACB5F850202B
:102ED40092B22A44217802EB01129BB2A2F80C347C
:102EE4004AE4012059E410B45C0800EB420000F508
:102EF400806007E030F8042B0A70C2F307224A709E
:102F04000231013C002CF5D113F0010F01D00388EC
:102F14000B7010BC7047000008B5074A136843F0F3
:102F240010031360032000F05BFD0F20FDF70CFC81
:102F3400FDF7E8FB002008BD00200240034A1168A9
:102F4400034B1B780B441360704700BFC00B002079
:102F540092010020014B1868704700BFC00B00208D
:102F640038B50446FFF7F6FF0546B4F1FF3F02D03B
:102F7400044B1B781C44FFF7EDFF401BA042FAD31F
:102F840038BD00BF9201002082B0084B1B68084A7C
:102F9400A2FB03235B0A00FB03F3019300BF019B25
:102FA4005A1E0192002BF9D102B0704798010020FB
:102FB400D34D6210002800F0F18170B582B0044650
:102FC400036813F0010F2CD0994B5B6803F00C03DA
:102FD400042B1DD0964B5B6803F00C03082B12D016
:102FE4006368B3F5803F41D0002B55D103F1804392
:102FF40003F504331A6822F480321A601A6822F442
:1030040080221A6037E08A4B5B6813F4803FE7D074
:10301400874B1B6813F4003F03D06368002B00F058
:10302400BF81236813F0020F75D0814B5B6813F0E6
:103034000C0F5FD07E4B5B6803F00C03082B54D05D
:103044002369002B00F08A807A4B01221A60FFF773
:1030540081FF0546764B1B6813F0020F75D1FFF70D
:1030640079FF401B0228F5D903209EE1704A1368BA
:1030740043F480331360636843B3FFF76BFF054683
:103084006B4B1B6813F4003FCBD1FFF763FF401B6E
:103094006428F5D9032088E1B3F5A02F09D0644B47
:1030A4001A6822F480321A601A6822F480221A60A4
:1030B400E1E703F18043A3F53C331A6842F480222C
:1030C4001A601A6842F480321A60D4E7FFF742FFAC
:1030D4000546574B1B6813F4003FA2D0FFF73AFF95
:1030E400401B6428F5D903205FE1514B5B6813F45E
:1030F400803FA5D14E4B1B6813F0020F03D0236908
:10310400012B40F04F814A4A136823F0F8036169A8
:1031140043EAC1031360236813F0080F33D0A36993
:10312400002B5CD0434B0122C3F88024FFF712FF2D
:1031340005463F4B5B6A13F0020F21D1FFF70AFFEC
:10314400401B0228F5D903202FE1394A136823F0E4
:10315400F803616943EAC1031360DCE7354B0022DD
:103164001A60FFF7F7FE0546314B1B6813F0020F98
:10317400D1D0FFF7EFFE401B0228F5D9032014E15C
:103184000120FFF701FF236813F0040F00F096807D
:10319400274BDB6913F0805F34D1254BDA6942F0A9
:1031A4008052DA61DB6903F080530193019B0125AE
:1031B400214B1B6813F4807F26D0E368012B3DD09C
:1031C400002B53D103F1804303F504331A6A22F030
:1031D40001021A621A6A22F004021A6233E0154BE1
:1031E4000022C3F88024FFF7B5FE0546104B5B6A46
:1031F40013F0020FC7D0FFF7ADFE401B0228F5D92C
:103204000320D2E00025D3E70B4A136843F480730C
:103214001360FFF79FFE0646074B1B6813F4807F7D
:10322400CBD1FFF797FE801B6428F5D90320BCE0BF
:103234000010024000004242007000405F4A136ADE
:1032440043F001031362E36833B3FFF783FE0646DA
:103254005A4B1B6A13F0020F2FD1FFF77BFE801B22
:1032640041F288339842F3D903209EE0052B09D01C
:10327400524B1A6A22F001021A621A6A22F00402FC
:103284001A62E0E74D4B1A6A42F004021A621A6AA3
:1032940042F001021A62D6E7FFF75CFE0646474B8E
:1032A4001B6A13F0020F08D0FFF754FE801B41F293
:1032B40088339842F3D9032077E0E5B9E369002B1A
:1032C40072D03E4A526802F00C02082A56D0022BF1
:1032D40017D03B4B00221A66FFF73CFE0446374BDF
:1032E4001B6813F0007F47D0FFF734FE001B022851
:1032F400F5D9032059E0314AD36923F08053D361CF
:10330400DCE72F4B00221A66FFF724FE05462B4B01
:103314001B6813F0007F06D0FFF71CFE401B022839
:10332400F5D9032041E0236AB3F5803F1AD023493D
:103334004B6823F47413226A606A024313434B609C
:103344001F4B01221A66FFF705FE04461B4B1B6840
:1033540013F0007F0ED1FFF7FDFD001B0228F5D905
:10336400032022E0154A536823F40033A1680B4379
:103374005360DCE7002018E0002016E0012B16D093
:103384000E4B5B6803F48031226A914211D103F43D
:103394007013626A93420ED1002006E00120704748
:1033A400012002E0012000E0002002B070BD0120F5
:1033B400FBE70120F9E70120F7E700BF0010024016
:1033C400000042420F4B5B6803F00C02082A01D054
:1033D4000D487047C3F383420C49885C13F4803F63
:1033E4000BD0084B5B68C3F34043094AD35C064ADD
:1033F40002FB00F0B0FBF3F07047064B03FB00F058
:10340400704700BF0010024000127A00144B0008FD
:10341400104B000800093D00002800F0A08070B5A2
:103424000D460446524B1B6803F007038B420BD234
:103434004F4A136823F007030B431360136803F028
:1034440007038B4240F08D80236813F0020F17D0DE
:1034540013F0040F04D0474A536843F4E063536005
:10346400236813F0080F04D0424A536843F46053AE
:103474005360404A536823F0F003A1680B43536040
:10348400236813F0010F31D06368012B20D0022B85
:1034940025D0384A126812F0020F64D035494A68C0
:1034A40022F0030213434B60FFF754FD0646314BF1
:1034B4005B6803F00C036268B3EB820F16D0FFF76E
:1034C40049FD801B41F288339842F0D9032045E03E
:1034D400284A126812F4003FE0D101203EE0254A58
:1034E400126812F0007FD9D1012037E0204B1B680D
:1034F40003F00703AB420AD91D4A136823F00703FC
:103504002B431360136803F00703AB422DD12368E8
:1035140013F0040F06D0174A536823F4E063E168FC
:103524000B435360236813F0080F07D0114A536804
:1035340023F46053216943EAC1035360FFF742FF58
:103544000C4B5B68C3F303130B4AD35CD8400B4B9F
:1035540018600B4B1868FDF7F7F8002070BD0120C8
:1035640070470120FAE70120F8E70120F6E700BFE1
:1035740000200240001002402C4B0008980100205B
:1035840094010020014B1868704700BF9801002087
:1035940008B5FFF7F7FF044B5B68C3F30223034A44
:1035A400D35CD84008BD00BF00100240244B000883
:1035B40008B5FFF7E7FF044B5B68C3F3C223034A74
:1035C400D35CD84008BD00BF00100240244B000863
:1035D4000F2303600B4B5A6802F0030242605A68DF
:1035E40002F0F00282605A6802F4E062C2605B6832
:1035F400DB0803F4E0630361034B1B6803F0070378
:103604000B607047001002400020024070B582B089
:103614000446036813F0010F36D03F4BDB6913F007
:10362400805F49D13C4BDA6942F08052DA61DB6950
:1036340003F080530193019B0125384B1B6813F45D
:10364400807F3BD0344B1B6A13F4407313D0626801
:1036540002F440729A420ED02F4A136A23F4407047
:103664002F490126C1F840640026C1F84064106265
:1036740013F0010F36D1284A136A23F440736168AA
:103684000B431362002D3ED1236813F0020F06D0C2
:10369400214A536823F44043A1680B4353602368D1
:1036A40013F0100F34D01C4A536823F4800361696B
:1036B4000B43536000202CE00025BEE7174A136833
:1036C40043F480731360FFF745FC0646134B1B68F5
:1036D40013F4807FB6D1FFF73DFC801B6428F5D935
:1036E400032016E0FFF736FC06460B4B1B6A13F06B
:1036F400020FC0D1FFF72EFC801B41F288339842A1
:10370400F3D9032005E0D36923F08053D361BBE7E9
:10371400002002B070BD00BF0010024000700040E5
:103724000000424270B582B00024A446ABE0854D4F
:10373400AB4214D00CD8A5F58015AB420FD005F5DB
:103744007025AB420BD0A5F58015AB4210D106E035
:103754007D4DAB4203D005F58035AB4208D18B6873
:10376400002B5AD0012B53D04261082400E0CC68CE
:10377400BEF1FF0F53D806464FEA8C0233680F257B
:10378400954023EA050304FA02F2134333604B68BD
:1037940013F0805F75D06D4B9A6942F001029A6113
:1037A4009B6903F001030193019B4FEA9C02951C62
:1037B400674B53F825600CF00305AD000F23AB40B5
:1037C40026EA0306634B984230D003F5806398429F
:1037D40000F0968003F58063984200F0938003F52F
:1037E4008063984200F0908003F58063984200F073
:1037F4008D8003F58063984216D0062317E0CC68C9
:103804000434B5E7CC680834B2E7CC680C34AFE7CD
:1038140002610824ACE70024AAE70424A8E7061DF3
:10382400ACF108029200A9E7052300E00023AB40B5
:1038340033430232464D45F822304B6813F4801F5F
:1038440066D0454A936843EA0E0393604B6813F4C9
:10385400001F63D0404AD36843EA0E03D3604B6829
:1038640013F4003F60D03C4A536843EA0E035360AC
:103874004B6813F4803F5DD0374A136843EA0E0364
:1038840013600CF1010C0B6833FA0CF258D00122CE
:1038940002FA0CF203EA020E32EA0303F1D14B6896
:1038A400122B3FF644AF122B3FF662AF01A555F839
:1038B40023F000BF63370008733700080938000895
:1038C4001B3800087537000875370008753700087D
:1038D4007537000875370008753700087537000814
:1038E4007537000875370008753700087537000804
:1038F4007537000875370008033800080F380008CA
:10390400012394E7022392E7032390E704238EE73D
:10391400114A936823EA0E03936097E70E4AD3682B
:1039240023EA0E03D3609AE70B4A536823EA0E0393
:1039340053609DE7084A136823EA0E031360A0E767
:1039440002B070BD000022100000311000100240CF
:10395400000001400008014000040140836819424E
:1039640001D001207047002070470AB101617047FF
:103974000904016170470000002808DB0901C9B28D
:1039840000F1604000F5614080F80013704700F0DA
:103994000F000901C9B2014B1954704714ED00E03E
:1039A40000B500F00700C0F1070CBCF1040F28BFFC
:1039B4004FF0040C031D062B0FD9C31E4FF0FF3E1E
:1039C4000EFA0CF021EA000199400EFA03FE22EAF5
:1039D4000E0241EA02005DF804FB0023EEE700005A
:1039E400074AD36823F4E0631B041B0C000200F4B1
:1039F400E060034343F0BF6343F40033D360704794
:103A040000ED00E010B50446054BD868C0F3022071
:103A1400FFF7C6FF01462046FFF7AEFF10BD00BF0B
:103A240000ED00E0002807DB00F01F02400901233D
:103A34009340024A42F82030704700BF00E100E0A2
:103A440010B504460268136923F44053C1680B435C
:103A5400136183680269134342691A430168CB689E
:103A640023F4B05323F00C031343CB60026853696F
:103A740023F4407381690B4353610268134B9A42E8
:103A840020D0FFF785FD024602EB820202EB8202A0
:103A940063689B00B2FBF3F20D48A0FB02314909B5
:103AA400642303FB11231B013233A0FB03035B09D3
:103AB40003F0F00202EB011203F00F032168134438
:103AC4008B6010BDFFF774FD0246DDE7003801404E
:103AD4001F85EB5160B310B5044690F8413013B321
:103AE400242384F841302268D36823F40053D3603C
:103AF4002046FFF7A5FF2268136923F4904313615E
:103B04002268536923F02A0353612268D36843F47B
:103B14000053D36000206064202384F8413084F88B
:103B24004230606310BD80F84030FCF751FDD7E7A8
:103B340001207047704798B108B50346D0F8B40225
:103B440010B10020C3F8B40209B1C3F8B0120121C6
:103B540083F89C121A701846FCF788FF002008BDF1
:103B64000220704719B1C0F8B41200207047022037
:103B7400704708B5FDF712F8002008BD08B5D0F865
:103B8400B4322BB11B68984700B908BD0220FCE78A
:103B94000220FAE708B5D0F8B4325B6898470020F1
:103BA40008BD38B5044600F52A75284600F035F9F5
:103BB4000123C4F89432B4F8AE32C4F8983294F8BD
:103BC400A81201F01F03012B08D0022B0BD07BB9E4
:103BD4002946204600F0D0FA002038BD2946204668
:103BE40000F0FEFAF8E72946204600F029FBF3E747
:103BF40001F080012046FCF7ECFFEDE738B5044600
:103C04000D4691BB1346D0F89422032A03D0052A0B
:103C140024D0084633E0D0F86011D0F864219142F2
:103C24000DD9891AC0F860118A4206D98AB2194698
:103C3400204600F037FC284621E092B2F7E7D0F89E
:103C4400B4321B691BB190F89C22032A04D020468D
:103C540000F030FC284612E09847F8E70021C0F84D
:103C64009412FCF7B6FF284609E0D0F8B4329B69F9
:103C740033B190F89C22032A04D19847002038BD20
:103C84000220FCE70220FAE738B504460D46002975
:103C940053D11346D0F89422022A0CD0042A00D01F
:103CA4001AB980212046FCF794FF94F8A032012B26
:103CB4003ED0284638BD026A416A8A421BD8C2698E
:103CC400B2FBF1F301FB13232BB9914203D8D0F8D3
:103CD40098329A421CD3D4F8B432DB681BB194F8FE
:103CE4009C22032A21D080212046FCF772FF204623
:103CF40000F0EBFBD9E7521A026292B2194600F0C7
:103D0400BAFB00231A4619462046FCF798FFCCE775
:103D14000022114600F0AFFB0021C4F898120B46B4
:103D24000A462046FCF78BFFBFE720469847DAE7B0
:103D3400002384F8A0322846BCE7D0F8B4325B698B
:103D440033B190F89C22032A04D198470020B1E7AC
:103D54000220AFE70220ADE770B5044640230022FD
:103D64001146FCF723FF0125C4F858514026C4F836
:103D740064613346002280212046FCF717FFA561C9
:103D8400666284F89C520023C4F894326360C4F8D9
:103D9400A432D4F8B8322BB1D4F8B4325B68002121
:103DA40020469847002070BD01740020704790F8A9
:103DB4009C3280F89D32042380F89C3200207047A6
:103DC40090F89C32042B01D00020704790F89D326B
:103DD40080F89C32F8E708B590F89C32032B01D0A8
:103DE400002008BDD0F8B432DB69002BF8D0984726
:103DF400F6E70346002002E00130C0B201331A782E
:103E0400002AF9D1704708B54B88012B00D008BDB2
:103E1400C0F8A43200F04EFBF9E70B7803704B783E
:103E240043708B78CA7803EB022343800B794A7979
:103E340003EB022383808B79CA7903EB0223C380CB
:103E4400704710B504468021FCF7C3FE00212046CC
:103E5400FCF7BFFE10BD30B583B005460C46002309
:103E6400ADF806304A88130A013B062B00F2A48001
:103E7400DFE803F004182CA2A2869300D0F8B03235
:103E84001B680DF10601007C9847BDF806201AB1A5
:103E9400E388002B40F09480E388002B00F09A80A4
:103EA40003B030BD037C43B9D0F8B4329B6A0DF142
:103EB4000600984702234370E7E7D0F8B432DB6A80
:103EC4000DF10600984702234370DEE7D2B2052ABB
:103ED40052D8DFE802F003101D2A3744D0F8B0327C
:103EE4005B6823B10DF10601007C9847CDE72146BC
:103EF400FFF7A7FFD4E7D0F8B0329B6823B10DF1E8
:103F04000601007C9847C0E72146FFF79AFFC7E700
:103F1400D0F8B032DB6823B10DF10601007C98477C
:103F2400B3E72146FFF78DFFBAE7D0F8B0321B693B
:103F340023B10DF10601007C9847A6E72146FFF75F
:103F440080FFADE7D0F8B0325B6923B10DF1060113
:103F5400007C984799E72146FFF773FFA0E7D0F864
:103F6400B0329B6923B10DF10601007C98478CE7C0
:103F74002146FFF766FF93E72146FFF762FF8FE7CD
:103F8400037C33B9D0F8B4325B6B0DF1060098476B
:103F94007BE72146FFF755FF82E7037C43B9D0F85E
:103FA400B4321B6B0DF106009847072343706CE78E
:103FB4002146FFF746FF73E72146FFF742FF6FE70D
:103FC4009A4228BF1A46ADF806200146284600F05A
:103FD40045FA61E7284600F06DFA61E738B5044612
:103FE4008B88F3B9CB88E3B94B887F2B19D803F0BE
:103FF4007F0590F89C32032B0CD080F89E52294602
:10400400FCF70DFE204600F055FA35B1022384F882
:104014009C3209E0FFF715FF06E0012384F89C3287
:1040240002E02046FFF70DFF38BD000038B5044616
:104034000D468978284B197001290ED890F89C32C6
:10404400022B0ED0032B21D02946FFF7FAFE224B78
:1040540019782046FFF79EFD02E02946FFF7F1FE9E
:1040640038BD81B14160032380F89C32FFF786FD9F
:10407400022803D0204600F01DFAF1E72946204625
:10408400FFF7DFFEECE700F015FAE9E789B14368D2
:1040940099421DD0D9B2FFF77DFD0F4B19786160AD
:1040A4002046FFF76BFD02280DD0204600F002FAEF
:1040B400D6E7022380F89C324160FFF76BFD20466F
:1040C40000F0F8F9CCE729462046FFF7BAFEC7E727
:1040D40000F0F0F9C4E700BFC40B002008B5CB889A
:1040E400012B0AD190F89C32022B09D9032B11D150
:1040F4000122011D00F0B2F901E0FFF7A2FE08BDA4
:104104005BB23BB10146002341F8083F012200F0B5
:10411400A5F9F4E7FFF795FEF1E708B590F89C32AE
:10412400013B022B12D8CB88022B0CD10123C36094
:10413400D0F8A4320BB10323C360022200F10C01B6
:1041440000F08CF908BDFFF77CFEFBE7FFF779FE72
:10415400F8E708B590F89C32013B022B09D84B884C
:10416400012B00D008BD0023C0F8A43200F0A2F94E
:10417400F8E7FFF766FEF5E708B50B7803F0600390
:10418400202B05D0402B03D043B1FFF75AFE03E0A8
:10419400D0F8B4329B689847002008BD4B78092BAF
:1041A4001BD8DFE803F011171A141A08051A0E0BAE
:1041B400FFF751FEF0E7FFF711FFEDE7FFF736FFDA
:1041C400EAE7FFF78BFFE7E7FFF7A7FFE4E7FFF76F
:1041D4001AFEE1E7FFF7BDFFDEE7FFF732FEDBE79C
:1041E40038B505460C460B7803F06003202B06D047
:1041F400402B04D01BB1FFF724FE002038BD95F8F6
:104204009C32013B022B16D82379052B0ED8D5F806
:10421400B4329B68214628469847E388002BECD1AA
:104224000028EAD1284600F045F9E6E72146284669
:10423400FFF707FEE1E721462846FFF702FEDCE729
:1042440070B505468B880C7804F06004202C07D0E8
:10425400DAB2402C04D05CB1FFF7F3FD002405E092
:10426400D5F8B4329B68284698470024204670BD90
:10427400202C09D04E78012E33D0032E0AD0002EE4
:1042840055D0FFF7DEFDF1E7D0F8B4329B689847CC
:104294000446EBE790F89C32022B04D0032B11D098
:1042A400FFF7CFFDE2E70AB1802A03D12846FFF7E2
:1042B400C8FDDBE71146FCF78CFC80212846FCF79F
:1042C40088FCD3E74B8823B91AB1802A01D0CB8864
:1042D4001BB1284600F0EEF8C8E71146FCF779FC5C
:1042E400F7E790F89C32022B04D0032B11D0FFF790
:1042F400A8FDBBE70AB1802A03D12846FFF7A1FD38
:10430400B4E71146FCF765FC80212846FCF761FC04
:10431400ACE74B88002BA9D112F07F0F03D12846BC
:1043240000F0C8F8A2E71146FCF75BFCF7E790F849
:104334009C02022806D0032829D02846FFF781FDD5
:10434400344693E70AB1802A13D113F0800F15D1B4
:1043540002F07F0202EB8202910001F5A871294468
:10436400043100230B600222284600F077F834461B
:104374007CE72846FFF765FD344677E702F07F02C5
:1043840002EB82029100103129440431E9E75BB267
:10439400002B1FDB02F00F0000EB800005EB800018
:1043A400D0F8580120B3002B27DB02F07F0303EB86
:1043B40083039C0004F5A8742C4404340AB1802AB5
:1043C40024D10023236002222146284600F046F827
:1043D40034464BE702F00F0000EB800005EB800051
:1043E40080690028DFD12846FFF72BFD34463DE7DE
:1043F4002846FFF726FD344638E702F07F0303EB37
:1044040083039C0010342C440434D7E71146284617
:10441400FCF7EFFB10B101232360D4E700232360F2
:10442400D1E7D0B170B50D4616460446FFF7E1FC5E
:10443400431C5B009BB233802B7003236B700223FD
:1044440007E001345A1CD2B2E8540233DBB2002133
:10445400A95420780028F4D170BD704708B51346DC
:104464000222C0F89422C36103620A460021FCF7C9
:10447400DEFB002008BD08B513460A460021FCF700
:10448400D6FB002008BD08B513460322C0F89422C9
:10449400C0F85C31C0F860310A460021FCF7CFFB5C
:1044A400002008BD08B513460A460021FCF7C7FBE7
:1044B400002008BD08B50423C0F8943200231A462E
:1044C4001946FCF7B4FB002008BD08B50523C0F865
:1044D400943200231A461946FCF7B1FB002008BDAC
:1044E4004A23038000487047740200204A23038053
:1044F40000487047280200204A2303800048704780
:10450400DC010020D0F8B83200201875704710B5CF
:10451400D0F8B8422369012B01D0002010BDD0F897
:10452400BC32DB6861782078984700232361F4E784
:104534000A23038000487047C401002038B50446AC
:10454400D0F8B852D0F8BC32DB686978287898473C
:1045540002232A4601212046FCF771FB002038BDC6
:1045640070B582B0D0F8B8520023ADF806300C789C
:1045740004F06004202C07D0402C00F0868084B323
:10458400FFF75FFC022488E04B78023B092B24D818
:10459400DFE803F0140923232323231B0F058B785F
:1045A4006B60002479E00122291DFFF757FF0024E6
:1045B40073E04B881B0AAB6000246EE0012205F116
:1045C4000801FFF74BFF002467E001232B61CA8831
:1045D4002946FFF758FF00245FE0FFF732FC02246E
:1045E4005BE04E780B2E4CD8DFE806F0064B4B4BC5
:1045F4004B4B154B4B4B324090F89C32032B03D062
:10460400FFF71FFC022448E002220DF10601FFF728
:1046140025FF344641E04B881B0A222B06D0212B70
:1046240010D000210A46FFF719FF36E08B88012BD2
:1046340002D000210A46F6E7CA88762A28BF7622E5
:104644001A49F0E7CA88092A28BF09221849EAE763
:1046540090F89C32032B03D0FFF7F3FB02241CE0F9
:10466400012205F10C01FFF7F9FE16E090F89C32E7
:10467400032B02D18B78EB600FE0FFF7E2FB0224FF
:104684000BE0FFF7DEFB022407E04B78902B07D00A
:1046940000210A46FFF7E2FE0024204602B070BD66
:1046A400CA88282A28BF28220249F3E71C010020CF
:1046B400D00100209C01002038B504468121FCF77C
:1046C40080FA0025E56201212046FCF77AFAC4F855
:1046D4006C51D4F8B8324BB1D4F8BC329B689847CB
:1046E400D4F8B802FCF7B8FAC4F8B852002038BDC0
:1046F40070B50446202303228121FCF757FA0125D3
:10470400E5622023032229462046FCF74FFAC4F829
:104714006C512023032229462046FCF747FA202324
:10472400032281212046FCF741FAE562C4F86C516A
:104734002023032202212046FCF738FA20230322F7
:1047440082212046FCF732FA2564C4F880512023E4
:10475400032211462046FCF729FA20230322832151
:104764002046FCF723FA6565C4F8945120230322FC
:1047740004212046FCF71AFA202303228421204630
:10478400FCF714FAA566C4F8A851202303220521D6
:104794002046FCF70BFA2023032285212046FCF750
:1047A40005FAE567C4F8BC512023032206212046FC
:1047B400FCF7FCF92023032286212046FCF7F6F9B6
:1047C400C4F89050C4F8D051202303220721204676
:1047D400FCF7ECF92023032287212046FCF7E6F9B5
:1047E400C4F8A450C4F8E4511820FCF731FAC4F812
:1047F400B80270B1054600260675D4F8BC325B6871
:10480400984702232A4601212046FCF718FA30462D
:1048140070BD0120FCE738B58C461946D0F8B85273
:1048240090F89C32032B02D00024204638BD2C7D06
:104834000CB10124F9E701232B7513466246FCF7FA
:10484400F6F9F2E719B1C0F8BC1200207047022053
:1048540070472DE9F8430546002415E0D5F804C057
:1048640003EBC4071CF807E02A68925D0120984016
:1048740002401A4142EA4E020CF807200133DBB22F
:10488400072BEBD90134E4B226464FEAD109B4EB45
:10489400D10F01D20023F3E7002311E0D5F804C0BF
:1048A40003EBC4071CF807E02A68925D01209840D6
:1048B40002401A4142EA4E020CF807200133DBB2EF
:1048C40001F007084345E9D3002745E0A9688A5D5C
:1048D4000123A340DBB21A438A55AA68925DD5F836
:1048E4000CC01CF806104A40224112F0010F04D0FB
:1048F40019430CF806102B6998470134E4B2072CCD
:1049040028D86B6804EBC7001B5C03F00F030F2B64
:10491400DCD0002BF1D1D5F808C01CF806E0012347
:10492400A340DB43D9B203EA0E030CF80630AB68AC
:104934009B5DD5F80CE01EF806C083EA0C03234106
:1049440013F0010FD9D00CEA010C0EF806C06B6904
:104954009847D2E70137FFB23E46B94501D9002452
:10496400CDE7002418E0A9688A5D0123A340DBB2E7
:104974001A438A55AA68925DD5F80CC01CF8061033
:104984004A40224112F0010F04D019430CF80610DA
:104994002B6998470134E4B2A04526D96B6804EB2F
:1049A400C7001B5C03F00F030F2BDCD0002BF1D1ED
:1049B400A96811F806E00123A340DB435FFA83FCF6
:1049C40003EA0E038B55AB689B5DD5F80CE01EF82B
:1049D40006104B40234113F0010FDBD001EA0C0118
:1049E4000EF806106B699847D4E7BDE8F883000019
:1049F400FFF7A0F80B480C490C4A002302E0D458F6
:104A0400C4500433C4188C42F9D3094A094C002316
:104A140001E013600432A242FBD300F017F8FBF765
:104A2400F1FC704700000020F8020020444B00080D
:104A3400F8020020C80B0020FEE70346024493421C
:104A440000D1704703F8011BF9E7000070B5002698
:104A54000C4D0D4C641BA410A64209D100F01AF8A9
:104A640000260A4D0A4C641BA410A64205D170BD51
:104A740055F8043B98470136EEE755F8043B984750
:104A84000136F2E73C4B00083C4B00083C4B000865
:104A9400404B0008F8B500BFF8BC08BC9E46704700
:0C4AA400F8B500BFF8BC08BC9E46704787
:104AB00053544D333220437573746F6D2048756DB8
:104AC000616E20696E746572666163650000000046
:104AD00053544D6963726F656C656374726F6E6970
:104AE00063730000437573746F6D2048494420431D
:104AF0006F6E666967000000437573746F6D2048C0
:104B0000494420496E746572666163650000000067
:104B10000102000002030405060708090A0B0C0D38
:104B20000E0F10100000000001020304000000003E
:0C4B300000000000010203040607080951
:044B3C000902000862
:044B4000E501000883
:104B44001C0300202003002018030020140300206D
:104B5400250200086902000800140000000000009B
:104B64000000000000000000000000000100000040
:104B74000000000000000000000000000000000031
:104B8400000000001A030000000000000000000004
:104B94000000000000000000000000000000000011
:104BA40004030904120100020000004037354010DC
:104BB4000001010203010000410800084D0800083B
:104BC40011090008ED080008D90800082D0900089B
:104BD40051090008A400002075090008790900089B
:104BE4007D09000800C00000000000000000000073
:104BF40000000000000000000000000000000000B1
:104C040000000000000000000000000000000000A0
:104C14000000000000000000000000000000000090
:104C24000000000000000000000000000000000080
:104C34000000000000000000000000000000000070
:104C44000000000000000000000000000000000060
:104C5400000000000000000000000000050109053C
:104C6400A101A100850105091901291015002501DB
:104C740095107501810205010930093109320933A2
:104C8400150026FF00750895048102C0C0050109BE
:104C940006A1018502050719E029E71500250195FC
:104CA4000875018102050719042965150025019578
:104CB40062750181029501750681030508190129B0
:104CC400051500250195057501910295017503915E
:104CD40003C001001000000000127A002800000048
:104CE400000104000100000000000000000158550C
:104CF40053423130000000000000000000000000BA
:104D0400000000000A06000200000040010000004C
:104D140009211101000122760000000009024A0065
:104D2400010100C03209040000020300000009214F
:104D34001101000122760007058103200005070503
:104D44000103200005000000000000000000000036
:104D5400000000000000000000000000000000004F
:104D6400000000000000000009024A00010100C028
:104D740032090400000203000000092111010001AE
:104D840022760007058103200005070501032000A2
:104D9400050000000000000000000000000000000A
:104DA40000000000000000000000000000000000FF
:104DB4000000000009024A0002010080FA09040010
:104DC4000002FF5D01001121100101248114030080
:104DD40000000013020800070581032000040705F2
:104DE4000203200008090401000103010100092154
:104DF400110100012276000705820310000800005B
:104E0400F5460008BD46000865450008000000009E
:104E1400134500080945000841450008000000004A
:104E24000000000000000000F1440008E544000810
:084E3400FD44000835450008AB
:04000005080049F5B1
:00000001FF
